{
	"data": {
		"bytecode": {
			"linkReferences": {},
			"object": "608060405234801561000f575f80fd5b506040518060400160405280601581526020017f426c6f67526576696577436572746966696361746500000000000000000000008152506040518060400160405280600381526020017f4252430000000000000000000000000000000000000000000000000000000000815250815f908161008a91906103c2565b50806001908161009a91906103c2565b5050506100b96100ae6100be60201b60201c565b6100c560201b60201c565b610491565b5f33905090565b5f60075f9054906101000a900473ffffffffffffffffffffffffffffffffffffffff1690508160075f6101000a81548173ffffffffffffffffffffffffffffffffffffffff021916908373ffffffffffffffffffffffffffffffffffffffff1602179055508173ffffffffffffffffffffffffffffffffffffffff168173ffffffffffffffffffffffffffffffffffffffff167f8be0079c531659141344cd1fd0a4f28419497f9722a3daafe3b4186f6b6457e060405160405180910390a35050565b5f81519050919050565b7f4e487b71000000000000000000000000000000000000000000000000000000005f52604160045260245ffd5b7f4e487b71000000000000000000000000000000000000000000000000000000005f52602260045260245ffd5b5f600282049050600182168061020357607f821691505b602082108103610216576102156101bf565b5b50919050565b5f819050815f5260205f209050919050565b5f6020601f8301049050919050565b5f82821b905092915050565b5f600883026102787fffffffffffffffffffffffffffffffffffffffffffffffffffffffffffffffff8261023d565b610282868361023d565b95508019841693508086168417925050509392505050565b5f819050919050565b5f819050919050565b5f6102c66102c16102bc8461029a565b6102a3565b61029a565b9050919050565b5f819050919050565b6102df836102ac565b6102f36102eb826102cd565b848454610249565b825550505050565b5f90565b6103076102fb565b6103128184846102d6565b505050565b5b818110156103355761032a5f826102ff565b600181019050610318565b5050565b601f82111561037a5761034b8161021c565b6103548461022e565b81016020851015610363578190505b61037761036f8561022e565b830182610317565b50505b505050565b5f82821c905092915050565b5f61039a5f198460080261037f565b1980831691505092915050565b5f6103b2838361038b565b9150826002028217905092915050565b6103cb82610188565b67ffffffffffffffff8111156103e4576103e3610192565b5b6103ee82546101ec565b6103f9828285610339565b5f60209050601f83116001811461042a575f8415610418578287015190505b61042285826103a7565b865550610489565b601f1984166104388661021c565b5f5b8281101561045f5784890151825560018201915060208501945060208101905061043a565b8683101561047c5784890151610478601f89168261038b565b8355505b6001600288020188555050505b505050505050565b6145128061049e5f395ff3fe608060405234801561000f575f80fd5b5060043610610140575f3560e01c8063874ce680116100b6578063b88d4fde1161007a578063b88d4fde14610372578063c87b56dd1461038e578063e2367890146103be578063e985e9c5146103dc578063f2fde38b1461040c578063f6ae476b1461042857610140565b8063874ce680146102ba5780638d13d72d146102ea5780638da5cb5b1461031a57806395d89b4114610338578063a22cb4651461035657610140565b806321c61a001161010857806321c61a00146101fc57806323b872dd1461021857806342842e0e146102345780636352211e1461025057806370a0823114610280578063715018a6146102b057610140565b806301ffc9a71461014457806306fdde0314610174578063081812fc14610192578063095ea7b3146101c257806313fcfe80146101de575b5f80fd5b61015e60048036038101906101599190612ac9565b610458565b60405161016b9190612b0e565b60405180910390f35b61017c610539565b6040516101899190612b97565b60405180910390f35b6101ac60048036038101906101a79190612bea565b6105c8565b6040516101b99190612c54565b60405180910390f35b6101dc60048036038101906101d79190612c97565b61060a565b005b6101e6610720565b6040516101f39190612ec6565b60405180910390f35b61021660048036038101906102119190612f10565b610a4b565b005b610232600480360381019061022d9190612f3b565b610ddd565b005b61024e60048036038101906102499190612f3b565b610e3d565b005b61026a60048036038101906102659190612bea565b610e5c565b6040516102779190612c54565b60405180910390f35b61029a60048036038101906102959190612f8b565b610f08565b6040516102a79190612fc5565b60405180910390f35b6102b8610fbc565b005b6102d460048036038101906102cf9190612f10565b610fcf565b6040516102e19190612b0e565b60405180910390f35b61030460048036038101906102ff919061310a565b611009565b6040516103119190612fc5565b60405180910390f35b6103226111a6565b60405161032f9190612c54565b60405180910390f35b6103406111ce565b60405161034d9190612b97565b60405180910390f35b610370600480360381019061036b9190613249565b61125e565b005b61038c60048036038101906103879190613325565b611274565b005b6103a860048036038101906103a39190612bea565b6112d6565b6040516103b59190612b97565b60405180910390f35b6103c6611340565b6040516103d39190612fc5565b60405180910390f35b6103f660048036038101906103f191906133a5565b611346565b6040516104039190612b0e565b60405180910390f35b61042660048036038101906104219190612f8b565b6113d4565b005b610442600480360381019061043d9190612f10565b611456565b60405161044f9190613491565b60405180910390f35b5f7f80ac58cd000000000000000000000000000000000000000000000000000000007bffffffffffffffffffffffffffffffffffffffffffffffffffffffff1916827bffffffffffffffffffffffffffffffffffffffffffffffffffffffff1916148061052257507f5b5e139f000000000000000000000000000000000000000000000000000000007bffffffffffffffffffffffffffffffffffffffffffffffffffffffff1916827bffffffffffffffffffffffffffffffffffffffffffffffffffffffff1916145b8061053257506105318261180d565b5b9050919050565b60605f8054610547906134de565b80601f0160208091040260200160405190810160405280929190818152602001828054610573906134de565b80156105be5780601f10610595576101008083540402835291602001916105be565b820191905f5260205f20905b8154815290600101906020018083116105a157829003601f168201915b5050505050905090565b5f6105d282611876565b60045f8381526020019081526020015f205f9054906101000a900473ffffffffffffffffffffffffffffffffffffffff169050919050565b5f61061482610e5c565b90508073ffffffffffffffffffffffffffffffffffffffff168373ffffffffffffffffffffffffffffffffffffffff1603610684576040517f08c379a000000000000000000000000000000000000000000000000000000000815260040161067b9061357e565b60405180910390fd5b8073ffffffffffffffffffffffffffffffffffffffff166106a36118c1565b73ffffffffffffffffffffffffffffffffffffffff1614806106d257506106d1816106cc6118c1565b611346565b5b610711576040517f08c379a00000000000000000000000000000000000000000000000000000000081526004016107089061360c565b60405180910390fd5b61071b83836118c8565b505050565b60606008805480602002602001604051908101604052809291908181526020015f905b82821015610a42578382905f5260205f2090600602016040518060e00160405290815f82015f9054906101000a900467ffffffffffffffff1667ffffffffffffffff1667ffffffffffffffff1681526020015f820160089054906101000a900473ffffffffffffffffffffffffffffffffffffffff1673ffffffffffffffffffffffffffffffffffffffff1673ffffffffffffffffffffffffffffffffffffffff1681526020016001820180546107f9906134de565b80601f0160208091040260200160405190810160405280929190818152602001828054610825906134de565b80156108705780601f1061084757610100808354040283529160200191610870565b820191905f5260205f20905b81548152906001019060200180831161085357829003601f168201915b50505050508152602001600282018054610889906134de565b80601f01602080910402602001604051908101604052809291908181526020018280546108b5906134de565b80156109005780601f106108d757610100808354040283529160200191610900565b820191905f5260205f20905b8154815290600101906020018083116108e357829003601f168201915b50505050508152602001600382018054610919906134de565b80601f0160208091040260200160405190810160405280929190818152602001828054610945906134de565b80156109905780601f1061096757610100808354040283529160200191610990565b820191905f5260205f20905b81548152906001019060200180831161097357829003601f168201915b505050505081526020016004820180546109a9906134de565b80601f01602080910402602001604051908101604052809291908181526020018280546109d5906134de565b8015610a205780601f106109f757610100808354040283529160200191610a20565b820191905f5260205f20905b815481529060010190602001808311610a0357829003601f168201915b5050505050815260200160058201548152505081526020019060010190610743565b50505050905090565b610a5361197e565b610a668167ffffffffffffffff166119fc565b610aa5576040517f08c379a0000000000000000000000000000000000000000000000000000000008152600401610a9c90613674565b60405180910390fd5b600a5f8267ffffffffffffffff1667ffffffffffffffff1681526020019081526020015f205f9054906101000a900460ff1615610b17576040517f08c379a0000000000000000000000000000000000000000000000000000000008152600401610b0e906136dc565b60405180910390fd5b6001600a5f8367ffffffffffffffff1667ffffffffffffffff1681526020019081526020015f205f6101000a81548160ff0219169083151502179055505f5b600880549050811015610dc6578167ffffffffffffffff1660088281548110610b8257610b816136fa565b5b905f5260205f2090600602015f015f9054906101000a900467ffffffffffffffff1667ffffffffffffffff1603610db95760086001600880549050610bc79190613754565b81548110610bd857610bd76136fa565b5b905f5260205f20906006020160088281548110610bf857610bf76136fa565b5b905f5260205f2090600602015f82015f9054906101000a900467ffffffffffffffff16815f015f6101000a81548167ffffffffffffffff021916908367ffffffffffffffff1602179055505f820160089054906101000a900473ffffffffffffffffffffffffffffffffffffffff16815f0160086101000a81548173ffffffffffffffffffffffffffffffffffffffff021916908373ffffffffffffffffffffffffffffffffffffffff16021790555060018201816001019081610cbc9190613939565b5060028201816002019081610cd19190613939565b5060038201816003019081610ce69190613939565b5060048201816004019081610cfb9190613939565b50600582015481600501559050506008805480610d1b57610d1a613a1e565b5b600190038181905f5260205f2090600602015f8082015f6101000a81549067ffffffffffffffff02191690555f820160086101000a81549073ffffffffffffffffffffffffffffffffffffffff0219169055600182015f610d7c91906129b1565b600282015f610d8b91906129b1565b600382015f610d9a91906129b1565b600482015f610da991906129b1565b600582015f905550509055610dc6565b8080600101915050610b56565b50610dda8167ffffffffffffffff16611a64565b50565b610dee610de86118c1565b82611a70565b610e2d576040517f08c379a0000000000000000000000000000000000000000000000000000000008152600401610e2490613abb565b60405180910390fd5b610e38838383611b04565b505050565b610e5783838360405180602001604052805f815250611274565b505050565b5f8060025f8481526020019081526020015f205f9054906101000a900473ffffffffffffffffffffffffffffffffffffffff1690505f73ffffffffffffffffffffffffffffffffffffffff168173ffffffffffffffffffffffffffffffffffffffff1603610eff576040517f08c379a0000000000000000000000000000000000000000000000000000000008152600401610ef690613b23565b60405180910390fd5b80915050919050565b5f8073ffffffffffffffffffffffffffffffffffffffff168273ffffffffffffffffffffffffffffffffffffffff1603610f77576040517f08c379a0000000000000000000000000000000000000000000000000000000008152600401610f6e90613bb1565b60405180910390fd5b60035f8373ffffffffffffffffffffffffffffffffffffffff1673ffffffffffffffffffffffffffffffffffffffff1681526020019081526020015f20549050919050565b610fc461197e565b610fcd5f611d5f565b565b5f600a5f8367ffffffffffffffff1667ffffffffffffffff1681526020019081526020015f205f9054906101000a900460ff169050919050565b5f80611013611e22565b9050611029888267ffffffffffffffff16611e66565b61103d8167ffffffffffffffff1685611e83565b60086040518060e001604052808367ffffffffffffffff1681526020018a73ffffffffffffffffffffffffffffffffffffffff16815260200189815260200188815260200187815260200185815260200142815250908060018154018082558091505060019003905f5260205f2090600602015f909190919091505f820151815f015f6101000a81548167ffffffffffffffff021916908367ffffffffffffffff1602179055506020820151815f0160086101000a81548173ffffffffffffffffffffffffffffffffffffffff021916908373ffffffffffffffffffffffffffffffffffffffff160217905550604082015181600101908161113f9190613bcf565b5060608201518160020190816111559190613bcf565b50608082015181600301908161116b9190613bcf565b5060a08201518160040190816111819190613bcf565b5060c0820151816005015550508067ffffffffffffffff169150509695505050505050565b5f60075f9054906101000a900473ffffffffffffffffffffffffffffffffffffffff16905090565b6060600180546111dd906134de565b80601f0160208091040260200160405190810160405280929190818152602001828054611209906134de565b80156112545780601f1061122b57610100808354040283529160200191611254565b820191905f5260205f20905b81548152906001019060200180831161123757829003601f168201915b5050505050905090565b6112706112696118c1565b8383611eee565b5050565b61128561127f6118c1565b83611a70565b6112c4576040517f08c379a00000000000000000000000000000000000000000000000000000000081526004016112bb90613abb565b60405180910390fd5b6112d084848484612055565b50505050565b6060600a5f8367ffffffffffffffff1667ffffffffffffffff1681526020019081526020015f205f9054906101000a900460ff161561132f576040518060600160405280602181526020016144bc60219139905061133b565b611338826120b1565b90505b919050565b60095481565b5f60055f8473ffffffffffffffffffffffffffffffffffffffff1673ffffffffffffffffffffffffffffffffffffffff1681526020019081526020015f205f8373ffffffffffffffffffffffffffffffffffffffff1673ffffffffffffffffffffffffffffffffffffffff1681526020019081526020015f205f9054906101000a900460ff16905092915050565b6113dc61197e565b5f73ffffffffffffffffffffffffffffffffffffffff168173ffffffffffffffffffffffffffffffffffffffff160361144a576040517f08c379a000000000000000000000000000000000000000000000000000000000815260040161144190613d0e565b60405180910390fd5b61145381611d5f565b50565b61145e6129ee565b5f5b6008805490508110156117cc578267ffffffffffffffff166008828154811061148c5761148b6136fa565b5b905f5260205f2090600602015f015f9054906101000a900467ffffffffffffffff1667ffffffffffffffff16036117bf57600881815481106114d1576114d06136fa565b5b905f5260205f2090600602016040518060e00160405290815f82015f9054906101000a900467ffffffffffffffff1667ffffffffffffffff1667ffffffffffffffff1681526020015f820160089054906101000a900473ffffffffffffffffffffffffffffffffffffffff1673ffffffffffffffffffffffffffffffffffffffff1673ffffffffffffffffffffffffffffffffffffffff16815260200160018201805461157d906134de565b80601f01602080910402602001604051908101604052809291908181526020018280546115a9906134de565b80156115f45780601f106115cb576101008083540402835291602001916115f4565b820191905f5260205f20905b8154815290600101906020018083116115d757829003601f168201915b5050505050815260200160028201805461160d906134de565b80601f0160208091040260200160405190810160405280929190818152602001828054611639906134de565b80156116845780601f1061165b57610100808354040283529160200191611684565b820191905f5260205f20905b81548152906001019060200180831161166757829003601f168201915b5050505050815260200160038201805461169d906134de565b80601f01602080910402602001604051908101604052809291908181526020018280546116c9906134de565b80156117145780601f106116eb57610100808354040283529160200191611714565b820191905f5260205f20905b8154815290600101906020018083116116f757829003601f168201915b5050505050815260200160048201805461172d906134de565b80601f0160208091040260200160405190810160405280929190818152602001828054611759906134de565b80156117a45780601f1061177b576101008083540402835291602001916117a4565b820191905f5260205f20905b81548152906001019060200180831161178757829003601f168201915b50505050508152602001600582015481525050915050611808565b8080600101915050611460565b506040517f08c379a00000000000000000000000000000000000000000000000000000000081526004016117ff90613d9c565b60405180910390fd5b919050565b5f7f01ffc9a7000000000000000000000000000000000000000000000000000000007bffffffffffffffffffffffffffffffffffffffffffffffffffffffff1916827bffffffffffffffffffffffffffffffffffffffffffffffffffffffff1916149050919050565b61187f816119fc565b6118be576040517f08c379a00000000000000000000000000000000000000000000000000000000081526004016118b590613b23565b60405180910390fd5b50565b5f33905090565b8160045f8381526020019081526020015f205f6101000a81548173ffffffffffffffffffffffffffffffffffffffff021916908373ffffffffffffffffffffffffffffffffffffffff160217905550808273ffffffffffffffffffffffffffffffffffffffff1661193883610e5c565b73ffffffffffffffffffffffffffffffffffffffff167f8c5be1e5ebec7d5bd14f71427d1e84f3dd0314c0f7b2291e5b200ac8c7c3b92560405160405180910390a45050565b6119866118c1565b73ffffffffffffffffffffffffffffffffffffffff166119a46111a6565b73ffffffffffffffffffffffffffffffffffffffff16146119fa576040517f08c379a00000000000000000000000000000000000000000000000000000000081526004016119f190613e04565b60405180910390fd5b565b5f8073ffffffffffffffffffffffffffffffffffffffff1660025f8481526020019081526020015f205f9054906101000a900473ffffffffffffffffffffffffffffffffffffffff1673ffffffffffffffffffffffffffffffffffffffff1614159050919050565b611a6d816121bb565b50565b5f80611a7b83610e5c565b90508073ffffffffffffffffffffffffffffffffffffffff168473ffffffffffffffffffffffffffffffffffffffff161480611abd5750611abc8185611346565b5b80611afb57508373ffffffffffffffffffffffffffffffffffffffff16611ae3846105c8565b73ffffffffffffffffffffffffffffffffffffffff16145b91505092915050565b8273ffffffffffffffffffffffffffffffffffffffff16611b2482610e5c565b73ffffffffffffffffffffffffffffffffffffffff1614611b7a576040517f08c379a0000000000000000000000000000000000000000000000000000000008152600401611b7190613e92565b60405180910390fd5b5f73ffffffffffffffffffffffffffffffffffffffff168273ffffffffffffffffffffffffffffffffffffffff1603611be8576040517f08c379a0000000000000000000000000000000000000000000000000000000008152600401611bdf90613f20565b60405180910390fd5b611bf3838383612208565b611bfd5f826118c8565b600160035f8573ffffffffffffffffffffffffffffffffffffffff1673ffffffffffffffffffffffffffffffffffffffff1681526020019081526020015f205f828254611c4a9190613754565b92505081905550600160035f8473ffffffffffffffffffffffffffffffffffffffff1673ffffffffffffffffffffffffffffffffffffffff1681526020019081526020015f205f828254611c9e9190613f3e565b925050819055508160025f8381526020019081526020015f205f6101000a81548173ffffffffffffffffffffffffffffffffffffffff021916908373ffffffffffffffffffffffffffffffffffffffff160217905550808273ffffffffffffffffffffffffffffffffffffffff168473ffffffffffffffffffffffffffffffffffffffff167fddf252ad1be2c89b69c2b068fc378daa952ba7f163c4a11628f55a4df523b3ef60405160405180910390a4611d5a8383836122f4565b505050565b5f60075f9054906101000a900473ffffffffffffffffffffffffffffffffffffffff1690508160075f6101000a81548173ffffffffffffffffffffffffffffffffffffffff021916908373ffffffffffffffffffffffffffffffffffffffff1602179055508173ffffffffffffffffffffffffffffffffffffffff168173ffffffffffffffffffffffffffffffffffffffff167f8be0079c531659141344cd1fd0a4f28419497f9722a3daafe3b4186f6b6457e060405160405180910390a35050565b5f6305f5e1004244600954604051602001611e3f93929190613f91565b604051602081830303815290604052805190602001205f1c611e619190613ffa565b905090565b611e7f828260405180602001604052805f8152506122f9565b5050565b611e8c826119fc565b611ecb576040517f08c379a0000000000000000000000000000000000000000000000000000000008152600401611ec29061409a565b60405180910390fd5b8060065f8481526020019081526020015f209081611ee99190613bcf565b505050565b8173ffffffffffffffffffffffffffffffffffffffff168373ffffffffffffffffffffffffffffffffffffffff1603611f5c576040517f08c379a0000000000000000000000000000000000000000000000000000000008152600401611f5390614102565b60405180910390fd5b8060055f8573ffffffffffffffffffffffffffffffffffffffff1673ffffffffffffffffffffffffffffffffffffffff1681526020019081526020015f205f8473ffffffffffffffffffffffffffffffffffffffff1673ffffffffffffffffffffffffffffffffffffffff1681526020019081526020015f205f6101000a81548160ff0219169083151502179055508173ffffffffffffffffffffffffffffffffffffffff168373ffffffffffffffffffffffffffffffffffffffff167f17307eab39ab6107e8899845ad3d59bd9653f200f220920489ca2b5937696c31836040516120489190612b0e565b60405180910390a3505050565b612060848484611b04565b61206c84848484612353565b6120ab576040517f08c379a00000000000000000000000000000000000000000000000000000000081526004016120a290614190565b60405180910390fd5b50505050565b60606120bc82611876565b5f60065f8481526020019081526020015f2080546120d9906134de565b80601f0160208091040260200160405190810160405280929190818152602001828054612105906134de565b80156121505780601f1061212757610100808354040283529160200191612150565b820191905f5260205f20905b81548152906001019060200180831161213357829003601f168201915b505050505090505f6121606124d5565b90505f8151036121745781925050506121b6565b5f825111156121a85780826040516020016121909291906141e8565b604051602081830303815290604052925050506121b6565b6121b1846124eb565b925050505b919050565b6121c481612550565b5f60065f8381526020019081526020015f2080546121e1906134de565b9050146122055760065f8281526020019081526020015f205f61220491906129b1565b5b50565b5f73ffffffffffffffffffffffffffffffffffffffff168373ffffffffffffffffffffffffffffffffffffffff161415801561227057505f73ffffffffffffffffffffffffffffffffffffffff168273ffffffffffffffffffffffffffffffffffffffff1614155b156122e4575f73ffffffffffffffffffffffffffffffffffffffff168373ffffffffffffffffffffffffffffffffffffffff16146122e3576040517f08c379a00000000000000000000000000000000000000000000000000000000081526004016122da9061427b565b60405180910390fd5b5b6122ef838383612662565b505050565b505050565b6123038383612667565b61230f5f848484612353565b61234e576040517f08c379a000000000000000000000000000000000000000000000000000000000815260040161234590614190565b60405180910390fd5b505050565b5f6123738473ffffffffffffffffffffffffffffffffffffffff16612836565b156124c8578373ffffffffffffffffffffffffffffffffffffffff1663150b7a0261239c6118c1565b8786866040518563ffffffff1660e01b81526004016123be94939291906142eb565b6020604051808303815f875af19250505080156123f957506040513d601f19601f820116820180604052508101906123f69190614349565b60015b612478573d805f8114612427576040519150601f19603f3d011682016040523d82523d5f602084013e61242c565b606091505b505f815103612470576040517f08c379a000000000000000000000000000000000000000000000000000000000815260040161246790614190565b60405180910390fd5b805181602001fd5b63150b7a0260e01b7bffffffffffffffffffffffffffffffffffffffffffffffffffffffff1916817bffffffffffffffffffffffffffffffffffffffffffffffffffffffff1916149150506124cd565b600190505b949350505050565b606060405180602001604052805f815250905090565b60606124f682611876565b5f6124ff6124d5565b90505f81511161251d5760405180602001604052805f815250612548565b8061252784612858565b6040516020016125389291906141e8565b6040516020818303038152906040525b915050919050565b5f61255a82610e5c565b9050612567815f84612208565b6125715f836118c8565b600160035f8373ffffffffffffffffffffffffffffffffffffffff1673ffffffffffffffffffffffffffffffffffffffff1681526020019081526020015f205f8282546125be9190613754565b9250508190555060025f8381526020019081526020015f205f6101000a81549073ffffffffffffffffffffffffffffffffffffffff0219169055815f73ffffffffffffffffffffffffffffffffffffffff168273ffffffffffffffffffffffffffffffffffffffff167fddf252ad1be2c89b69c2b068fc378daa952ba7f163c4a11628f55a4df523b3ef60405160405180910390a461265e815f846122f4565b5050565b505050565b5f73ffffffffffffffffffffffffffffffffffffffff168273ffffffffffffffffffffffffffffffffffffffff16036126d5576040517f08c379a00000000000000000000000000000000000000000000000000000000081526004016126cc906143be565b60405180910390fd5b6126de816119fc565b1561271e576040517f08c379a000000000000000000000000000000000000000000000000000000000815260040161271590614426565b60405180910390fd5b6127295f8383612208565b600160035f8473ffffffffffffffffffffffffffffffffffffffff1673ffffffffffffffffffffffffffffffffffffffff1681526020019081526020015f205f8282546127769190613f3e565b925050819055508160025f8381526020019081526020015f205f6101000a81548173ffffffffffffffffffffffffffffffffffffffff021916908373ffffffffffffffffffffffffffffffffffffffff160217905550808273ffffffffffffffffffffffffffffffffffffffff165f73ffffffffffffffffffffffffffffffffffffffff167fddf252ad1be2c89b69c2b068fc378daa952ba7f163c4a11628f55a4df523b3ef60405160405180910390a46128325f83836122f4565b5050565b5f808273ffffffffffffffffffffffffffffffffffffffff163b119050919050565b60605f820361289e576040518060400160405280600181526020017f300000000000000000000000000000000000000000000000000000000000000081525090506129ac565b5f8290505f5b5f82146128cd5780806128b690614444565b915050600a826128c6919061448b565b91506128a4565b5f8167ffffffffffffffff8111156128e8576128e7612fe6565b5b6040519080825280601f01601f19166020018201604052801561291a5781602001600182028036833780820191505090505b5090505b5f85146129a5576001826129329190613754565b9150600a856129419190613ffa565b603061294d9190613f3e565b60f81b818381518110612963576129626136fa565b5b60200101907effffffffffffffffffffffffffffffffffffffffffffffffffffffffffffff191690815f1a905350600a8561299e919061448b565b945061291e565b8093505050505b919050565b5080546129bd906134de565b5f825580601f106129ce57506129eb565b601f0160209004905f5260205f20908101906129ea9190612a48565b5b50565b6040518060e001604052805f67ffffffffffffffff1681526020015f73ffffffffffffffffffffffffffffffffffffffff168152602001606081526020016060815260200160608152602001606081526020015f81525090565b5b80821115612a5f575f815f905550600101612a49565b5090565b5f604051905090565b5f80fd5b5f80fd5b5f7fffffffff0000000000000000000000000000000000000000000000000000000082169050919050565b612aa881612a74565b8114612ab2575f80fd5b50565b5f81359050612ac381612a9f565b92915050565b5f60208284031215612ade57612add612a6c565b5b5f612aeb84828501612ab5565b91505092915050565b5f8115159050919050565b612b0881612af4565b82525050565b5f602082019050612b215f830184612aff565b92915050565b5f81519050919050565b5f82825260208201905092915050565b8281835e5f83830152505050565b5f601f19601f8301169050919050565b5f612b6982612b27565b612b738185612b31565b9350612b83818560208601612b41565b612b8c81612b4f565b840191505092915050565b5f6020820190508181035f830152612baf8184612b5f565b905092915050565b5f819050919050565b612bc981612bb7565b8114612bd3575f80fd5b50565b5f81359050612be481612bc0565b92915050565b5f60208284031215612bff57612bfe612a6c565b5b5f612c0c84828501612bd6565b91505092915050565b5f73ffffffffffffffffffffffffffffffffffffffff82169050919050565b5f612c3e82612c15565b9050919050565b612c4e81612c34565b82525050565b5f602082019050612c675f830184612c45565b92915050565b612c7681612c34565b8114612c80575f80fd5b50565b5f81359050612c9181612c6d565b92915050565b5f8060408385031215612cad57612cac612a6c565b5b5f612cba85828601612c83565b9250506020612ccb85828601612bd6565b9150509250929050565b5f81519050919050565b5f82825260208201905092915050565b5f819050602082019050919050565b5f67ffffffffffffffff82169050919050565b612d1a81612cfe565b82525050565b612d2981612c34565b82525050565b5f82825260208201905092915050565b5f612d4982612b27565b612d538185612d2f565b9350612d63818560208601612b41565b612d6c81612b4f565b840191505092915050565b612d8081612bb7565b82525050565b5f60e083015f830151612d9b5f860182612d11565b506020830151612dae6020860182612d20565b5060408301518482036040860152612dc68282612d3f565b91505060608301518482036060860152612de08282612d3f565b91505060808301518482036080860152612dfa8282612d3f565b91505060a083015184820360a0860152612e148282612d3f565b91505060c0830151612e2960c0860182612d77565b508091505092915050565b5f612e3f8383612d86565b905092915050565b5f602082019050919050565b5f612e5d82612cd5565b612e678185612cdf565b935083602082028501612e7985612cef565b805f5b85811015612eb45784840389528151612e958582612e34565b9450612ea083612e47565b925060208a01995050600181019050612e7c565b50829750879550505050505092915050565b5f6020820190508181035f830152612ede8184612e53565b905092915050565b612eef81612cfe565b8114612ef9575f80fd5b50565b5f81359050612f0a81612ee6565b92915050565b5f60208284031215612f2557612f24612a6c565b5b5f612f3284828501612efc565b91505092915050565b5f805f60608486031215612f5257612f51612a6c565b5b5f612f5f86828701612c83565b9350506020612f7086828701612c83565b9250506040612f8186828701612bd6565b9150509250925092565b5f60208284031215612fa057612f9f612a6c565b5b5f612fad84828501612c83565b91505092915050565b612fbf81612bb7565b82525050565b5f602082019050612fd85f830184612fb6565b92915050565b5f80fd5b5f80fd5b7f4e487b71000000000000000000000000000000000000000000000000000000005f52604160045260245ffd5b61301c82612b4f565b810181811067ffffffffffffffff8211171561303b5761303a612fe6565b5b80604052505050565b5f61304d612a63565b90506130598282613013565b919050565b5f67ffffffffffffffff82111561307857613077612fe6565b5b61308182612b4f565b9050602081019050919050565b828183375f83830152505050565b5f6130ae6130a98461305e565b613044565b9050828152602081018484840111156130ca576130c9612fe2565b5b6130d584828561308e565b509392505050565b5f82601f8301126130f1576130f0612fde565b5b813561310184826020860161309c565b91505092915050565b5f805f805f8060c0878903121561312457613123612a6c565b5b5f61313189828a01612c83565b965050602087013567ffffffffffffffff81111561315257613151612a70565b5b61315e89828a016130dd565b955050604087013567ffffffffffffffff81111561317f5761317e612a70565b5b61318b89828a016130dd565b945050606087013567ffffffffffffffff8111156131ac576131ab612a70565b5b6131b889828a016130dd565b935050608087013567ffffffffffffffff8111156131d9576131d8612a70565b5b6131e589828a016130dd565b92505060a087013567ffffffffffffffff81111561320657613205612a70565b5b61321289828a016130dd565b9150509295509295509295565b61322881612af4565b8114613232575f80fd5b50565b5f813590506132438161321f565b92915050565b5f806040838503121561325f5761325e612a6c565b5b5f61326c85828601612c83565b925050602061327d85828601613235565b9150509250929050565b5f67ffffffffffffffff8211156132a1576132a0612fe6565b5b6132aa82612b4f565b9050602081019050919050565b5f6132c96132c484613287565b613044565b9050828152602081018484840111156132e5576132e4612fe2565b5b6132f084828561308e565b509392505050565b5f82601f83011261330c5761330b612fde565b5b813561331c8482602086016132b7565b91505092915050565b5f805f806080858703121561333d5761333c612a6c565b5b5f61334a87828801612c83565b945050602061335b87828801612c83565b935050604061336c87828801612bd6565b925050606085013567ffffffffffffffff81111561338d5761338c612a70565b5b613399878288016132f8565b91505092959194509250565b5f80604083850312156133bb576133ba612a6c565b5b5f6133c885828601612c83565b92505060206133d985828601612c83565b9150509250929050565b5f60e083015f8301516133f85f860182612d11565b50602083015161340b6020860182612d20565b50604083015184820360408601526134238282612d3f565b9150506060830151848203606086015261343d8282612d3f565b915050608083015184820360808601526134578282612d3f565b91505060a083015184820360a08601526134718282612d3f565b91505060c083015161348660c0860182612d77565b508091505092915050565b5f6020820190508181035f8301526134a981846133e3565b905092915050565b7f4e487b71000000000000000000000000000000000000000000000000000000005f52602260045260245ffd5b5f60028204905060018216806134f557607f821691505b602082108103613508576135076134b1565b5b50919050565b7f4552433732313a20617070726f76616c20746f2063757272656e74206f776e655f8201527f7200000000000000000000000000000000000000000000000000000000000000602082015250565b5f613568602183612b31565b91506135738261350e565b604082019050919050565b5f6020820190508181035f8301526135958161355c565b9050919050565b7f4552433732313a20617070726f76652063616c6c6572206973206e6f7420746f5f8201527f6b656e206f776e6572206e6f7220617070726f76656420666f7220616c6c0000602082015250565b5f6135f6603e83612b31565b91506136018261359c565b604082019050919050565b5f6020820190508181035f830152613623816135ea565b9050919050565b7f546f6b656e20646f6573206e6f742065786973740000000000000000000000005f82015250565b5f61365e601483612b31565b91506136698261362a565b602082019050919050565b5f6020820190508181035f83015261368b81613652565b9050919050565b7f436572746966696361746520616c7265616479207265766f6b656400000000005f82015250565b5f6136c6601b83612b31565b91506136d182613692565b602082019050919050565b5f6020820190508181035f8301526136f3816136ba565b9050919050565b7f4e487b71000000000000000000000000000000000000000000000000000000005f52603260045260245ffd5b7f4e487b71000000000000000000000000000000000000000000000000000000005f52601160045260245ffd5b5f61375e82612bb7565b915061376983612bb7565b925082820390508181111561378157613780613727565b5b92915050565b5f81549050613795816134de565b9050919050565b5f819050815f5260205f209050919050565b5f6020601f8301049050919050565b5f82821b905092915050565b5f600883026137f87fffffffffffffffffffffffffffffffffffffffffffffffffffffffffffffffff826137bd565b61380286836137bd565b95508019841693508086168417925050509392505050565b5f819050919050565b5f61383d61383861383384612bb7565b61381a565b612bb7565b9050919050565b5f819050919050565b61385683613823565b61386a61386282613844565b8484546137c9565b825550505050565b5f90565b61387e613872565b61388981848461384d565b505050565b5b818110156138ac576138a15f82613876565b60018101905061388f565b5050565b601f8211156138f1576138c28161379c565b6138cb846137ae565b810160208510156138da578190505b6138ee6138e6856137ae565b83018261388e565b50505b505050565b5f82821c905092915050565b5f6139115f19846008026138f6565b1980831691505092915050565b5f6139298383613902565b9150826002028217905092915050565b818103613947575050613a1c565b61395082613787565b67ffffffffffffffff81111561396957613968612fe6565b5b61397382546134de565b61397e8282856138b0565b5f601f8311600181146139ab575f8415613999578287015490505b6139a3858261391e565b865550613a15565b601f1984166139b98761379c565b96506139c48661379c565b5f5b828110156139eb578489015482556001820191506001850194506020810190506139c6565b86831015613a085784890154613a04601f891682613902565b8355505b6001600288020188555050505b5050505050505b565b7f4e487b71000000000000000000000000000000000000000000000000000000005f52603160045260245ffd5b7f4552433732313a2063616c6c6572206973206e6f7420746f6b656e206f776e655f8201527f72206e6f7220617070726f766564000000000000000000000000000000000000602082015250565b5f613aa5602e83612b31565b9150613ab082613a4b565b604082019050919050565b5f6020820190508181035f830152613ad281613a99565b9050919050565b7f4552433732313a20696e76616c696420746f6b656e20494400000000000000005f82015250565b5f613b0d601883612b31565b9150613b1882613ad9565b602082019050919050565b5f6020820190508181035f830152613b3a81613b01565b9050919050565b7f4552433732313a2061646472657373207a65726f206973206e6f7420612076615f8201527f6c6964206f776e65720000000000000000000000000000000000000000000000602082015250565b5f613b9b602983612b31565b9150613ba682613b41565b604082019050919050565b5f6020820190508181035f830152613bc881613b8f565b9050919050565b613bd882612b27565b67ffffffffffffffff811115613bf157613bf0612fe6565b5b613bfb82546134de565b613c068282856138b0565b5f60209050601f831160018114613c37575f8415613c25578287015190505b613c2f858261391e565b865550613c96565b601f198416613c458661379c565b5f5b82811015613c6c57848901518255600182019150602085019450602081019050613c47565b86831015613c895784890151613c85601f891682613902565b8355505b6001600288020188555050505b505050505050565b7f4f776e61626c653a206e6577206f776e657220697320746865207a65726f20615f8201527f6464726573730000000000000000000000000000000000000000000000000000602082015250565b5f613cf8602683612b31565b9150613d0382613c9e565b604082019050919050565b5f6020820190508181035f830152613d2581613cec565b9050919050565b7f4365727469666963617465206e6f7420666f756e6420666f72207468652070725f8201527f6f766964656420746f6b656e4964000000000000000000000000000000000000602082015250565b5f613d86602e83612b31565b9150613d9182613d2c565b604082019050919050565b5f6020820190508181035f830152613db381613d7a565b9050919050565b7f4f776e61626c653a2063616c6c6572206973206e6f7420746865206f776e65725f82015250565b5f613dee602083612b31565b9150613df982613dba565b602082019050919050565b5f6020820190508181035f830152613e1b81613de2565b9050919050565b7f4552433732313a207472616e736665722066726f6d20696e636f7272656374205f8201527f6f776e6572000000000000000000000000000000000000000000000000000000602082015250565b5f613e7c602583612b31565b9150613e8782613e22565b604082019050919050565b5f6020820190508181035f830152613ea981613e70565b9050919050565b7f4552433732313a207472616e7366657220746f20746865207a65726f206164645f8201527f7265737300000000000000000000000000000000000000000000000000000000602082015250565b5f613f0a602483612b31565b9150613f1582613eb0565b604082019050919050565b5f6020820190508181035f830152613f3781613efe565b9050919050565b5f613f4882612bb7565b9150613f5383612bb7565b9250828201905080821115613f6b57613f6a613727565b5b92915050565b5f819050919050565b613f8b613f8682612bb7565b613f71565b82525050565b5f613f9c8286613f7a565b602082019150613fac8285613f7a565b602082019150613fbc8284613f7a565b602082019150819050949350505050565b7f4e487b71000000000000000000000000000000000000000000000000000000005f52601260045260245ffd5b5f61400482612bb7565b915061400f83612bb7565b92508261401f5761401e613fcd565b5b828206905092915050565b7f45524337323155524953746f726167653a2055524920736574206f66206e6f6e5f8201527f6578697374656e7420746f6b656e000000000000000000000000000000000000602082015250565b5f614084602e83612b31565b915061408f8261402a565b604082019050919050565b5f6020820190508181035f8301526140b181614078565b9050919050565b7f4552433732313a20617070726f766520746f2063616c6c6572000000000000005f82015250565b5f6140ec601983612b31565b91506140f7826140b8565b602082019050919050565b5f6020820190508181035f830152614119816140e0565b9050919050565b7f4552433732313a207472616e7366657220746f206e6f6e2045524337323152655f8201527f63656976657220696d706c656d656e7465720000000000000000000000000000602082015250565b5f61417a603283612b31565b915061418582614120565b604082019050919050565b5f6020820190508181035f8301526141a78161416e565b9050919050565b5f81905092915050565b5f6141c282612b27565b6141cc81856141ae565b93506141dc818560208601612b41565b80840191505092915050565b5f6141f382856141b8565b91506141ff82846141b8565b91508190509392505050565b7f536f756c626f756e6420746f6b656e2063616e6e6f74206265207472616e73665f8201527f6572726564000000000000000000000000000000000000000000000000000000602082015250565b5f614265602583612b31565b91506142708261420b565b604082019050919050565b5f6020820190508181035f83015261429281614259565b9050919050565b5f81519050919050565b5f82825260208201905092915050565b5f6142bd82614299565b6142c781856142a3565b93506142d7818560208601612b41565b6142e081612b4f565b840191505092915050565b5f6080820190506142fe5f830187612c45565b61430b6020830186612c45565b6143186040830185612fb6565b818103606083015261432a81846142b3565b905095945050505050565b5f8151905061434381612a9f565b92915050565b5f6020828403121561435e5761435d612a6c565b5b5f61436b84828501614335565b91505092915050565b7f4552433732313a206d696e7420746f20746865207a65726f20616464726573735f82015250565b5f6143a8602083612b31565b91506143b382614374565b602082019050919050565b5f6020820190508181035f8301526143d58161439c565b9050919050565b7f4552433732313a20746f6b656e20616c7265616479206d696e746564000000005f82015250565b5f614410601c83612b31565b915061441b826143dc565b602082019050919050565b5f6020820190508181035f83015261443d81614404565b9050919050565b5f61444e82612bb7565b91507fffffffffffffffffffffffffffffffffffffffffffffffffffffffffffffffff82036144805761447f613727565b5b600182019050919050565b5f61449582612bb7565b91506144a083612bb7565b9250826144b0576144af613fcd565b5b82820490509291505056fe5468697320636572746966696361746520686173206265656e207265766f6b6564a26469706673582212201b3bdec9525605a52694dbd169a137889f56917b80526b9db9b43b0a6a71134764736f6c634300081a0033",
			"opcodes": "PUSH1 0x80 PUSH1 0x40 MSTORE CALLVALUE DUP1 ISZERO PUSH2 0xF JUMPI PUSH0 DUP1 REVERT JUMPDEST POP PUSH1 0x40 MLOAD DUP1 PUSH1 0x40 ADD PUSH1 0x40 MSTORE DUP1 PUSH1 0x15 DUP2 MSTORE PUSH1 0x20 ADD PUSH32 0x426C6F6752657669657743657274696669636174650000000000000000000000 DUP2 MSTORE POP PUSH1 0x40 MLOAD DUP1 PUSH1 0x40 ADD PUSH1 0x40 MSTORE DUP1 PUSH1 0x3 DUP2 MSTORE PUSH1 0x20 ADD PUSH32 0x4252430000000000000000000000000000000000000000000000000000000000 DUP2 MSTORE POP DUP2 PUSH0 SWAP1 DUP2 PUSH2 0x8A SWAP2 SWAP1 PUSH2 0x3C2 JUMP JUMPDEST POP DUP1 PUSH1 0x1 SWAP1 DUP2 PUSH2 0x9A SWAP2 SWAP1 PUSH2 0x3C2 JUMP JUMPDEST POP POP POP PUSH2 0xB9 PUSH2 0xAE PUSH2 0xBE PUSH1 0x20 SHL PUSH1 0x20 SHR JUMP JUMPDEST PUSH2 0xC5 PUSH1 0x20 SHL PUSH1 0x20 SHR JUMP JUMPDEST PUSH2 0x491 JUMP JUMPDEST PUSH0 CALLER SWAP1 POP SWAP1 JUMP JUMPDEST PUSH0 PUSH1 0x7 PUSH0 SWAP1 SLOAD SWAP1 PUSH2 0x100 EXP SWAP1 DIV PUSH20 0xFFFFFFFFFFFFFFFFFFFFFFFFFFFFFFFFFFFFFFFF AND SWAP1 POP DUP2 PUSH1 0x7 PUSH0 PUSH2 0x100 EXP DUP2 SLOAD DUP2 PUSH20 0xFFFFFFFFFFFFFFFFFFFFFFFFFFFFFFFFFFFFFFFF MUL NOT AND SWAP1 DUP4 PUSH20 0xFFFFFFFFFFFFFFFFFFFFFFFFFFFFFFFFFFFFFFFF AND MUL OR SWAP1 SSTORE POP DUP2 PUSH20 0xFFFFFFFFFFFFFFFFFFFFFFFFFFFFFFFFFFFFFFFF AND DUP2 PUSH20 0xFFFFFFFFFFFFFFFFFFFFFFFFFFFFFFFFFFFFFFFF AND PUSH32 0x8BE0079C531659141344CD1FD0A4F28419497F9722A3DAAFE3B4186F6B6457E0 PUSH1 0x40 MLOAD PUSH1 0x40 MLOAD DUP1 SWAP2 SUB SWAP1 LOG3 POP POP JUMP JUMPDEST PUSH0 DUP2 MLOAD SWAP1 POP SWAP2 SWAP1 POP JUMP JUMPDEST PUSH32 0x4E487B7100000000000000000000000000000000000000000000000000000000 PUSH0 MSTORE PUSH1 0x41 PUSH1 0x4 MSTORE PUSH1 0x24 PUSH0 REVERT JUMPDEST PUSH32 0x4E487B7100000000000000000000000000000000000000000000000000000000 PUSH0 MSTORE PUSH1 0x22 PUSH1 0x4 MSTORE PUSH1 0x24 PUSH0 REVERT JUMPDEST PUSH0 PUSH1 0x2 DUP3 DIV SWAP1 POP PUSH1 0x1 DUP3 AND DUP1 PUSH2 0x203 JUMPI PUSH1 0x7F DUP3 AND SWAP2 POP JUMPDEST PUSH1 0x20 DUP3 LT DUP2 SUB PUSH2 0x216 JUMPI PUSH2 0x215 PUSH2 0x1BF JUMP JUMPDEST JUMPDEST POP SWAP2 SWAP1 POP JUMP JUMPDEST PUSH0 DUP2 SWAP1 POP DUP2 PUSH0 MSTORE PUSH1 0x20 PUSH0 KECCAK256 SWAP1 POP SWAP2 SWAP1 POP JUMP JUMPDEST PUSH0 PUSH1 0x20 PUSH1 0x1F DUP4 ADD DIV SWAP1 POP SWAP2 SWAP1 POP JUMP JUMPDEST PUSH0 DUP3 DUP3 SHL SWAP1 POP SWAP3 SWAP2 POP POP JUMP JUMPDEST PUSH0 PUSH1 0x8 DUP4 MUL PUSH2 0x278 PUSH32 0xFFFFFFFFFFFFFFFFFFFFFFFFFFFFFFFFFFFFFFFFFFFFFFFFFFFFFFFFFFFFFFFF DUP3 PUSH2 0x23D JUMP JUMPDEST PUSH2 0x282 DUP7 DUP4 PUSH2 0x23D JUMP JUMPDEST SWAP6 POP DUP1 NOT DUP5 AND SWAP4 POP DUP1 DUP7 AND DUP5 OR SWAP3 POP POP POP SWAP4 SWAP3 POP POP POP JUMP JUMPDEST PUSH0 DUP2 SWAP1 POP SWAP2 SWAP1 POP JUMP JUMPDEST PUSH0 DUP2 SWAP1 POP SWAP2 SWAP1 POP JUMP JUMPDEST PUSH0 PUSH2 0x2C6 PUSH2 0x2C1 PUSH2 0x2BC DUP5 PUSH2 0x29A JUMP JUMPDEST PUSH2 0x2A3 JUMP JUMPDEST PUSH2 0x29A JUMP JUMPDEST SWAP1 POP SWAP2 SWAP1 POP JUMP JUMPDEST PUSH0 DUP2 SWAP1 POP SWAP2 SWAP1 POP JUMP JUMPDEST PUSH2 0x2DF DUP4 PUSH2 0x2AC JUMP JUMPDEST PUSH2 0x2F3 PUSH2 0x2EB DUP3 PUSH2 0x2CD JUMP JUMPDEST DUP5 DUP5 SLOAD PUSH2 0x249 JUMP JUMPDEST DUP3 SSTORE POP POP POP POP JUMP JUMPDEST PUSH0 SWAP1 JUMP JUMPDEST PUSH2 0x307 PUSH2 0x2FB JUMP JUMPDEST PUSH2 0x312 DUP2 DUP5 DUP5 PUSH2 0x2D6 JUMP JUMPDEST POP POP POP JUMP JUMPDEST JUMPDEST DUP2 DUP2 LT ISZERO PUSH2 0x335 JUMPI PUSH2 0x32A PUSH0 DUP3 PUSH2 0x2FF JUMP JUMPDEST PUSH1 0x1 DUP2 ADD SWAP1 POP PUSH2 0x318 JUMP JUMPDEST POP POP JUMP JUMPDEST PUSH1 0x1F DUP3 GT ISZERO PUSH2 0x37A JUMPI PUSH2 0x34B DUP2 PUSH2 0x21C JUMP JUMPDEST PUSH2 0x354 DUP5 PUSH2 0x22E JUMP JUMPDEST DUP2 ADD PUSH1 0x20 DUP6 LT ISZERO PUSH2 0x363 JUMPI DUP2 SWAP1 POP JUMPDEST PUSH2 0x377 PUSH2 0x36F DUP6 PUSH2 0x22E JUMP JUMPDEST DUP4 ADD DUP3 PUSH2 0x317 JUMP JUMPDEST POP POP JUMPDEST POP POP POP JUMP JUMPDEST PUSH0 DUP3 DUP3 SHR SWAP1 POP SWAP3 SWAP2 POP POP JUMP JUMPDEST PUSH0 PUSH2 0x39A PUSH0 NOT DUP5 PUSH1 0x8 MUL PUSH2 0x37F JUMP JUMPDEST NOT DUP1 DUP4 AND SWAP2 POP POP SWAP3 SWAP2 POP POP JUMP JUMPDEST PUSH0 PUSH2 0x3B2 DUP4 DUP4 PUSH2 0x38B JUMP JUMPDEST SWAP2 POP DUP3 PUSH1 0x2 MUL DUP3 OR SWAP1 POP SWAP3 SWAP2 POP POP JUMP JUMPDEST PUSH2 0x3CB DUP3 PUSH2 0x188 JUMP JUMPDEST PUSH8 0xFFFFFFFFFFFFFFFF DUP2 GT ISZERO PUSH2 0x3E4 JUMPI PUSH2 0x3E3 PUSH2 0x192 JUMP JUMPDEST JUMPDEST PUSH2 0x3EE DUP3 SLOAD PUSH2 0x1EC JUMP JUMPDEST PUSH2 0x3F9 DUP3 DUP3 DUP6 PUSH2 0x339 JUMP JUMPDEST PUSH0 PUSH1 0x20 SWAP1 POP PUSH1 0x1F DUP4 GT PUSH1 0x1 DUP2 EQ PUSH2 0x42A JUMPI PUSH0 DUP5 ISZERO PUSH2 0x418 JUMPI DUP3 DUP8 ADD MLOAD SWAP1 POP JUMPDEST PUSH2 0x422 DUP6 DUP3 PUSH2 0x3A7 JUMP JUMPDEST DUP7 SSTORE POP PUSH2 0x489 JUMP JUMPDEST PUSH1 0x1F NOT DUP5 AND PUSH2 0x438 DUP7 PUSH2 0x21C JUMP JUMPDEST PUSH0 JUMPDEST DUP3 DUP2 LT ISZERO PUSH2 0x45F JUMPI DUP5 DUP10 ADD MLOAD DUP3 SSTORE PUSH1 0x1 DUP3 ADD SWAP2 POP PUSH1 0x20 DUP6 ADD SWAP5 POP PUSH1 0x20 DUP2 ADD SWAP1 POP PUSH2 0x43A JUMP JUMPDEST DUP7 DUP4 LT ISZERO PUSH2 0x47C JUMPI DUP5 DUP10 ADD MLOAD PUSH2 0x478 PUSH1 0x1F DUP10 AND DUP3 PUSH2 0x38B JUMP JUMPDEST DUP4 SSTORE POP JUMPDEST PUSH1 0x1 PUSH1 0x2 DUP9 MUL ADD DUP9 SSTORE POP POP POP JUMPDEST POP POP POP POP POP POP JUMP JUMPDEST PUSH2 0x4512 DUP1 PUSH2 0x49E PUSH0 CODECOPY PUSH0 RETURN INVALID PUSH1 0x80 PUSH1 0x40 MSTORE CALLVALUE DUP1 ISZERO PUSH2 0xF JUMPI PUSH0 DUP1 REVERT JUMPDEST POP PUSH1 0x4 CALLDATASIZE LT PUSH2 0x140 JUMPI PUSH0 CALLDATALOAD PUSH1 0xE0 SHR DUP1 PUSH4 0x874CE680 GT PUSH2 0xB6 JUMPI DUP1 PUSH4 0xB88D4FDE GT PUSH2 0x7A JUMPI DUP1 PUSH4 0xB88D4FDE EQ PUSH2 0x372 JUMPI DUP1 PUSH4 0xC87B56DD EQ PUSH2 0x38E JUMPI DUP1 PUSH4 0xE2367890 EQ PUSH2 0x3BE JUMPI DUP1 PUSH4 0xE985E9C5 EQ PUSH2 0x3DC JUMPI DUP1 PUSH4 0xF2FDE38B EQ PUSH2 0x40C JUMPI DUP1 PUSH4 0xF6AE476B EQ PUSH2 0x428 JUMPI PUSH2 0x140 JUMP JUMPDEST DUP1 PUSH4 0x874CE680 EQ PUSH2 0x2BA JUMPI DUP1 PUSH4 0x8D13D72D EQ PUSH2 0x2EA JUMPI DUP1 PUSH4 0x8DA5CB5B EQ PUSH2 0x31A JUMPI DUP1 PUSH4 0x95D89B41 EQ PUSH2 0x338 JUMPI DUP1 PUSH4 0xA22CB465 EQ PUSH2 0x356 JUMPI PUSH2 0x140 JUMP JUMPDEST DUP1 PUSH4 0x21C61A00 GT PUSH2 0x108 JUMPI DUP1 PUSH4 0x21C61A00 EQ PUSH2 0x1FC JUMPI DUP1 PUSH4 0x23B872DD EQ PUSH2 0x218 JUMPI DUP1 PUSH4 0x42842E0E EQ PUSH2 0x234 JUMPI DUP1 PUSH4 0x6352211E EQ PUSH2 0x250 JUMPI DUP1 PUSH4 0x70A08231 EQ PUSH2 0x280 JUMPI DUP1 PUSH4 0x715018A6 EQ PUSH2 0x2B0 JUMPI PUSH2 0x140 JUMP JUMPDEST DUP1 PUSH4 0x1FFC9A7 EQ PUSH2 0x144 JUMPI DUP1 PUSH4 0x6FDDE03 EQ PUSH2 0x174 JUMPI DUP1 PUSH4 0x81812FC EQ PUSH2 0x192 JUMPI DUP1 PUSH4 0x95EA7B3 EQ PUSH2 0x1C2 JUMPI DUP1 PUSH4 0x13FCFE80 EQ PUSH2 0x1DE JUMPI JUMPDEST PUSH0 DUP1 REVERT JUMPDEST PUSH2 0x15E PUSH1 0x4 DUP1 CALLDATASIZE SUB DUP2 ADD SWAP1 PUSH2 0x159 SWAP2 SWAP1 PUSH2 0x2AC9 JUMP JUMPDEST PUSH2 0x458 JUMP JUMPDEST PUSH1 0x40 MLOAD PUSH2 0x16B SWAP2 SWAP1 PUSH2 0x2B0E JUMP JUMPDEST PUSH1 0x40 MLOAD DUP1 SWAP2 SUB SWAP1 RETURN JUMPDEST PUSH2 0x17C PUSH2 0x539 JUMP JUMPDEST PUSH1 0x40 MLOAD PUSH2 0x189 SWAP2 SWAP1 PUSH2 0x2B97 JUMP JUMPDEST PUSH1 0x40 MLOAD DUP1 SWAP2 SUB SWAP1 RETURN JUMPDEST PUSH2 0x1AC PUSH1 0x4 DUP1 CALLDATASIZE SUB DUP2 ADD SWAP1 PUSH2 0x1A7 SWAP2 SWAP1 PUSH2 0x2BEA JUMP JUMPDEST PUSH2 0x5C8 JUMP JUMPDEST PUSH1 0x40 MLOAD PUSH2 0x1B9 SWAP2 SWAP1 PUSH2 0x2C54 JUMP JUMPDEST PUSH1 0x40 MLOAD DUP1 SWAP2 SUB SWAP1 RETURN JUMPDEST PUSH2 0x1DC PUSH1 0x4 DUP1 CALLDATASIZE SUB DUP2 ADD SWAP1 PUSH2 0x1D7 SWAP2 SWAP1 PUSH2 0x2C97 JUMP JUMPDEST PUSH2 0x60A JUMP JUMPDEST STOP JUMPDEST PUSH2 0x1E6 PUSH2 0x720 JUMP JUMPDEST PUSH1 0x40 MLOAD PUSH2 0x1F3 SWAP2 SWAP1 PUSH2 0x2EC6 JUMP JUMPDEST PUSH1 0x40 MLOAD DUP1 SWAP2 SUB SWAP1 RETURN JUMPDEST PUSH2 0x216 PUSH1 0x4 DUP1 CALLDATASIZE SUB DUP2 ADD SWAP1 PUSH2 0x211 SWAP2 SWAP1 PUSH2 0x2F10 JUMP JUMPDEST PUSH2 0xA4B JUMP JUMPDEST STOP JUMPDEST PUSH2 0x232 PUSH1 0x4 DUP1 CALLDATASIZE SUB DUP2 ADD SWAP1 PUSH2 0x22D SWAP2 SWAP1 PUSH2 0x2F3B JUMP JUMPDEST PUSH2 0xDDD JUMP JUMPDEST STOP JUMPDEST PUSH2 0x24E PUSH1 0x4 DUP1 CALLDATASIZE SUB DUP2 ADD SWAP1 PUSH2 0x249 SWAP2 SWAP1 PUSH2 0x2F3B JUMP JUMPDEST PUSH2 0xE3D JUMP JUMPDEST STOP JUMPDEST PUSH2 0x26A PUSH1 0x4 DUP1 CALLDATASIZE SUB DUP2 ADD SWAP1 PUSH2 0x265 SWAP2 SWAP1 PUSH2 0x2BEA JUMP JUMPDEST PUSH2 0xE5C JUMP JUMPDEST PUSH1 0x40 MLOAD PUSH2 0x277 SWAP2 SWAP1 PUSH2 0x2C54 JUMP JUMPDEST PUSH1 0x40 MLOAD DUP1 SWAP2 SUB SWAP1 RETURN JUMPDEST PUSH2 0x29A PUSH1 0x4 DUP1 CALLDATASIZE SUB DUP2 ADD SWAP1 PUSH2 0x295 SWAP2 SWAP1 PUSH2 0x2F8B JUMP JUMPDEST PUSH2 0xF08 JUMP JUMPDEST PUSH1 0x40 MLOAD PUSH2 0x2A7 SWAP2 SWAP1 PUSH2 0x2FC5 JUMP JUMPDEST PUSH1 0x40 MLOAD DUP1 SWAP2 SUB SWAP1 RETURN JUMPDEST PUSH2 0x2B8 PUSH2 0xFBC JUMP JUMPDEST STOP JUMPDEST PUSH2 0x2D4 PUSH1 0x4 DUP1 CALLDATASIZE SUB DUP2 ADD SWAP1 PUSH2 0x2CF SWAP2 SWAP1 PUSH2 0x2F10 JUMP JUMPDEST PUSH2 0xFCF JUMP JUMPDEST PUSH1 0x40 MLOAD PUSH2 0x2E1 SWAP2 SWAP1 PUSH2 0x2B0E JUMP JUMPDEST PUSH1 0x40 MLOAD DUP1 SWAP2 SUB SWAP1 RETURN JUMPDEST PUSH2 0x304 PUSH1 0x4 DUP1 CALLDATASIZE SUB DUP2 ADD SWAP1 PUSH2 0x2FF SWAP2 SWAP1 PUSH2 0x310A JUMP JUMPDEST PUSH2 0x1009 JUMP JUMPDEST PUSH1 0x40 MLOAD PUSH2 0x311 SWAP2 SWAP1 PUSH2 0x2FC5 JUMP JUMPDEST PUSH1 0x40 MLOAD DUP1 SWAP2 SUB SWAP1 RETURN JUMPDEST PUSH2 0x322 PUSH2 0x11A6 JUMP JUMPDEST PUSH1 0x40 MLOAD PUSH2 0x32F SWAP2 SWAP1 PUSH2 0x2C54 JUMP JUMPDEST PUSH1 0x40 MLOAD DUP1 SWAP2 SUB SWAP1 RETURN JUMPDEST PUSH2 0x340 PUSH2 0x11CE JUMP JUMPDEST PUSH1 0x40 MLOAD PUSH2 0x34D SWAP2 SWAP1 PUSH2 0x2B97 JUMP JUMPDEST PUSH1 0x40 MLOAD DUP1 SWAP2 SUB SWAP1 RETURN JUMPDEST PUSH2 0x370 PUSH1 0x4 DUP1 CALLDATASIZE SUB DUP2 ADD SWAP1 PUSH2 0x36B SWAP2 SWAP1 PUSH2 0x3249 JUMP JUMPDEST PUSH2 0x125E JUMP JUMPDEST STOP JUMPDEST PUSH2 0x38C PUSH1 0x4 DUP1 CALLDATASIZE SUB DUP2 ADD SWAP1 PUSH2 0x387 SWAP2 SWAP1 PUSH2 0x3325 JUMP JUMPDEST PUSH2 0x1274 JUMP JUMPDEST STOP JUMPDEST PUSH2 0x3A8 PUSH1 0x4 DUP1 CALLDATASIZE SUB DUP2 ADD SWAP1 PUSH2 0x3A3 SWAP2 SWAP1 PUSH2 0x2BEA JUMP JUMPDEST PUSH2 0x12D6 JUMP JUMPDEST PUSH1 0x40 MLOAD PUSH2 0x3B5 SWAP2 SWAP1 PUSH2 0x2B97 JUMP JUMPDEST PUSH1 0x40 MLOAD DUP1 SWAP2 SUB SWAP1 RETURN JUMPDEST PUSH2 0x3C6 PUSH2 0x1340 JUMP JUMPDEST PUSH1 0x40 MLOAD PUSH2 0x3D3 SWAP2 SWAP1 PUSH2 0x2FC5 JUMP JUMPDEST PUSH1 0x40 MLOAD DUP1 SWAP2 SUB SWAP1 RETURN JUMPDEST PUSH2 0x3F6 PUSH1 0x4 DUP1 CALLDATASIZE SUB DUP2 ADD SWAP1 PUSH2 0x3F1 SWAP2 SWAP1 PUSH2 0x33A5 JUMP JUMPDEST PUSH2 0x1346 JUMP JUMPDEST PUSH1 0x40 MLOAD PUSH2 0x403 SWAP2 SWAP1 PUSH2 0x2B0E JUMP JUMPDEST PUSH1 0x40 MLOAD DUP1 SWAP2 SUB SWAP1 RETURN JUMPDEST PUSH2 0x426 PUSH1 0x4 DUP1 CALLDATASIZE SUB DUP2 ADD SWAP1 PUSH2 0x421 SWAP2 SWAP1 PUSH2 0x2F8B JUMP JUMPDEST PUSH2 0x13D4 JUMP JUMPDEST STOP JUMPDEST PUSH2 0x442 PUSH1 0x4 DUP1 CALLDATASIZE SUB DUP2 ADD SWAP1 PUSH2 0x43D SWAP2 SWAP1 PUSH2 0x2F10 JUMP JUMPDEST PUSH2 0x1456 JUMP JUMPDEST PUSH1 0x40 MLOAD PUSH2 0x44F SWAP2 SWAP1 PUSH2 0x3491 JUMP JUMPDEST PUSH1 0x40 MLOAD DUP1 SWAP2 SUB SWAP1 RETURN JUMPDEST PUSH0 PUSH32 0x80AC58CD00000000000000000000000000000000000000000000000000000000 PUSH28 0xFFFFFFFFFFFFFFFFFFFFFFFFFFFFFFFFFFFFFFFFFFFFFFFFFFFFFFFF NOT AND DUP3 PUSH28 0xFFFFFFFFFFFFFFFFFFFFFFFFFFFFFFFFFFFFFFFFFFFFFFFFFFFFFFFF NOT AND EQ DUP1 PUSH2 0x522 JUMPI POP PUSH32 0x5B5E139F00000000000000000000000000000000000000000000000000000000 PUSH28 0xFFFFFFFFFFFFFFFFFFFFFFFFFFFFFFFFFFFFFFFFFFFFFFFFFFFFFFFF NOT AND DUP3 PUSH28 0xFFFFFFFFFFFFFFFFFFFFFFFFFFFFFFFFFFFFFFFFFFFFFFFFFFFFFFFF NOT AND EQ JUMPDEST DUP1 PUSH2 0x532 JUMPI POP PUSH2 0x531 DUP3 PUSH2 0x180D JUMP JUMPDEST JUMPDEST SWAP1 POP SWAP2 SWAP1 POP JUMP JUMPDEST PUSH1 0x60 PUSH0 DUP1 SLOAD PUSH2 0x547 SWAP1 PUSH2 0x34DE JUMP JUMPDEST DUP1 PUSH1 0x1F ADD PUSH1 0x20 DUP1 SWAP2 DIV MUL PUSH1 0x20 ADD PUSH1 0x40 MLOAD SWAP1 DUP2 ADD PUSH1 0x40 MSTORE DUP1 SWAP3 SWAP2 SWAP1 DUP2 DUP2 MSTORE PUSH1 0x20 ADD DUP3 DUP1 SLOAD PUSH2 0x573 SWAP1 PUSH2 0x34DE JUMP JUMPDEST DUP1 ISZERO PUSH2 0x5BE JUMPI DUP1 PUSH1 0x1F LT PUSH2 0x595 JUMPI PUSH2 0x100 DUP1 DUP4 SLOAD DIV MUL DUP4 MSTORE SWAP2 PUSH1 0x20 ADD SWAP2 PUSH2 0x5BE JUMP JUMPDEST DUP3 ADD SWAP2 SWAP1 PUSH0 MSTORE PUSH1 0x20 PUSH0 KECCAK256 SWAP1 JUMPDEST DUP2 SLOAD DUP2 MSTORE SWAP1 PUSH1 0x1 ADD SWAP1 PUSH1 0x20 ADD DUP1 DUP4 GT PUSH2 0x5A1 JUMPI DUP3 SWAP1 SUB PUSH1 0x1F AND DUP3 ADD SWAP2 JUMPDEST POP POP POP POP POP SWAP1 POP SWAP1 JUMP JUMPDEST PUSH0 PUSH2 0x5D2 DUP3 PUSH2 0x1876 JUMP JUMPDEST PUSH1 0x4 PUSH0 DUP4 DUP2 MSTORE PUSH1 0x20 ADD SWAP1 DUP2 MSTORE PUSH1 0x20 ADD PUSH0 KECCAK256 PUSH0 SWAP1 SLOAD SWAP1 PUSH2 0x100 EXP SWAP1 DIV PUSH20 0xFFFFFFFFFFFFFFFFFFFFFFFFFFFFFFFFFFFFFFFF AND SWAP1 POP SWAP2 SWAP1 POP JUMP JUMPDEST PUSH0 PUSH2 0x614 DUP3 PUSH2 0xE5C JUMP JUMPDEST SWAP1 POP DUP1 PUSH20 0xFFFFFFFFFFFFFFFFFFFFFFFFFFFFFFFFFFFFFFFF AND DUP4 PUSH20 0xFFFFFFFFFFFFFFFFFFFFFFFFFFFFFFFFFFFFFFFF AND SUB PUSH2 0x684 JUMPI PUSH1 0x40 MLOAD PUSH32 0x8C379A000000000000000000000000000000000000000000000000000000000 DUP2 MSTORE PUSH1 0x4 ADD PUSH2 0x67B SWAP1 PUSH2 0x357E JUMP JUMPDEST PUSH1 0x40 MLOAD DUP1 SWAP2 SUB SWAP1 REVERT JUMPDEST DUP1 PUSH20 0xFFFFFFFFFFFFFFFFFFFFFFFFFFFFFFFFFFFFFFFF AND PUSH2 0x6A3 PUSH2 0x18C1 JUMP JUMPDEST PUSH20 0xFFFFFFFFFFFFFFFFFFFFFFFFFFFFFFFFFFFFFFFF AND EQ DUP1 PUSH2 0x6D2 JUMPI POP PUSH2 0x6D1 DUP2 PUSH2 0x6CC PUSH2 0x18C1 JUMP JUMPDEST PUSH2 0x1346 JUMP JUMPDEST JUMPDEST PUSH2 0x711 JUMPI PUSH1 0x40 MLOAD PUSH32 0x8C379A000000000000000000000000000000000000000000000000000000000 DUP2 MSTORE PUSH1 0x4 ADD PUSH2 0x708 SWAP1 PUSH2 0x360C JUMP JUMPDEST PUSH1 0x40 MLOAD DUP1 SWAP2 SUB SWAP1 REVERT JUMPDEST PUSH2 0x71B DUP4 DUP4 PUSH2 0x18C8 JUMP JUMPDEST POP POP POP JUMP JUMPDEST PUSH1 0x60 PUSH1 0x8 DUP1 SLOAD DUP1 PUSH1 0x20 MUL PUSH1 0x20 ADD PUSH1 0x40 MLOAD SWAP1 DUP2 ADD PUSH1 0x40 MSTORE DUP1 SWAP3 SWAP2 SWAP1 DUP2 DUP2 MSTORE PUSH1 0x20 ADD PUSH0 SWAP1 JUMPDEST DUP3 DUP3 LT ISZERO PUSH2 0xA42 JUMPI DUP4 DUP3 SWAP1 PUSH0 MSTORE PUSH1 0x20 PUSH0 KECCAK256 SWAP1 PUSH1 0x6 MUL ADD PUSH1 0x40 MLOAD DUP1 PUSH1 0xE0 ADD PUSH1 0x40 MSTORE SWAP1 DUP2 PUSH0 DUP3 ADD PUSH0 SWAP1 SLOAD SWAP1 PUSH2 0x100 EXP SWAP1 DIV PUSH8 0xFFFFFFFFFFFFFFFF AND PUSH8 0xFFFFFFFFFFFFFFFF AND PUSH8 0xFFFFFFFFFFFFFFFF AND DUP2 MSTORE PUSH1 0x20 ADD PUSH0 DUP3 ADD PUSH1 0x8 SWAP1 SLOAD SWAP1 PUSH2 0x100 EXP SWAP1 DIV PUSH20 0xFFFFFFFFFFFFFFFFFFFFFFFFFFFFFFFFFFFFFFFF AND PUSH20 0xFFFFFFFFFFFFFFFFFFFFFFFFFFFFFFFFFFFFFFFF AND PUSH20 0xFFFFFFFFFFFFFFFFFFFFFFFFFFFFFFFFFFFFFFFF AND DUP2 MSTORE PUSH1 0x20 ADD PUSH1 0x1 DUP3 ADD DUP1 SLOAD PUSH2 0x7F9 SWAP1 PUSH2 0x34DE JUMP JUMPDEST DUP1 PUSH1 0x1F ADD PUSH1 0x20 DUP1 SWAP2 DIV MUL PUSH1 0x20 ADD PUSH1 0x40 MLOAD SWAP1 DUP2 ADD PUSH1 0x40 MSTORE DUP1 SWAP3 SWAP2 SWAP1 DUP2 DUP2 MSTORE PUSH1 0x20 ADD DUP3 DUP1 SLOAD PUSH2 0x825 SWAP1 PUSH2 0x34DE JUMP JUMPDEST DUP1 ISZERO PUSH2 0x870 JUMPI DUP1 PUSH1 0x1F LT PUSH2 0x847 JUMPI PUSH2 0x100 DUP1 DUP4 SLOAD DIV MUL DUP4 MSTORE SWAP2 PUSH1 0x20 ADD SWAP2 PUSH2 0x870 JUMP JUMPDEST DUP3 ADD SWAP2 SWAP1 PUSH0 MSTORE PUSH1 0x20 PUSH0 KECCAK256 SWAP1 JUMPDEST DUP2 SLOAD DUP2 MSTORE SWAP1 PUSH1 0x1 ADD SWAP1 PUSH1 0x20 ADD DUP1 DUP4 GT PUSH2 0x853 JUMPI DUP3 SWAP1 SUB PUSH1 0x1F AND DUP3 ADD SWAP2 JUMPDEST POP POP POP POP POP DUP2 MSTORE PUSH1 0x20 ADD PUSH1 0x2 DUP3 ADD DUP1 SLOAD PUSH2 0x889 SWAP1 PUSH2 0x34DE JUMP JUMPDEST DUP1 PUSH1 0x1F ADD PUSH1 0x20 DUP1 SWAP2 DIV MUL PUSH1 0x20 ADD PUSH1 0x40 MLOAD SWAP1 DUP2 ADD PUSH1 0x40 MSTORE DUP1 SWAP3 SWAP2 SWAP1 DUP2 DUP2 MSTORE PUSH1 0x20 ADD DUP3 DUP1 SLOAD PUSH2 0x8B5 SWAP1 PUSH2 0x34DE JUMP JUMPDEST DUP1 ISZERO PUSH2 0x900 JUMPI DUP1 PUSH1 0x1F LT PUSH2 0x8D7 JUMPI PUSH2 0x100 DUP1 DUP4 SLOAD DIV MUL DUP4 MSTORE SWAP2 PUSH1 0x20 ADD SWAP2 PUSH2 0x900 JUMP JUMPDEST DUP3 ADD SWAP2 SWAP1 PUSH0 MSTORE PUSH1 0x20 PUSH0 KECCAK256 SWAP1 JUMPDEST DUP2 SLOAD DUP2 MSTORE SWAP1 PUSH1 0x1 ADD SWAP1 PUSH1 0x20 ADD DUP1 DUP4 GT PUSH2 0x8E3 JUMPI DUP3 SWAP1 SUB PUSH1 0x1F AND DUP3 ADD SWAP2 JUMPDEST POP POP POP POP POP DUP2 MSTORE PUSH1 0x20 ADD PUSH1 0x3 DUP3 ADD DUP1 SLOAD PUSH2 0x919 SWAP1 PUSH2 0x34DE JUMP JUMPDEST DUP1 PUSH1 0x1F ADD PUSH1 0x20 DUP1 SWAP2 DIV MUL PUSH1 0x20 ADD PUSH1 0x40 MLOAD SWAP1 DUP2 ADD PUSH1 0x40 MSTORE DUP1 SWAP3 SWAP2 SWAP1 DUP2 DUP2 MSTORE PUSH1 0x20 ADD DUP3 DUP1 SLOAD PUSH2 0x945 SWAP1 PUSH2 0x34DE JUMP JUMPDEST DUP1 ISZERO PUSH2 0x990 JUMPI DUP1 PUSH1 0x1F LT PUSH2 0x967 JUMPI PUSH2 0x100 DUP1 DUP4 SLOAD DIV MUL DUP4 MSTORE SWAP2 PUSH1 0x20 ADD SWAP2 PUSH2 0x990 JUMP JUMPDEST DUP3 ADD SWAP2 SWAP1 PUSH0 MSTORE PUSH1 0x20 PUSH0 KECCAK256 SWAP1 JUMPDEST DUP2 SLOAD DUP2 MSTORE SWAP1 PUSH1 0x1 ADD SWAP1 PUSH1 0x20 ADD DUP1 DUP4 GT PUSH2 0x973 JUMPI DUP3 SWAP1 SUB PUSH1 0x1F AND DUP3 ADD SWAP2 JUMPDEST POP POP POP POP POP DUP2 MSTORE PUSH1 0x20 ADD PUSH1 0x4 DUP3 ADD DUP1 SLOAD PUSH2 0x9A9 SWAP1 PUSH2 0x34DE JUMP JUMPDEST DUP1 PUSH1 0x1F ADD PUSH1 0x20 DUP1 SWAP2 DIV MUL PUSH1 0x20 ADD PUSH1 0x40 MLOAD SWAP1 DUP2 ADD PUSH1 0x40 MSTORE DUP1 SWAP3 SWAP2 SWAP1 DUP2 DUP2 MSTORE PUSH1 0x20 ADD DUP3 DUP1 SLOAD PUSH2 0x9D5 SWAP1 PUSH2 0x34DE JUMP JUMPDEST DUP1 ISZERO PUSH2 0xA20 JUMPI DUP1 PUSH1 0x1F LT PUSH2 0x9F7 JUMPI PUSH2 0x100 DUP1 DUP4 SLOAD DIV MUL DUP4 MSTORE SWAP2 PUSH1 0x20 ADD SWAP2 PUSH2 0xA20 JUMP JUMPDEST DUP3 ADD SWAP2 SWAP1 PUSH0 MSTORE PUSH1 0x20 PUSH0 KECCAK256 SWAP1 JUMPDEST DUP2 SLOAD DUP2 MSTORE SWAP1 PUSH1 0x1 ADD SWAP1 PUSH1 0x20 ADD DUP1 DUP4 GT PUSH2 0xA03 JUMPI DUP3 SWAP1 SUB PUSH1 0x1F AND DUP3 ADD SWAP2 JUMPDEST POP POP POP POP POP DUP2 MSTORE PUSH1 0x20 ADD PUSH1 0x5 DUP3 ADD SLOAD DUP2 MSTORE POP POP DUP2 MSTORE PUSH1 0x20 ADD SWAP1 PUSH1 0x1 ADD SWAP1 PUSH2 0x743 JUMP JUMPDEST POP POP POP POP SWAP1 POP SWAP1 JUMP JUMPDEST PUSH2 0xA53 PUSH2 0x197E JUMP JUMPDEST PUSH2 0xA66 DUP2 PUSH8 0xFFFFFFFFFFFFFFFF AND PUSH2 0x19FC JUMP JUMPDEST PUSH2 0xAA5 JUMPI PUSH1 0x40 MLOAD PUSH32 0x8C379A000000000000000000000000000000000000000000000000000000000 DUP2 MSTORE PUSH1 0x4 ADD PUSH2 0xA9C SWAP1 PUSH2 0x3674 JUMP JUMPDEST PUSH1 0x40 MLOAD DUP1 SWAP2 SUB SWAP1 REVERT JUMPDEST PUSH1 0xA PUSH0 DUP3 PUSH8 0xFFFFFFFFFFFFFFFF AND PUSH8 0xFFFFFFFFFFFFFFFF AND DUP2 MSTORE PUSH1 0x20 ADD SWAP1 DUP2 MSTORE PUSH1 0x20 ADD PUSH0 KECCAK256 PUSH0 SWAP1 SLOAD SWAP1 PUSH2 0x100 EXP SWAP1 DIV PUSH1 0xFF AND ISZERO PUSH2 0xB17 JUMPI PUSH1 0x40 MLOAD PUSH32 0x8C379A000000000000000000000000000000000000000000000000000000000 DUP2 MSTORE PUSH1 0x4 ADD PUSH2 0xB0E SWAP1 PUSH2 0x36DC JUMP JUMPDEST PUSH1 0x40 MLOAD DUP1 SWAP2 SUB SWAP1 REVERT JUMPDEST PUSH1 0x1 PUSH1 0xA PUSH0 DUP4 PUSH8 0xFFFFFFFFFFFFFFFF AND PUSH8 0xFFFFFFFFFFFFFFFF AND DUP2 MSTORE PUSH1 0x20 ADD SWAP1 DUP2 MSTORE PUSH1 0x20 ADD PUSH0 KECCAK256 PUSH0 PUSH2 0x100 EXP DUP2 SLOAD DUP2 PUSH1 0xFF MUL NOT AND SWAP1 DUP4 ISZERO ISZERO MUL OR SWAP1 SSTORE POP PUSH0 JUMPDEST PUSH1 0x8 DUP1 SLOAD SWAP1 POP DUP2 LT ISZERO PUSH2 0xDC6 JUMPI DUP2 PUSH8 0xFFFFFFFFFFFFFFFF AND PUSH1 0x8 DUP3 DUP2 SLOAD DUP2 LT PUSH2 0xB82 JUMPI PUSH2 0xB81 PUSH2 0x36FA JUMP JUMPDEST JUMPDEST SWAP1 PUSH0 MSTORE PUSH1 0x20 PUSH0 KECCAK256 SWAP1 PUSH1 0x6 MUL ADD PUSH0 ADD PUSH0 SWAP1 SLOAD SWAP1 PUSH2 0x100 EXP SWAP1 DIV PUSH8 0xFFFFFFFFFFFFFFFF AND PUSH8 0xFFFFFFFFFFFFFFFF AND SUB PUSH2 0xDB9 JUMPI PUSH1 0x8 PUSH1 0x1 PUSH1 0x8 DUP1 SLOAD SWAP1 POP PUSH2 0xBC7 SWAP2 SWAP1 PUSH2 0x3754 JUMP JUMPDEST DUP2 SLOAD DUP2 LT PUSH2 0xBD8 JUMPI PUSH2 0xBD7 PUSH2 0x36FA JUMP JUMPDEST JUMPDEST SWAP1 PUSH0 MSTORE PUSH1 0x20 PUSH0 KECCAK256 SWAP1 PUSH1 0x6 MUL ADD PUSH1 0x8 DUP3 DUP2 SLOAD DUP2 LT PUSH2 0xBF8 JUMPI PUSH2 0xBF7 PUSH2 0x36FA JUMP JUMPDEST JUMPDEST SWAP1 PUSH0 MSTORE PUSH1 0x20 PUSH0 KECCAK256 SWAP1 PUSH1 0x6 MUL ADD PUSH0 DUP3 ADD PUSH0 SWAP1 SLOAD SWAP1 PUSH2 0x100 EXP SWAP1 DIV PUSH8 0xFFFFFFFFFFFFFFFF AND DUP2 PUSH0 ADD PUSH0 PUSH2 0x100 EXP DUP2 SLOAD DUP2 PUSH8 0xFFFFFFFFFFFFFFFF MUL NOT AND SWAP1 DUP4 PUSH8 0xFFFFFFFFFFFFFFFF AND MUL OR SWAP1 SSTORE POP PUSH0 DUP3 ADD PUSH1 0x8 SWAP1 SLOAD SWAP1 PUSH2 0x100 EXP SWAP1 DIV PUSH20 0xFFFFFFFFFFFFFFFFFFFFFFFFFFFFFFFFFFFFFFFF AND DUP2 PUSH0 ADD PUSH1 0x8 PUSH2 0x100 EXP DUP2 SLOAD DUP2 PUSH20 0xFFFFFFFFFFFFFFFFFFFFFFFFFFFFFFFFFFFFFFFF MUL NOT AND SWAP1 DUP4 PUSH20 0xFFFFFFFFFFFFFFFFFFFFFFFFFFFFFFFFFFFFFFFF AND MUL OR SWAP1 SSTORE POP PUSH1 0x1 DUP3 ADD DUP2 PUSH1 0x1 ADD SWAP1 DUP2 PUSH2 0xCBC SWAP2 SWAP1 PUSH2 0x3939 JUMP JUMPDEST POP PUSH1 0x2 DUP3 ADD DUP2 PUSH1 0x2 ADD SWAP1 DUP2 PUSH2 0xCD1 SWAP2 SWAP1 PUSH2 0x3939 JUMP JUMPDEST POP PUSH1 0x3 DUP3 ADD DUP2 PUSH1 0x3 ADD SWAP1 DUP2 PUSH2 0xCE6 SWAP2 SWAP1 PUSH2 0x3939 JUMP JUMPDEST POP PUSH1 0x4 DUP3 ADD DUP2 PUSH1 0x4 ADD SWAP1 DUP2 PUSH2 0xCFB SWAP2 SWAP1 PUSH2 0x3939 JUMP JUMPDEST POP PUSH1 0x5 DUP3 ADD SLOAD DUP2 PUSH1 0x5 ADD SSTORE SWAP1 POP POP PUSH1 0x8 DUP1 SLOAD DUP1 PUSH2 0xD1B JUMPI PUSH2 0xD1A PUSH2 0x3A1E JUMP JUMPDEST JUMPDEST PUSH1 0x1 SWAP1 SUB DUP2 DUP2 SWAP1 PUSH0 MSTORE PUSH1 0x20 PUSH0 KECCAK256 SWAP1 PUSH1 0x6 MUL ADD PUSH0 DUP1 DUP3 ADD PUSH0 PUSH2 0x100 EXP DUP2 SLOAD SWAP1 PUSH8 0xFFFFFFFFFFFFFFFF MUL NOT AND SWAP1 SSTORE PUSH0 DUP3 ADD PUSH1 0x8 PUSH2 0x100 EXP DUP2 SLOAD SWAP1 PUSH20 0xFFFFFFFFFFFFFFFFFFFFFFFFFFFFFFFFFFFFFFFF MUL NOT AND SWAP1 SSTORE PUSH1 0x1 DUP3 ADD PUSH0 PUSH2 0xD7C SWAP2 SWAP1 PUSH2 0x29B1 JUMP JUMPDEST PUSH1 0x2 DUP3 ADD PUSH0 PUSH2 0xD8B SWAP2 SWAP1 PUSH2 0x29B1 JUMP JUMPDEST PUSH1 0x3 DUP3 ADD PUSH0 PUSH2 0xD9A SWAP2 SWAP1 PUSH2 0x29B1 JUMP JUMPDEST PUSH1 0x4 DUP3 ADD PUSH0 PUSH2 0xDA9 SWAP2 SWAP1 PUSH2 0x29B1 JUMP JUMPDEST PUSH1 0x5 DUP3 ADD PUSH0 SWAP1 SSTORE POP POP SWAP1 SSTORE PUSH2 0xDC6 JUMP JUMPDEST DUP1 DUP1 PUSH1 0x1 ADD SWAP2 POP POP PUSH2 0xB56 JUMP JUMPDEST POP PUSH2 0xDDA DUP2 PUSH8 0xFFFFFFFFFFFFFFFF AND PUSH2 0x1A64 JUMP JUMPDEST POP JUMP JUMPDEST PUSH2 0xDEE PUSH2 0xDE8 PUSH2 0x18C1 JUMP JUMPDEST DUP3 PUSH2 0x1A70 JUMP JUMPDEST PUSH2 0xE2D JUMPI PUSH1 0x40 MLOAD PUSH32 0x8C379A000000000000000000000000000000000000000000000000000000000 DUP2 MSTORE PUSH1 0x4 ADD PUSH2 0xE24 SWAP1 PUSH2 0x3ABB JUMP JUMPDEST PUSH1 0x40 MLOAD DUP1 SWAP2 SUB SWAP1 REVERT JUMPDEST PUSH2 0xE38 DUP4 DUP4 DUP4 PUSH2 0x1B04 JUMP JUMPDEST POP POP POP JUMP JUMPDEST PUSH2 0xE57 DUP4 DUP4 DUP4 PUSH1 0x40 MLOAD DUP1 PUSH1 0x20 ADD PUSH1 0x40 MSTORE DUP1 PUSH0 DUP2 MSTORE POP PUSH2 0x1274 JUMP JUMPDEST POP POP POP JUMP JUMPDEST PUSH0 DUP1 PUSH1 0x2 PUSH0 DUP5 DUP2 MSTORE PUSH1 0x20 ADD SWAP1 DUP2 MSTORE PUSH1 0x20 ADD PUSH0 KECCAK256 PUSH0 SWAP1 SLOAD SWAP1 PUSH2 0x100 EXP SWAP1 DIV PUSH20 0xFFFFFFFFFFFFFFFFFFFFFFFFFFFFFFFFFFFFFFFF AND SWAP1 POP PUSH0 PUSH20 0xFFFFFFFFFFFFFFFFFFFFFFFFFFFFFFFFFFFFFFFF AND DUP2 PUSH20 0xFFFFFFFFFFFFFFFFFFFFFFFFFFFFFFFFFFFFFFFF AND SUB PUSH2 0xEFF JUMPI PUSH1 0x40 MLOAD PUSH32 0x8C379A000000000000000000000000000000000000000000000000000000000 DUP2 MSTORE PUSH1 0x4 ADD PUSH2 0xEF6 SWAP1 PUSH2 0x3B23 JUMP JUMPDEST PUSH1 0x40 MLOAD DUP1 SWAP2 SUB SWAP1 REVERT JUMPDEST DUP1 SWAP2 POP POP SWAP2 SWAP1 POP JUMP JUMPDEST PUSH0 DUP1 PUSH20 0xFFFFFFFFFFFFFFFFFFFFFFFFFFFFFFFFFFFFFFFF AND DUP3 PUSH20 0xFFFFFFFFFFFFFFFFFFFFFFFFFFFFFFFFFFFFFFFF AND SUB PUSH2 0xF77 JUMPI PUSH1 0x40 MLOAD PUSH32 0x8C379A000000000000000000000000000000000000000000000000000000000 DUP2 MSTORE PUSH1 0x4 ADD PUSH2 0xF6E SWAP1 PUSH2 0x3BB1 JUMP JUMPDEST PUSH1 0x40 MLOAD DUP1 SWAP2 SUB SWAP1 REVERT JUMPDEST PUSH1 0x3 PUSH0 DUP4 PUSH20 0xFFFFFFFFFFFFFFFFFFFFFFFFFFFFFFFFFFFFFFFF AND PUSH20 0xFFFFFFFFFFFFFFFFFFFFFFFFFFFFFFFFFFFFFFFF AND DUP2 MSTORE PUSH1 0x20 ADD SWAP1 DUP2 MSTORE PUSH1 0x20 ADD PUSH0 KECCAK256 SLOAD SWAP1 POP SWAP2 SWAP1 POP JUMP JUMPDEST PUSH2 0xFC4 PUSH2 0x197E JUMP JUMPDEST PUSH2 0xFCD PUSH0 PUSH2 0x1D5F JUMP JUMPDEST JUMP JUMPDEST PUSH0 PUSH1 0xA PUSH0 DUP4 PUSH8 0xFFFFFFFFFFFFFFFF AND PUSH8 0xFFFFFFFFFFFFFFFF AND DUP2 MSTORE PUSH1 0x20 ADD SWAP1 DUP2 MSTORE PUSH1 0x20 ADD PUSH0 KECCAK256 PUSH0 SWAP1 SLOAD SWAP1 PUSH2 0x100 EXP SWAP1 DIV PUSH1 0xFF AND SWAP1 POP SWAP2 SWAP1 POP JUMP JUMPDEST PUSH0 DUP1 PUSH2 0x1013 PUSH2 0x1E22 JUMP JUMPDEST SWAP1 POP PUSH2 0x1029 DUP9 DUP3 PUSH8 0xFFFFFFFFFFFFFFFF AND PUSH2 0x1E66 JUMP JUMPDEST PUSH2 0x103D DUP2 PUSH8 0xFFFFFFFFFFFFFFFF AND DUP6 PUSH2 0x1E83 JUMP JUMPDEST PUSH1 0x8 PUSH1 0x40 MLOAD DUP1 PUSH1 0xE0 ADD PUSH1 0x40 MSTORE DUP1 DUP4 PUSH8 0xFFFFFFFFFFFFFFFF AND DUP2 MSTORE PUSH1 0x20 ADD DUP11 PUSH20 0xFFFFFFFFFFFFFFFFFFFFFFFFFFFFFFFFFFFFFFFF AND DUP2 MSTORE PUSH1 0x20 ADD DUP10 DUP2 MSTORE PUSH1 0x20 ADD DUP9 DUP2 MSTORE PUSH1 0x20 ADD DUP8 DUP2 MSTORE PUSH1 0x20 ADD DUP6 DUP2 MSTORE PUSH1 0x20 ADD TIMESTAMP DUP2 MSTORE POP SWAP1 DUP1 PUSH1 0x1 DUP2 SLOAD ADD DUP1 DUP3 SSTORE DUP1 SWAP2 POP POP PUSH1 0x1 SWAP1 SUB SWAP1 PUSH0 MSTORE PUSH1 0x20 PUSH0 KECCAK256 SWAP1 PUSH1 0x6 MUL ADD PUSH0 SWAP1 SWAP2 SWAP1 SWAP2 SWAP1 SWAP2 POP PUSH0 DUP3 ADD MLOAD DUP2 PUSH0 ADD PUSH0 PUSH2 0x100 EXP DUP2 SLOAD DUP2 PUSH8 0xFFFFFFFFFFFFFFFF MUL NOT AND SWAP1 DUP4 PUSH8 0xFFFFFFFFFFFFFFFF AND MUL OR SWAP1 SSTORE POP PUSH1 0x20 DUP3 ADD MLOAD DUP2 PUSH0 ADD PUSH1 0x8 PUSH2 0x100 EXP DUP2 SLOAD DUP2 PUSH20 0xFFFFFFFFFFFFFFFFFFFFFFFFFFFFFFFFFFFFFFFF MUL NOT AND SWAP1 DUP4 PUSH20 0xFFFFFFFFFFFFFFFFFFFFFFFFFFFFFFFFFFFFFFFF AND MUL OR SWAP1 SSTORE POP PUSH1 0x40 DUP3 ADD MLOAD DUP2 PUSH1 0x1 ADD SWAP1 DUP2 PUSH2 0x113F SWAP2 SWAP1 PUSH2 0x3BCF JUMP JUMPDEST POP PUSH1 0x60 DUP3 ADD MLOAD DUP2 PUSH1 0x2 ADD SWAP1 DUP2 PUSH2 0x1155 SWAP2 SWAP1 PUSH2 0x3BCF JUMP JUMPDEST POP PUSH1 0x80 DUP3 ADD MLOAD DUP2 PUSH1 0x3 ADD SWAP1 DUP2 PUSH2 0x116B SWAP2 SWAP1 PUSH2 0x3BCF JUMP JUMPDEST POP PUSH1 0xA0 DUP3 ADD MLOAD DUP2 PUSH1 0x4 ADD SWAP1 DUP2 PUSH2 0x1181 SWAP2 SWAP1 PUSH2 0x3BCF JUMP JUMPDEST POP PUSH1 0xC0 DUP3 ADD MLOAD DUP2 PUSH1 0x5 ADD SSTORE POP POP DUP1 PUSH8 0xFFFFFFFFFFFFFFFF AND SWAP2 POP POP SWAP7 SWAP6 POP POP POP POP POP POP JUMP JUMPDEST PUSH0 PUSH1 0x7 PUSH0 SWAP1 SLOAD SWAP1 PUSH2 0x100 EXP SWAP1 DIV PUSH20 0xFFFFFFFFFFFFFFFFFFFFFFFFFFFFFFFFFFFFFFFF AND SWAP1 POP SWAP1 JUMP JUMPDEST PUSH1 0x60 PUSH1 0x1 DUP1 SLOAD PUSH2 0x11DD SWAP1 PUSH2 0x34DE JUMP JUMPDEST DUP1 PUSH1 0x1F ADD PUSH1 0x20 DUP1 SWAP2 DIV MUL PUSH1 0x20 ADD PUSH1 0x40 MLOAD SWAP1 DUP2 ADD PUSH1 0x40 MSTORE DUP1 SWAP3 SWAP2 SWAP1 DUP2 DUP2 MSTORE PUSH1 0x20 ADD DUP3 DUP1 SLOAD PUSH2 0x1209 SWAP1 PUSH2 0x34DE JUMP JUMPDEST DUP1 ISZERO PUSH2 0x1254 JUMPI DUP1 PUSH1 0x1F LT PUSH2 0x122B JUMPI PUSH2 0x100 DUP1 DUP4 SLOAD DIV MUL DUP4 MSTORE SWAP2 PUSH1 0x20 ADD SWAP2 PUSH2 0x1254 JUMP JUMPDEST DUP3 ADD SWAP2 SWAP1 PUSH0 MSTORE PUSH1 0x20 PUSH0 KECCAK256 SWAP1 JUMPDEST DUP2 SLOAD DUP2 MSTORE SWAP1 PUSH1 0x1 ADD SWAP1 PUSH1 0x20 ADD DUP1 DUP4 GT PUSH2 0x1237 JUMPI DUP3 SWAP1 SUB PUSH1 0x1F AND DUP3 ADD SWAP2 JUMPDEST POP POP POP POP POP SWAP1 POP SWAP1 JUMP JUMPDEST PUSH2 0x1270 PUSH2 0x1269 PUSH2 0x18C1 JUMP JUMPDEST DUP4 DUP4 PUSH2 0x1EEE JUMP JUMPDEST POP POP JUMP JUMPDEST PUSH2 0x1285 PUSH2 0x127F PUSH2 0x18C1 JUMP JUMPDEST DUP4 PUSH2 0x1A70 JUMP JUMPDEST PUSH2 0x12C4 JUMPI PUSH1 0x40 MLOAD PUSH32 0x8C379A000000000000000000000000000000000000000000000000000000000 DUP2 MSTORE PUSH1 0x4 ADD PUSH2 0x12BB SWAP1 PUSH2 0x3ABB JUMP JUMPDEST PUSH1 0x40 MLOAD DUP1 SWAP2 SUB SWAP1 REVERT JUMPDEST PUSH2 0x12D0 DUP5 DUP5 DUP5 DUP5 PUSH2 0x2055 JUMP JUMPDEST POP POP POP POP JUMP JUMPDEST PUSH1 0x60 PUSH1 0xA PUSH0 DUP4 PUSH8 0xFFFFFFFFFFFFFFFF AND PUSH8 0xFFFFFFFFFFFFFFFF AND DUP2 MSTORE PUSH1 0x20 ADD SWAP1 DUP2 MSTORE PUSH1 0x20 ADD PUSH0 KECCAK256 PUSH0 SWAP1 SLOAD SWAP1 PUSH2 0x100 EXP SWAP1 DIV PUSH1 0xFF AND ISZERO PUSH2 0x132F JUMPI PUSH1 0x40 MLOAD DUP1 PUSH1 0x60 ADD PUSH1 0x40 MSTORE DUP1 PUSH1 0x21 DUP2 MSTORE PUSH1 0x20 ADD PUSH2 0x44BC PUSH1 0x21 SWAP2 CODECOPY SWAP1 POP PUSH2 0x133B JUMP JUMPDEST PUSH2 0x1338 DUP3 PUSH2 0x20B1 JUMP JUMPDEST SWAP1 POP JUMPDEST SWAP2 SWAP1 POP JUMP JUMPDEST PUSH1 0x9 SLOAD DUP2 JUMP JUMPDEST PUSH0 PUSH1 0x5 PUSH0 DUP5 PUSH20 0xFFFFFFFFFFFFFFFFFFFFFFFFFFFFFFFFFFFFFFFF AND PUSH20 0xFFFFFFFFFFFFFFFFFFFFFFFFFFFFFFFFFFFFFFFF AND DUP2 MSTORE PUSH1 0x20 ADD SWAP1 DUP2 MSTORE PUSH1 0x20 ADD PUSH0 KECCAK256 PUSH0 DUP4 PUSH20 0xFFFFFFFFFFFFFFFFFFFFFFFFFFFFFFFFFFFFFFFF AND PUSH20 0xFFFFFFFFFFFFFFFFFFFFFFFFFFFFFFFFFFFFFFFF AND DUP2 MSTORE PUSH1 0x20 ADD SWAP1 DUP2 MSTORE PUSH1 0x20 ADD PUSH0 KECCAK256 PUSH0 SWAP1 SLOAD SWAP1 PUSH2 0x100 EXP SWAP1 DIV PUSH1 0xFF AND SWAP1 POP SWAP3 SWAP2 POP POP JUMP JUMPDEST PUSH2 0x13DC PUSH2 0x197E JUMP JUMPDEST PUSH0 PUSH20 0xFFFFFFFFFFFFFFFFFFFFFFFFFFFFFFFFFFFFFFFF AND DUP2 PUSH20 0xFFFFFFFFFFFFFFFFFFFFFFFFFFFFFFFFFFFFFFFF AND SUB PUSH2 0x144A JUMPI PUSH1 0x40 MLOAD PUSH32 0x8C379A000000000000000000000000000000000000000000000000000000000 DUP2 MSTORE PUSH1 0x4 ADD PUSH2 0x1441 SWAP1 PUSH2 0x3D0E JUMP JUMPDEST PUSH1 0x40 MLOAD DUP1 SWAP2 SUB SWAP1 REVERT JUMPDEST PUSH2 0x1453 DUP2 PUSH2 0x1D5F JUMP JUMPDEST POP JUMP JUMPDEST PUSH2 0x145E PUSH2 0x29EE JUMP JUMPDEST PUSH0 JUMPDEST PUSH1 0x8 DUP1 SLOAD SWAP1 POP DUP2 LT ISZERO PUSH2 0x17CC JUMPI DUP3 PUSH8 0xFFFFFFFFFFFFFFFF AND PUSH1 0x8 DUP3 DUP2 SLOAD DUP2 LT PUSH2 0x148C JUMPI PUSH2 0x148B PUSH2 0x36FA JUMP JUMPDEST JUMPDEST SWAP1 PUSH0 MSTORE PUSH1 0x20 PUSH0 KECCAK256 SWAP1 PUSH1 0x6 MUL ADD PUSH0 ADD PUSH0 SWAP1 SLOAD SWAP1 PUSH2 0x100 EXP SWAP1 DIV PUSH8 0xFFFFFFFFFFFFFFFF AND PUSH8 0xFFFFFFFFFFFFFFFF AND SUB PUSH2 0x17BF JUMPI PUSH1 0x8 DUP2 DUP2 SLOAD DUP2 LT PUSH2 0x14D1 JUMPI PUSH2 0x14D0 PUSH2 0x36FA JUMP JUMPDEST JUMPDEST SWAP1 PUSH0 MSTORE PUSH1 0x20 PUSH0 KECCAK256 SWAP1 PUSH1 0x6 MUL ADD PUSH1 0x40 MLOAD DUP1 PUSH1 0xE0 ADD PUSH1 0x40 MSTORE SWAP1 DUP2 PUSH0 DUP3 ADD PUSH0 SWAP1 SLOAD SWAP1 PUSH2 0x100 EXP SWAP1 DIV PUSH8 0xFFFFFFFFFFFFFFFF AND PUSH8 0xFFFFFFFFFFFFFFFF AND PUSH8 0xFFFFFFFFFFFFFFFF AND DUP2 MSTORE PUSH1 0x20 ADD PUSH0 DUP3 ADD PUSH1 0x8 SWAP1 SLOAD SWAP1 PUSH2 0x100 EXP SWAP1 DIV PUSH20 0xFFFFFFFFFFFFFFFFFFFFFFFFFFFFFFFFFFFFFFFF AND PUSH20 0xFFFFFFFFFFFFFFFFFFFFFFFFFFFFFFFFFFFFFFFF AND PUSH20 0xFFFFFFFFFFFFFFFFFFFFFFFFFFFFFFFFFFFFFFFF AND DUP2 MSTORE PUSH1 0x20 ADD PUSH1 0x1 DUP3 ADD DUP1 SLOAD PUSH2 0x157D SWAP1 PUSH2 0x34DE JUMP JUMPDEST DUP1 PUSH1 0x1F ADD PUSH1 0x20 DUP1 SWAP2 DIV MUL PUSH1 0x20 ADD PUSH1 0x40 MLOAD SWAP1 DUP2 ADD PUSH1 0x40 MSTORE DUP1 SWAP3 SWAP2 SWAP1 DUP2 DUP2 MSTORE PUSH1 0x20 ADD DUP3 DUP1 SLOAD PUSH2 0x15A9 SWAP1 PUSH2 0x34DE JUMP JUMPDEST DUP1 ISZERO PUSH2 0x15F4 JUMPI DUP1 PUSH1 0x1F LT PUSH2 0x15CB JUMPI PUSH2 0x100 DUP1 DUP4 SLOAD DIV MUL DUP4 MSTORE SWAP2 PUSH1 0x20 ADD SWAP2 PUSH2 0x15F4 JUMP JUMPDEST DUP3 ADD SWAP2 SWAP1 PUSH0 MSTORE PUSH1 0x20 PUSH0 KECCAK256 SWAP1 JUMPDEST DUP2 SLOAD DUP2 MSTORE SWAP1 PUSH1 0x1 ADD SWAP1 PUSH1 0x20 ADD DUP1 DUP4 GT PUSH2 0x15D7 JUMPI DUP3 SWAP1 SUB PUSH1 0x1F AND DUP3 ADD SWAP2 JUMPDEST POP POP POP POP POP DUP2 MSTORE PUSH1 0x20 ADD PUSH1 0x2 DUP3 ADD DUP1 SLOAD PUSH2 0x160D SWAP1 PUSH2 0x34DE JUMP JUMPDEST DUP1 PUSH1 0x1F ADD PUSH1 0x20 DUP1 SWAP2 DIV MUL PUSH1 0x20 ADD PUSH1 0x40 MLOAD SWAP1 DUP2 ADD PUSH1 0x40 MSTORE DUP1 SWAP3 SWAP2 SWAP1 DUP2 DUP2 MSTORE PUSH1 0x20 ADD DUP3 DUP1 SLOAD PUSH2 0x1639 SWAP1 PUSH2 0x34DE JUMP JUMPDEST DUP1 ISZERO PUSH2 0x1684 JUMPI DUP1 PUSH1 0x1F LT PUSH2 0x165B JUMPI PUSH2 0x100 DUP1 DUP4 SLOAD DIV MUL DUP4 MSTORE SWAP2 PUSH1 0x20 ADD SWAP2 PUSH2 0x1684 JUMP JUMPDEST DUP3 ADD SWAP2 SWAP1 PUSH0 MSTORE PUSH1 0x20 PUSH0 KECCAK256 SWAP1 JUMPDEST DUP2 SLOAD DUP2 MSTORE SWAP1 PUSH1 0x1 ADD SWAP1 PUSH1 0x20 ADD DUP1 DUP4 GT PUSH2 0x1667 JUMPI DUP3 SWAP1 SUB PUSH1 0x1F AND DUP3 ADD SWAP2 JUMPDEST POP POP POP POP POP DUP2 MSTORE PUSH1 0x20 ADD PUSH1 0x3 DUP3 ADD DUP1 SLOAD PUSH2 0x169D SWAP1 PUSH2 0x34DE JUMP JUMPDEST DUP1 PUSH1 0x1F ADD PUSH1 0x20 DUP1 SWAP2 DIV MUL PUSH1 0x20 ADD PUSH1 0x40 MLOAD SWAP1 DUP2 ADD PUSH1 0x40 MSTORE DUP1 SWAP3 SWAP2 SWAP1 DUP2 DUP2 MSTORE PUSH1 0x20 ADD DUP3 DUP1 SLOAD PUSH2 0x16C9 SWAP1 PUSH2 0x34DE JUMP JUMPDEST DUP1 ISZERO PUSH2 0x1714 JUMPI DUP1 PUSH1 0x1F LT PUSH2 0x16EB JUMPI PUSH2 0x100 DUP1 DUP4 SLOAD DIV MUL DUP4 MSTORE SWAP2 PUSH1 0x20 ADD SWAP2 PUSH2 0x1714 JUMP JUMPDEST DUP3 ADD SWAP2 SWAP1 PUSH0 MSTORE PUSH1 0x20 PUSH0 KECCAK256 SWAP1 JUMPDEST DUP2 SLOAD DUP2 MSTORE SWAP1 PUSH1 0x1 ADD SWAP1 PUSH1 0x20 ADD DUP1 DUP4 GT PUSH2 0x16F7 JUMPI DUP3 SWAP1 SUB PUSH1 0x1F AND DUP3 ADD SWAP2 JUMPDEST POP POP POP POP POP DUP2 MSTORE PUSH1 0x20 ADD PUSH1 0x4 DUP3 ADD DUP1 SLOAD PUSH2 0x172D SWAP1 PUSH2 0x34DE JUMP JUMPDEST DUP1 PUSH1 0x1F ADD PUSH1 0x20 DUP1 SWAP2 DIV MUL PUSH1 0x20 ADD PUSH1 0x40 MLOAD SWAP1 DUP2 ADD PUSH1 0x40 MSTORE DUP1 SWAP3 SWAP2 SWAP1 DUP2 DUP2 MSTORE PUSH1 0x20 ADD DUP3 DUP1 SLOAD PUSH2 0x1759 SWAP1 PUSH2 0x34DE JUMP JUMPDEST DUP1 ISZERO PUSH2 0x17A4 JUMPI DUP1 PUSH1 0x1F LT PUSH2 0x177B JUMPI PUSH2 0x100 DUP1 DUP4 SLOAD DIV MUL DUP4 MSTORE SWAP2 PUSH1 0x20 ADD SWAP2 PUSH2 0x17A4 JUMP JUMPDEST DUP3 ADD SWAP2 SWAP1 PUSH0 MSTORE PUSH1 0x20 PUSH0 KECCAK256 SWAP1 JUMPDEST DUP2 SLOAD DUP2 MSTORE SWAP1 PUSH1 0x1 ADD SWAP1 PUSH1 0x20 ADD DUP1 DUP4 GT PUSH2 0x1787 JUMPI DUP3 SWAP1 SUB PUSH1 0x1F AND DUP3 ADD SWAP2 JUMPDEST POP POP POP POP POP DUP2 MSTORE PUSH1 0x20 ADD PUSH1 0x5 DUP3 ADD SLOAD DUP2 MSTORE POP POP SWAP2 POP POP PUSH2 0x1808 JUMP JUMPDEST DUP1 DUP1 PUSH1 0x1 ADD SWAP2 POP POP PUSH2 0x1460 JUMP JUMPDEST POP PUSH1 0x40 MLOAD PUSH32 0x8C379A000000000000000000000000000000000000000000000000000000000 DUP2 MSTORE PUSH1 0x4 ADD PUSH2 0x17FF SWAP1 PUSH2 0x3D9C JUMP JUMPDEST PUSH1 0x40 MLOAD DUP1 SWAP2 SUB SWAP1 REVERT JUMPDEST SWAP2 SWAP1 POP JUMP JUMPDEST PUSH0 PUSH32 0x1FFC9A700000000000000000000000000000000000000000000000000000000 PUSH28 0xFFFFFFFFFFFFFFFFFFFFFFFFFFFFFFFFFFFFFFFFFFFFFFFFFFFFFFFF NOT AND DUP3 PUSH28 0xFFFFFFFFFFFFFFFFFFFFFFFFFFFFFFFFFFFFFFFFFFFFFFFFFFFFFFFF NOT AND EQ SWAP1 POP SWAP2 SWAP1 POP JUMP JUMPDEST PUSH2 0x187F DUP2 PUSH2 0x19FC JUMP JUMPDEST PUSH2 0x18BE JUMPI PUSH1 0x40 MLOAD PUSH32 0x8C379A000000000000000000000000000000000000000000000000000000000 DUP2 MSTORE PUSH1 0x4 ADD PUSH2 0x18B5 SWAP1 PUSH2 0x3B23 JUMP JUMPDEST PUSH1 0x40 MLOAD DUP1 SWAP2 SUB SWAP1 REVERT JUMPDEST POP JUMP JUMPDEST PUSH0 CALLER SWAP1 POP SWAP1 JUMP JUMPDEST DUP2 PUSH1 0x4 PUSH0 DUP4 DUP2 MSTORE PUSH1 0x20 ADD SWAP1 DUP2 MSTORE PUSH1 0x20 ADD PUSH0 KECCAK256 PUSH0 PUSH2 0x100 EXP DUP2 SLOAD DUP2 PUSH20 0xFFFFFFFFFFFFFFFFFFFFFFFFFFFFFFFFFFFFFFFF MUL NOT AND SWAP1 DUP4 PUSH20 0xFFFFFFFFFFFFFFFFFFFFFFFFFFFFFFFFFFFFFFFF AND MUL OR SWAP1 SSTORE POP DUP1 DUP3 PUSH20 0xFFFFFFFFFFFFFFFFFFFFFFFFFFFFFFFFFFFFFFFF AND PUSH2 0x1938 DUP4 PUSH2 0xE5C JUMP JUMPDEST PUSH20 0xFFFFFFFFFFFFFFFFFFFFFFFFFFFFFFFFFFFFFFFF AND PUSH32 0x8C5BE1E5EBEC7D5BD14F71427D1E84F3DD0314C0F7B2291E5B200AC8C7C3B925 PUSH1 0x40 MLOAD PUSH1 0x40 MLOAD DUP1 SWAP2 SUB SWAP1 LOG4 POP POP JUMP JUMPDEST PUSH2 0x1986 PUSH2 0x18C1 JUMP JUMPDEST PUSH20 0xFFFFFFFFFFFFFFFFFFFFFFFFFFFFFFFFFFFFFFFF AND PUSH2 0x19A4 PUSH2 0x11A6 JUMP JUMPDEST PUSH20 0xFFFFFFFFFFFFFFFFFFFFFFFFFFFFFFFFFFFFFFFF AND EQ PUSH2 0x19FA JUMPI PUSH1 0x40 MLOAD PUSH32 0x8C379A000000000000000000000000000000000000000000000000000000000 DUP2 MSTORE PUSH1 0x4 ADD PUSH2 0x19F1 SWAP1 PUSH2 0x3E04 JUMP JUMPDEST PUSH1 0x40 MLOAD DUP1 SWAP2 SUB SWAP1 REVERT JUMPDEST JUMP JUMPDEST PUSH0 DUP1 PUSH20 0xFFFFFFFFFFFFFFFFFFFFFFFFFFFFFFFFFFFFFFFF AND PUSH1 0x2 PUSH0 DUP5 DUP2 MSTORE PUSH1 0x20 ADD SWAP1 DUP2 MSTORE PUSH1 0x20 ADD PUSH0 KECCAK256 PUSH0 SWAP1 SLOAD SWAP1 PUSH2 0x100 EXP SWAP1 DIV PUSH20 0xFFFFFFFFFFFFFFFFFFFFFFFFFFFFFFFFFFFFFFFF AND PUSH20 0xFFFFFFFFFFFFFFFFFFFFFFFFFFFFFFFFFFFFFFFF AND EQ ISZERO SWAP1 POP SWAP2 SWAP1 POP JUMP JUMPDEST PUSH2 0x1A6D DUP2 PUSH2 0x21BB JUMP JUMPDEST POP JUMP JUMPDEST PUSH0 DUP1 PUSH2 0x1A7B DUP4 PUSH2 0xE5C JUMP JUMPDEST SWAP1 POP DUP1 PUSH20 0xFFFFFFFFFFFFFFFFFFFFFFFFFFFFFFFFFFFFFFFF AND DUP5 PUSH20 0xFFFFFFFFFFFFFFFFFFFFFFFFFFFFFFFFFFFFFFFF AND EQ DUP1 PUSH2 0x1ABD JUMPI POP PUSH2 0x1ABC DUP2 DUP6 PUSH2 0x1346 JUMP JUMPDEST JUMPDEST DUP1 PUSH2 0x1AFB JUMPI POP DUP4 PUSH20 0xFFFFFFFFFFFFFFFFFFFFFFFFFFFFFFFFFFFFFFFF AND PUSH2 0x1AE3 DUP5 PUSH2 0x5C8 JUMP JUMPDEST PUSH20 0xFFFFFFFFFFFFFFFFFFFFFFFFFFFFFFFFFFFFFFFF AND EQ JUMPDEST SWAP2 POP POP SWAP3 SWAP2 POP POP JUMP JUMPDEST DUP3 PUSH20 0xFFFFFFFFFFFFFFFFFFFFFFFFFFFFFFFFFFFFFFFF AND PUSH2 0x1B24 DUP3 PUSH2 0xE5C JUMP JUMPDEST PUSH20 0xFFFFFFFFFFFFFFFFFFFFFFFFFFFFFFFFFFFFFFFF AND EQ PUSH2 0x1B7A JUMPI PUSH1 0x40 MLOAD PUSH32 0x8C379A000000000000000000000000000000000000000000000000000000000 DUP2 MSTORE PUSH1 0x4 ADD PUSH2 0x1B71 SWAP1 PUSH2 0x3E92 JUMP JUMPDEST PUSH1 0x40 MLOAD DUP1 SWAP2 SUB SWAP1 REVERT JUMPDEST PUSH0 PUSH20 0xFFFFFFFFFFFFFFFFFFFFFFFFFFFFFFFFFFFFFFFF AND DUP3 PUSH20 0xFFFFFFFFFFFFFFFFFFFFFFFFFFFFFFFFFFFFFFFF AND SUB PUSH2 0x1BE8 JUMPI PUSH1 0x40 MLOAD PUSH32 0x8C379A000000000000000000000000000000000000000000000000000000000 DUP2 MSTORE PUSH1 0x4 ADD PUSH2 0x1BDF SWAP1 PUSH2 0x3F20 JUMP JUMPDEST PUSH1 0x40 MLOAD DUP1 SWAP2 SUB SWAP1 REVERT JUMPDEST PUSH2 0x1BF3 DUP4 DUP4 DUP4 PUSH2 0x2208 JUMP JUMPDEST PUSH2 0x1BFD PUSH0 DUP3 PUSH2 0x18C8 JUMP JUMPDEST PUSH1 0x1 PUSH1 0x3 PUSH0 DUP6 PUSH20 0xFFFFFFFFFFFFFFFFFFFFFFFFFFFFFFFFFFFFFFFF AND PUSH20 0xFFFFFFFFFFFFFFFFFFFFFFFFFFFFFFFFFFFFFFFF AND DUP2 MSTORE PUSH1 0x20 ADD SWAP1 DUP2 MSTORE PUSH1 0x20 ADD PUSH0 KECCAK256 PUSH0 DUP3 DUP3 SLOAD PUSH2 0x1C4A SWAP2 SWAP1 PUSH2 0x3754 JUMP JUMPDEST SWAP3 POP POP DUP2 SWAP1 SSTORE POP PUSH1 0x1 PUSH1 0x3 PUSH0 DUP5 PUSH20 0xFFFFFFFFFFFFFFFFFFFFFFFFFFFFFFFFFFFFFFFF AND PUSH20 0xFFFFFFFFFFFFFFFFFFFFFFFFFFFFFFFFFFFFFFFF AND DUP2 MSTORE PUSH1 0x20 ADD SWAP1 DUP2 MSTORE PUSH1 0x20 ADD PUSH0 KECCAK256 PUSH0 DUP3 DUP3 SLOAD PUSH2 0x1C9E SWAP2 SWAP1 PUSH2 0x3F3E JUMP JUMPDEST SWAP3 POP POP DUP2 SWAP1 SSTORE POP DUP2 PUSH1 0x2 PUSH0 DUP4 DUP2 MSTORE PUSH1 0x20 ADD SWAP1 DUP2 MSTORE PUSH1 0x20 ADD PUSH0 KECCAK256 PUSH0 PUSH2 0x100 EXP DUP2 SLOAD DUP2 PUSH20 0xFFFFFFFFFFFFFFFFFFFFFFFFFFFFFFFFFFFFFFFF MUL NOT AND SWAP1 DUP4 PUSH20 0xFFFFFFFFFFFFFFFFFFFFFFFFFFFFFFFFFFFFFFFF AND MUL OR SWAP1 SSTORE POP DUP1 DUP3 PUSH20 0xFFFFFFFFFFFFFFFFFFFFFFFFFFFFFFFFFFFFFFFF AND DUP5 PUSH20 0xFFFFFFFFFFFFFFFFFFFFFFFFFFFFFFFFFFFFFFFF AND PUSH32 0xDDF252AD1BE2C89B69C2B068FC378DAA952BA7F163C4A11628F55A4DF523B3EF PUSH1 0x40 MLOAD PUSH1 0x40 MLOAD DUP1 SWAP2 SUB SWAP1 LOG4 PUSH2 0x1D5A DUP4 DUP4 DUP4 PUSH2 0x22F4 JUMP JUMPDEST POP POP POP JUMP JUMPDEST PUSH0 PUSH1 0x7 PUSH0 SWAP1 SLOAD SWAP1 PUSH2 0x100 EXP SWAP1 DIV PUSH20 0xFFFFFFFFFFFFFFFFFFFFFFFFFFFFFFFFFFFFFFFF AND SWAP1 POP DUP2 PUSH1 0x7 PUSH0 PUSH2 0x100 EXP DUP2 SLOAD DUP2 PUSH20 0xFFFFFFFFFFFFFFFFFFFFFFFFFFFFFFFFFFFFFFFF MUL NOT AND SWAP1 DUP4 PUSH20 0xFFFFFFFFFFFFFFFFFFFFFFFFFFFFFFFFFFFFFFFF AND MUL OR SWAP1 SSTORE POP DUP2 PUSH20 0xFFFFFFFFFFFFFFFFFFFFFFFFFFFFFFFFFFFFFFFF AND DUP2 PUSH20 0xFFFFFFFFFFFFFFFFFFFFFFFFFFFFFFFFFFFFFFFF AND PUSH32 0x8BE0079C531659141344CD1FD0A4F28419497F9722A3DAAFE3B4186F6B6457E0 PUSH1 0x40 MLOAD PUSH1 0x40 MLOAD DUP1 SWAP2 SUB SWAP1 LOG3 POP POP JUMP JUMPDEST PUSH0 PUSH4 0x5F5E100 TIMESTAMP PREVRANDAO PUSH1 0x9 SLOAD PUSH1 0x40 MLOAD PUSH1 0x20 ADD PUSH2 0x1E3F SWAP4 SWAP3 SWAP2 SWAP1 PUSH2 0x3F91 JUMP JUMPDEST PUSH1 0x40 MLOAD PUSH1 0x20 DUP2 DUP4 SUB SUB DUP2 MSTORE SWAP1 PUSH1 0x40 MSTORE DUP1 MLOAD SWAP1 PUSH1 0x20 ADD KECCAK256 PUSH0 SHR PUSH2 0x1E61 SWAP2 SWAP1 PUSH2 0x3FFA JUMP JUMPDEST SWAP1 POP SWAP1 JUMP JUMPDEST PUSH2 0x1E7F DUP3 DUP3 PUSH1 0x40 MLOAD DUP1 PUSH1 0x20 ADD PUSH1 0x40 MSTORE DUP1 PUSH0 DUP2 MSTORE POP PUSH2 0x22F9 JUMP JUMPDEST POP POP JUMP JUMPDEST PUSH2 0x1E8C DUP3 PUSH2 0x19FC JUMP JUMPDEST PUSH2 0x1ECB JUMPI PUSH1 0x40 MLOAD PUSH32 0x8C379A000000000000000000000000000000000000000000000000000000000 DUP2 MSTORE PUSH1 0x4 ADD PUSH2 0x1EC2 SWAP1 PUSH2 0x409A JUMP JUMPDEST PUSH1 0x40 MLOAD DUP1 SWAP2 SUB SWAP1 REVERT JUMPDEST DUP1 PUSH1 0x6 PUSH0 DUP5 DUP2 MSTORE PUSH1 0x20 ADD SWAP1 DUP2 MSTORE PUSH1 0x20 ADD PUSH0 KECCAK256 SWAP1 DUP2 PUSH2 0x1EE9 SWAP2 SWAP1 PUSH2 0x3BCF JUMP JUMPDEST POP POP POP JUMP JUMPDEST DUP2 PUSH20 0xFFFFFFFFFFFFFFFFFFFFFFFFFFFFFFFFFFFFFFFF AND DUP4 PUSH20 0xFFFFFFFFFFFFFFFFFFFFFFFFFFFFFFFFFFFFFFFF AND SUB PUSH2 0x1F5C JUMPI PUSH1 0x40 MLOAD PUSH32 0x8C379A000000000000000000000000000000000000000000000000000000000 DUP2 MSTORE PUSH1 0x4 ADD PUSH2 0x1F53 SWAP1 PUSH2 0x4102 JUMP JUMPDEST PUSH1 0x40 MLOAD DUP1 SWAP2 SUB SWAP1 REVERT JUMPDEST DUP1 PUSH1 0x5 PUSH0 DUP6 PUSH20 0xFFFFFFFFFFFFFFFFFFFFFFFFFFFFFFFFFFFFFFFF AND PUSH20 0xFFFFFFFFFFFFFFFFFFFFFFFFFFFFFFFFFFFFFFFF AND DUP2 MSTORE PUSH1 0x20 ADD SWAP1 DUP2 MSTORE PUSH1 0x20 ADD PUSH0 KECCAK256 PUSH0 DUP5 PUSH20 0xFFFFFFFFFFFFFFFFFFFFFFFFFFFFFFFFFFFFFFFF AND PUSH20 0xFFFFFFFFFFFFFFFFFFFFFFFFFFFFFFFFFFFFFFFF AND DUP2 MSTORE PUSH1 0x20 ADD SWAP1 DUP2 MSTORE PUSH1 0x20 ADD PUSH0 KECCAK256 PUSH0 PUSH2 0x100 EXP DUP2 SLOAD DUP2 PUSH1 0xFF MUL NOT AND SWAP1 DUP4 ISZERO ISZERO MUL OR SWAP1 SSTORE POP DUP2 PUSH20 0xFFFFFFFFFFFFFFFFFFFFFFFFFFFFFFFFFFFFFFFF AND DUP4 PUSH20 0xFFFFFFFFFFFFFFFFFFFFFFFFFFFFFFFFFFFFFFFF AND PUSH32 0x17307EAB39AB6107E8899845AD3D59BD9653F200F220920489CA2B5937696C31 DUP4 PUSH1 0x40 MLOAD PUSH2 0x2048 SWAP2 SWAP1 PUSH2 0x2B0E JUMP JUMPDEST PUSH1 0x40 MLOAD DUP1 SWAP2 SUB SWAP1 LOG3 POP POP POP JUMP JUMPDEST PUSH2 0x2060 DUP5 DUP5 DUP5 PUSH2 0x1B04 JUMP JUMPDEST PUSH2 0x206C DUP5 DUP5 DUP5 DUP5 PUSH2 0x2353 JUMP JUMPDEST PUSH2 0x20AB JUMPI PUSH1 0x40 MLOAD PUSH32 0x8C379A000000000000000000000000000000000000000000000000000000000 DUP2 MSTORE PUSH1 0x4 ADD PUSH2 0x20A2 SWAP1 PUSH2 0x4190 JUMP JUMPDEST PUSH1 0x40 MLOAD DUP1 SWAP2 SUB SWAP1 REVERT JUMPDEST POP POP POP POP JUMP JUMPDEST PUSH1 0x60 PUSH2 0x20BC DUP3 PUSH2 0x1876 JUMP JUMPDEST PUSH0 PUSH1 0x6 PUSH0 DUP5 DUP2 MSTORE PUSH1 0x20 ADD SWAP1 DUP2 MSTORE PUSH1 0x20 ADD PUSH0 KECCAK256 DUP1 SLOAD PUSH2 0x20D9 SWAP1 PUSH2 0x34DE JUMP JUMPDEST DUP1 PUSH1 0x1F ADD PUSH1 0x20 DUP1 SWAP2 DIV MUL PUSH1 0x20 ADD PUSH1 0x40 MLOAD SWAP1 DUP2 ADD PUSH1 0x40 MSTORE DUP1 SWAP3 SWAP2 SWAP1 DUP2 DUP2 MSTORE PUSH1 0x20 ADD DUP3 DUP1 SLOAD PUSH2 0x2105 SWAP1 PUSH2 0x34DE JUMP JUMPDEST DUP1 ISZERO PUSH2 0x2150 JUMPI DUP1 PUSH1 0x1F LT PUSH2 0x2127 JUMPI PUSH2 0x100 DUP1 DUP4 SLOAD DIV MUL DUP4 MSTORE SWAP2 PUSH1 0x20 ADD SWAP2 PUSH2 0x2150 JUMP JUMPDEST DUP3 ADD SWAP2 SWAP1 PUSH0 MSTORE PUSH1 0x20 PUSH0 KECCAK256 SWAP1 JUMPDEST DUP2 SLOAD DUP2 MSTORE SWAP1 PUSH1 0x1 ADD SWAP1 PUSH1 0x20 ADD DUP1 DUP4 GT PUSH2 0x2133 JUMPI DUP3 SWAP1 SUB PUSH1 0x1F AND DUP3 ADD SWAP2 JUMPDEST POP POP POP POP POP SWAP1 POP PUSH0 PUSH2 0x2160 PUSH2 0x24D5 JUMP JUMPDEST SWAP1 POP PUSH0 DUP2 MLOAD SUB PUSH2 0x2174 JUMPI DUP2 SWAP3 POP POP POP PUSH2 0x21B6 JUMP JUMPDEST PUSH0 DUP3 MLOAD GT ISZERO PUSH2 0x21A8 JUMPI DUP1 DUP3 PUSH1 0x40 MLOAD PUSH1 0x20 ADD PUSH2 0x2190 SWAP3 SWAP2 SWAP1 PUSH2 0x41E8 JUMP JUMPDEST PUSH1 0x40 MLOAD PUSH1 0x20 DUP2 DUP4 SUB SUB DUP2 MSTORE SWAP1 PUSH1 0x40 MSTORE SWAP3 POP POP POP PUSH2 0x21B6 JUMP JUMPDEST PUSH2 0x21B1 DUP5 PUSH2 0x24EB JUMP JUMPDEST SWAP3 POP POP POP JUMPDEST SWAP2 SWAP1 POP JUMP JUMPDEST PUSH2 0x21C4 DUP2 PUSH2 0x2550 JUMP JUMPDEST PUSH0 PUSH1 0x6 PUSH0 DUP4 DUP2 MSTORE PUSH1 0x20 ADD SWAP1 DUP2 MSTORE PUSH1 0x20 ADD PUSH0 KECCAK256 DUP1 SLOAD PUSH2 0x21E1 SWAP1 PUSH2 0x34DE JUMP JUMPDEST SWAP1 POP EQ PUSH2 0x2205 JUMPI PUSH1 0x6 PUSH0 DUP3 DUP2 MSTORE PUSH1 0x20 ADD SWAP1 DUP2 MSTORE PUSH1 0x20 ADD PUSH0 KECCAK256 PUSH0 PUSH2 0x2204 SWAP2 SWAP1 PUSH2 0x29B1 JUMP JUMPDEST JUMPDEST POP JUMP JUMPDEST PUSH0 PUSH20 0xFFFFFFFFFFFFFFFFFFFFFFFFFFFFFFFFFFFFFFFF AND DUP4 PUSH20 0xFFFFFFFFFFFFFFFFFFFFFFFFFFFFFFFFFFFFFFFF AND EQ ISZERO DUP1 ISZERO PUSH2 0x2270 JUMPI POP PUSH0 PUSH20 0xFFFFFFFFFFFFFFFFFFFFFFFFFFFFFFFFFFFFFFFF AND DUP3 PUSH20 0xFFFFFFFFFFFFFFFFFFFFFFFFFFFFFFFFFFFFFFFF AND EQ ISZERO JUMPDEST ISZERO PUSH2 0x22E4 JUMPI PUSH0 PUSH20 0xFFFFFFFFFFFFFFFFFFFFFFFFFFFFFFFFFFFFFFFF AND DUP4 PUSH20 0xFFFFFFFFFFFFFFFFFFFFFFFFFFFFFFFFFFFFFFFF AND EQ PUSH2 0x22E3 JUMPI PUSH1 0x40 MLOAD PUSH32 0x8C379A000000000000000000000000000000000000000000000000000000000 DUP2 MSTORE PUSH1 0x4 ADD PUSH2 0x22DA SWAP1 PUSH2 0x427B JUMP JUMPDEST PUSH1 0x40 MLOAD DUP1 SWAP2 SUB SWAP1 REVERT JUMPDEST JUMPDEST PUSH2 0x22EF DUP4 DUP4 DUP4 PUSH2 0x2662 JUMP JUMPDEST POP POP POP JUMP JUMPDEST POP POP POP JUMP JUMPDEST PUSH2 0x2303 DUP4 DUP4 PUSH2 0x2667 JUMP JUMPDEST PUSH2 0x230F PUSH0 DUP5 DUP5 DUP5 PUSH2 0x2353 JUMP JUMPDEST PUSH2 0x234E JUMPI PUSH1 0x40 MLOAD PUSH32 0x8C379A000000000000000000000000000000000000000000000000000000000 DUP2 MSTORE PUSH1 0x4 ADD PUSH2 0x2345 SWAP1 PUSH2 0x4190 JUMP JUMPDEST PUSH1 0x40 MLOAD DUP1 SWAP2 SUB SWAP1 REVERT JUMPDEST POP POP POP JUMP JUMPDEST PUSH0 PUSH2 0x2373 DUP5 PUSH20 0xFFFFFFFFFFFFFFFFFFFFFFFFFFFFFFFFFFFFFFFF AND PUSH2 0x2836 JUMP JUMPDEST ISZERO PUSH2 0x24C8 JUMPI DUP4 PUSH20 0xFFFFFFFFFFFFFFFFFFFFFFFFFFFFFFFFFFFFFFFF AND PUSH4 0x150B7A02 PUSH2 0x239C PUSH2 0x18C1 JUMP JUMPDEST DUP8 DUP7 DUP7 PUSH1 0x40 MLOAD DUP6 PUSH4 0xFFFFFFFF AND PUSH1 0xE0 SHL DUP2 MSTORE PUSH1 0x4 ADD PUSH2 0x23BE SWAP5 SWAP4 SWAP3 SWAP2 SWAP1 PUSH2 0x42EB JUMP JUMPDEST PUSH1 0x20 PUSH1 0x40 MLOAD DUP1 DUP4 SUB DUP2 PUSH0 DUP8 GAS CALL SWAP3 POP POP POP DUP1 ISZERO PUSH2 0x23F9 JUMPI POP PUSH1 0x40 MLOAD RETURNDATASIZE PUSH1 0x1F NOT PUSH1 0x1F DUP3 ADD AND DUP3 ADD DUP1 PUSH1 0x40 MSTORE POP DUP2 ADD SWAP1 PUSH2 0x23F6 SWAP2 SWAP1 PUSH2 0x4349 JUMP JUMPDEST PUSH1 0x1 JUMPDEST PUSH2 0x2478 JUMPI RETURNDATASIZE DUP1 PUSH0 DUP2 EQ PUSH2 0x2427 JUMPI PUSH1 0x40 MLOAD SWAP2 POP PUSH1 0x1F NOT PUSH1 0x3F RETURNDATASIZE ADD AND DUP3 ADD PUSH1 0x40 MSTORE RETURNDATASIZE DUP3 MSTORE RETURNDATASIZE PUSH0 PUSH1 0x20 DUP5 ADD RETURNDATACOPY PUSH2 0x242C JUMP JUMPDEST PUSH1 0x60 SWAP2 POP JUMPDEST POP PUSH0 DUP2 MLOAD SUB PUSH2 0x2470 JUMPI PUSH1 0x40 MLOAD PUSH32 0x8C379A000000000000000000000000000000000000000000000000000000000 DUP2 MSTORE PUSH1 0x4 ADD PUSH2 0x2467 SWAP1 PUSH2 0x4190 JUMP JUMPDEST PUSH1 0x40 MLOAD DUP1 SWAP2 SUB SWAP1 REVERT JUMPDEST DUP1 MLOAD DUP2 PUSH1 0x20 ADD REVERT JUMPDEST PUSH4 0x150B7A02 PUSH1 0xE0 SHL PUSH28 0xFFFFFFFFFFFFFFFFFFFFFFFFFFFFFFFFFFFFFFFFFFFFFFFFFFFFFFFF NOT AND DUP2 PUSH28 0xFFFFFFFFFFFFFFFFFFFFFFFFFFFFFFFFFFFFFFFFFFFFFFFFFFFFFFFF NOT AND EQ SWAP2 POP POP PUSH2 0x24CD JUMP JUMPDEST PUSH1 0x1 SWAP1 POP JUMPDEST SWAP5 SWAP4 POP POP POP POP JUMP JUMPDEST PUSH1 0x60 PUSH1 0x40 MLOAD DUP1 PUSH1 0x20 ADD PUSH1 0x40 MSTORE DUP1 PUSH0 DUP2 MSTORE POP SWAP1 POP SWAP1 JUMP JUMPDEST PUSH1 0x60 PUSH2 0x24F6 DUP3 PUSH2 0x1876 JUMP JUMPDEST PUSH0 PUSH2 0x24FF PUSH2 0x24D5 JUMP JUMPDEST SWAP1 POP PUSH0 DUP2 MLOAD GT PUSH2 0x251D JUMPI PUSH1 0x40 MLOAD DUP1 PUSH1 0x20 ADD PUSH1 0x40 MSTORE DUP1 PUSH0 DUP2 MSTORE POP PUSH2 0x2548 JUMP JUMPDEST DUP1 PUSH2 0x2527 DUP5 PUSH2 0x2858 JUMP JUMPDEST PUSH1 0x40 MLOAD PUSH1 0x20 ADD PUSH2 0x2538 SWAP3 SWAP2 SWAP1 PUSH2 0x41E8 JUMP JUMPDEST PUSH1 0x40 MLOAD PUSH1 0x20 DUP2 DUP4 SUB SUB DUP2 MSTORE SWAP1 PUSH1 0x40 MSTORE JUMPDEST SWAP2 POP POP SWAP2 SWAP1 POP JUMP JUMPDEST PUSH0 PUSH2 0x255A DUP3 PUSH2 0xE5C JUMP JUMPDEST SWAP1 POP PUSH2 0x2567 DUP2 PUSH0 DUP5 PUSH2 0x2208 JUMP JUMPDEST PUSH2 0x2571 PUSH0 DUP4 PUSH2 0x18C8 JUMP JUMPDEST PUSH1 0x1 PUSH1 0x3 PUSH0 DUP4 PUSH20 0xFFFFFFFFFFFFFFFFFFFFFFFFFFFFFFFFFFFFFFFF AND PUSH20 0xFFFFFFFFFFFFFFFFFFFFFFFFFFFFFFFFFFFFFFFF AND DUP2 MSTORE PUSH1 0x20 ADD SWAP1 DUP2 MSTORE PUSH1 0x20 ADD PUSH0 KECCAK256 PUSH0 DUP3 DUP3 SLOAD PUSH2 0x25BE SWAP2 SWAP1 PUSH2 0x3754 JUMP JUMPDEST SWAP3 POP POP DUP2 SWAP1 SSTORE POP PUSH1 0x2 PUSH0 DUP4 DUP2 MSTORE PUSH1 0x20 ADD SWAP1 DUP2 MSTORE PUSH1 0x20 ADD PUSH0 KECCAK256 PUSH0 PUSH2 0x100 EXP DUP2 SLOAD SWAP1 PUSH20 0xFFFFFFFFFFFFFFFFFFFFFFFFFFFFFFFFFFFFFFFF MUL NOT AND SWAP1 SSTORE DUP2 PUSH0 PUSH20 0xFFFFFFFFFFFFFFFFFFFFFFFFFFFFFFFFFFFFFFFF AND DUP3 PUSH20 0xFFFFFFFFFFFFFFFFFFFFFFFFFFFFFFFFFFFFFFFF AND PUSH32 0xDDF252AD1BE2C89B69C2B068FC378DAA952BA7F163C4A11628F55A4DF523B3EF PUSH1 0x40 MLOAD PUSH1 0x40 MLOAD DUP1 SWAP2 SUB SWAP1 LOG4 PUSH2 0x265E DUP2 PUSH0 DUP5 PUSH2 0x22F4 JUMP JUMPDEST POP POP JUMP JUMPDEST POP POP POP JUMP JUMPDEST PUSH0 PUSH20 0xFFFFFFFFFFFFFFFFFFFFFFFFFFFFFFFFFFFFFFFF AND DUP3 PUSH20 0xFFFFFFFFFFFFFFFFFFFFFFFFFFFFFFFFFFFFFFFF AND SUB PUSH2 0x26D5 JUMPI PUSH1 0x40 MLOAD PUSH32 0x8C379A000000000000000000000000000000000000000000000000000000000 DUP2 MSTORE PUSH1 0x4 ADD PUSH2 0x26CC SWAP1 PUSH2 0x43BE JUMP JUMPDEST PUSH1 0x40 MLOAD DUP1 SWAP2 SUB SWAP1 REVERT JUMPDEST PUSH2 0x26DE DUP2 PUSH2 0x19FC JUMP JUMPDEST ISZERO PUSH2 0x271E JUMPI PUSH1 0x40 MLOAD PUSH32 0x8C379A000000000000000000000000000000000000000000000000000000000 DUP2 MSTORE PUSH1 0x4 ADD PUSH2 0x2715 SWAP1 PUSH2 0x4426 JUMP JUMPDEST PUSH1 0x40 MLOAD DUP1 SWAP2 SUB SWAP1 REVERT JUMPDEST PUSH2 0x2729 PUSH0 DUP4 DUP4 PUSH2 0x2208 JUMP JUMPDEST PUSH1 0x1 PUSH1 0x3 PUSH0 DUP5 PUSH20 0xFFFFFFFFFFFFFFFFFFFFFFFFFFFFFFFFFFFFFFFF AND PUSH20 0xFFFFFFFFFFFFFFFFFFFFFFFFFFFFFFFFFFFFFFFF AND DUP2 MSTORE PUSH1 0x20 ADD SWAP1 DUP2 MSTORE PUSH1 0x20 ADD PUSH0 KECCAK256 PUSH0 DUP3 DUP3 SLOAD PUSH2 0x2776 SWAP2 SWAP1 PUSH2 0x3F3E JUMP JUMPDEST SWAP3 POP POP DUP2 SWAP1 SSTORE POP DUP2 PUSH1 0x2 PUSH0 DUP4 DUP2 MSTORE PUSH1 0x20 ADD SWAP1 DUP2 MSTORE PUSH1 0x20 ADD PUSH0 KECCAK256 PUSH0 PUSH2 0x100 EXP DUP2 SLOAD DUP2 PUSH20 0xFFFFFFFFFFFFFFFFFFFFFFFFFFFFFFFFFFFFFFFF MUL NOT AND SWAP1 DUP4 PUSH20 0xFFFFFFFFFFFFFFFFFFFFFFFFFFFFFFFFFFFFFFFF AND MUL OR SWAP1 SSTORE POP DUP1 DUP3 PUSH20 0xFFFFFFFFFFFFFFFFFFFFFFFFFFFFFFFFFFFFFFFF AND PUSH0 PUSH20 0xFFFFFFFFFFFFFFFFFFFFFFFFFFFFFFFFFFFFFFFF AND PUSH32 0xDDF252AD1BE2C89B69C2B068FC378DAA952BA7F163C4A11628F55A4DF523B3EF PUSH1 0x40 MLOAD PUSH1 0x40 MLOAD DUP1 SWAP2 SUB SWAP1 LOG4 PUSH2 0x2832 PUSH0 DUP4 DUP4 PUSH2 0x22F4 JUMP JUMPDEST POP POP JUMP JUMPDEST PUSH0 DUP1 DUP3 PUSH20 0xFFFFFFFFFFFFFFFFFFFFFFFFFFFFFFFFFFFFFFFF AND EXTCODESIZE GT SWAP1 POP SWAP2 SWAP1 POP JUMP JUMPDEST PUSH1 0x60 PUSH0 DUP3 SUB PUSH2 0x289E JUMPI PUSH1 0x40 MLOAD DUP1 PUSH1 0x40 ADD PUSH1 0x40 MSTORE DUP1 PUSH1 0x1 DUP2 MSTORE PUSH1 0x20 ADD PUSH32 0x3000000000000000000000000000000000000000000000000000000000000000 DUP2 MSTORE POP SWAP1 POP PUSH2 0x29AC JUMP JUMPDEST PUSH0 DUP3 SWAP1 POP PUSH0 JUMPDEST PUSH0 DUP3 EQ PUSH2 0x28CD JUMPI DUP1 DUP1 PUSH2 0x28B6 SWAP1 PUSH2 0x4444 JUMP JUMPDEST SWAP2 POP POP PUSH1 0xA DUP3 PUSH2 0x28C6 SWAP2 SWAP1 PUSH2 0x448B JUMP JUMPDEST SWAP2 POP PUSH2 0x28A4 JUMP JUMPDEST PUSH0 DUP2 PUSH8 0xFFFFFFFFFFFFFFFF DUP2 GT ISZERO PUSH2 0x28E8 JUMPI PUSH2 0x28E7 PUSH2 0x2FE6 JUMP JUMPDEST JUMPDEST PUSH1 0x40 MLOAD SWAP1 DUP1 DUP3 MSTORE DUP1 PUSH1 0x1F ADD PUSH1 0x1F NOT AND PUSH1 0x20 ADD DUP3 ADD PUSH1 0x40 MSTORE DUP1 ISZERO PUSH2 0x291A JUMPI DUP2 PUSH1 0x20 ADD PUSH1 0x1 DUP3 MUL DUP1 CALLDATASIZE DUP4 CALLDATACOPY DUP1 DUP3 ADD SWAP2 POP POP SWAP1 POP JUMPDEST POP SWAP1 POP JUMPDEST PUSH0 DUP6 EQ PUSH2 0x29A5 JUMPI PUSH1 0x1 DUP3 PUSH2 0x2932 SWAP2 SWAP1 PUSH2 0x3754 JUMP JUMPDEST SWAP2 POP PUSH1 0xA DUP6 PUSH2 0x2941 SWAP2 SWAP1 PUSH2 0x3FFA JUMP JUMPDEST PUSH1 0x30 PUSH2 0x294D SWAP2 SWAP1 PUSH2 0x3F3E JUMP JUMPDEST PUSH1 0xF8 SHL DUP2 DUP4 DUP2 MLOAD DUP2 LT PUSH2 0x2963 JUMPI PUSH2 0x2962 PUSH2 0x36FA JUMP JUMPDEST JUMPDEST PUSH1 0x20 ADD ADD SWAP1 PUSH31 0xFFFFFFFFFFFFFFFFFFFFFFFFFFFFFFFFFFFFFFFFFFFFFFFFFFFFFFFFFFFFFF NOT AND SWAP1 DUP2 PUSH0 BYTE SWAP1 MSTORE8 POP PUSH1 0xA DUP6 PUSH2 0x299E SWAP2 SWAP1 PUSH2 0x448B JUMP JUMPDEST SWAP5 POP PUSH2 0x291E JUMP JUMPDEST DUP1 SWAP4 POP POP POP POP JUMPDEST SWAP2 SWAP1 POP JUMP JUMPDEST POP DUP1 SLOAD PUSH2 0x29BD SWAP1 PUSH2 0x34DE JUMP JUMPDEST PUSH0 DUP3 SSTORE DUP1 PUSH1 0x1F LT PUSH2 0x29CE JUMPI POP PUSH2 0x29EB JUMP JUMPDEST PUSH1 0x1F ADD PUSH1 0x20 SWAP1 DIV SWAP1 PUSH0 MSTORE PUSH1 0x20 PUSH0 KECCAK256 SWAP1 DUP2 ADD SWAP1 PUSH2 0x29EA SWAP2 SWAP1 PUSH2 0x2A48 JUMP JUMPDEST JUMPDEST POP JUMP JUMPDEST PUSH1 0x40 MLOAD DUP1 PUSH1 0xE0 ADD PUSH1 0x40 MSTORE DUP1 PUSH0 PUSH8 0xFFFFFFFFFFFFFFFF AND DUP2 MSTORE PUSH1 0x20 ADD PUSH0 PUSH20 0xFFFFFFFFFFFFFFFFFFFFFFFFFFFFFFFFFFFFFFFF AND DUP2 MSTORE PUSH1 0x20 ADD PUSH1 0x60 DUP2 MSTORE PUSH1 0x20 ADD PUSH1 0x60 DUP2 MSTORE PUSH1 0x20 ADD PUSH1 0x60 DUP2 MSTORE PUSH1 0x20 ADD PUSH1 0x60 DUP2 MSTORE PUSH1 0x20 ADD PUSH0 DUP2 MSTORE POP SWAP1 JUMP JUMPDEST JUMPDEST DUP1 DUP3 GT ISZERO PUSH2 0x2A5F JUMPI PUSH0 DUP2 PUSH0 SWAP1 SSTORE POP PUSH1 0x1 ADD PUSH2 0x2A49 JUMP JUMPDEST POP SWAP1 JUMP JUMPDEST PUSH0 PUSH1 0x40 MLOAD SWAP1 POP SWAP1 JUMP JUMPDEST PUSH0 DUP1 REVERT JUMPDEST PUSH0 DUP1 REVERT JUMPDEST PUSH0 PUSH32 0xFFFFFFFF00000000000000000000000000000000000000000000000000000000 DUP3 AND SWAP1 POP SWAP2 SWAP1 POP JUMP JUMPDEST PUSH2 0x2AA8 DUP2 PUSH2 0x2A74 JUMP JUMPDEST DUP2 EQ PUSH2 0x2AB2 JUMPI PUSH0 DUP1 REVERT JUMPDEST POP JUMP JUMPDEST PUSH0 DUP2 CALLDATALOAD SWAP1 POP PUSH2 0x2AC3 DUP2 PUSH2 0x2A9F JUMP JUMPDEST SWAP3 SWAP2 POP POP JUMP JUMPDEST PUSH0 PUSH1 0x20 DUP3 DUP5 SUB SLT ISZERO PUSH2 0x2ADE JUMPI PUSH2 0x2ADD PUSH2 0x2A6C JUMP JUMPDEST JUMPDEST PUSH0 PUSH2 0x2AEB DUP5 DUP3 DUP6 ADD PUSH2 0x2AB5 JUMP JUMPDEST SWAP2 POP POP SWAP3 SWAP2 POP POP JUMP JUMPDEST PUSH0 DUP2 ISZERO ISZERO SWAP1 POP SWAP2 SWAP1 POP JUMP JUMPDEST PUSH2 0x2B08 DUP2 PUSH2 0x2AF4 JUMP JUMPDEST DUP3 MSTORE POP POP JUMP JUMPDEST PUSH0 PUSH1 0x20 DUP3 ADD SWAP1 POP PUSH2 0x2B21 PUSH0 DUP4 ADD DUP5 PUSH2 0x2AFF JUMP JUMPDEST SWAP3 SWAP2 POP POP JUMP JUMPDEST PUSH0 DUP2 MLOAD SWAP1 POP SWAP2 SWAP1 POP JUMP JUMPDEST PUSH0 DUP3 DUP3 MSTORE PUSH1 0x20 DUP3 ADD SWAP1 POP SWAP3 SWAP2 POP POP JUMP JUMPDEST DUP3 DUP2 DUP4 MCOPY PUSH0 DUP4 DUP4 ADD MSTORE POP POP POP JUMP JUMPDEST PUSH0 PUSH1 0x1F NOT PUSH1 0x1F DUP4 ADD AND SWAP1 POP SWAP2 SWAP1 POP JUMP JUMPDEST PUSH0 PUSH2 0x2B69 DUP3 PUSH2 0x2B27 JUMP JUMPDEST PUSH2 0x2B73 DUP2 DUP6 PUSH2 0x2B31 JUMP JUMPDEST SWAP4 POP PUSH2 0x2B83 DUP2 DUP6 PUSH1 0x20 DUP7 ADD PUSH2 0x2B41 JUMP JUMPDEST PUSH2 0x2B8C DUP2 PUSH2 0x2B4F JUMP JUMPDEST DUP5 ADD SWAP2 POP POP SWAP3 SWAP2 POP POP JUMP JUMPDEST PUSH0 PUSH1 0x20 DUP3 ADD SWAP1 POP DUP2 DUP2 SUB PUSH0 DUP4 ADD MSTORE PUSH2 0x2BAF DUP2 DUP5 PUSH2 0x2B5F JUMP JUMPDEST SWAP1 POP SWAP3 SWAP2 POP POP JUMP JUMPDEST PUSH0 DUP2 SWAP1 POP SWAP2 SWAP1 POP JUMP JUMPDEST PUSH2 0x2BC9 DUP2 PUSH2 0x2BB7 JUMP JUMPDEST DUP2 EQ PUSH2 0x2BD3 JUMPI PUSH0 DUP1 REVERT JUMPDEST POP JUMP JUMPDEST PUSH0 DUP2 CALLDATALOAD SWAP1 POP PUSH2 0x2BE4 DUP2 PUSH2 0x2BC0 JUMP JUMPDEST SWAP3 SWAP2 POP POP JUMP JUMPDEST PUSH0 PUSH1 0x20 DUP3 DUP5 SUB SLT ISZERO PUSH2 0x2BFF JUMPI PUSH2 0x2BFE PUSH2 0x2A6C JUMP JUMPDEST JUMPDEST PUSH0 PUSH2 0x2C0C DUP5 DUP3 DUP6 ADD PUSH2 0x2BD6 JUMP JUMPDEST SWAP2 POP POP SWAP3 SWAP2 POP POP JUMP JUMPDEST PUSH0 PUSH20 0xFFFFFFFFFFFFFFFFFFFFFFFFFFFFFFFFFFFFFFFF DUP3 AND SWAP1 POP SWAP2 SWAP1 POP JUMP JUMPDEST PUSH0 PUSH2 0x2C3E DUP3 PUSH2 0x2C15 JUMP JUMPDEST SWAP1 POP SWAP2 SWAP1 POP JUMP JUMPDEST PUSH2 0x2C4E DUP2 PUSH2 0x2C34 JUMP JUMPDEST DUP3 MSTORE POP POP JUMP JUMPDEST PUSH0 PUSH1 0x20 DUP3 ADD SWAP1 POP PUSH2 0x2C67 PUSH0 DUP4 ADD DUP5 PUSH2 0x2C45 JUMP JUMPDEST SWAP3 SWAP2 POP POP JUMP JUMPDEST PUSH2 0x2C76 DUP2 PUSH2 0x2C34 JUMP JUMPDEST DUP2 EQ PUSH2 0x2C80 JUMPI PUSH0 DUP1 REVERT JUMPDEST POP JUMP JUMPDEST PUSH0 DUP2 CALLDATALOAD SWAP1 POP PUSH2 0x2C91 DUP2 PUSH2 0x2C6D JUMP JUMPDEST SWAP3 SWAP2 POP POP JUMP JUMPDEST PUSH0 DUP1 PUSH1 0x40 DUP4 DUP6 SUB SLT ISZERO PUSH2 0x2CAD JUMPI PUSH2 0x2CAC PUSH2 0x2A6C JUMP JUMPDEST JUMPDEST PUSH0 PUSH2 0x2CBA DUP6 DUP3 DUP7 ADD PUSH2 0x2C83 JUMP JUMPDEST SWAP3 POP POP PUSH1 0x20 PUSH2 0x2CCB DUP6 DUP3 DUP7 ADD PUSH2 0x2BD6 JUMP JUMPDEST SWAP2 POP POP SWAP3 POP SWAP3 SWAP1 POP JUMP JUMPDEST PUSH0 DUP2 MLOAD SWAP1 POP SWAP2 SWAP1 POP JUMP JUMPDEST PUSH0 DUP3 DUP3 MSTORE PUSH1 0x20 DUP3 ADD SWAP1 POP SWAP3 SWAP2 POP POP JUMP JUMPDEST PUSH0 DUP2 SWAP1 POP PUSH1 0x20 DUP3 ADD SWAP1 POP SWAP2 SWAP1 POP JUMP JUMPDEST PUSH0 PUSH8 0xFFFFFFFFFFFFFFFF DUP3 AND SWAP1 POP SWAP2 SWAP1 POP JUMP JUMPDEST PUSH2 0x2D1A DUP2 PUSH2 0x2CFE JUMP JUMPDEST DUP3 MSTORE POP POP JUMP JUMPDEST PUSH2 0x2D29 DUP2 PUSH2 0x2C34 JUMP JUMPDEST DUP3 MSTORE POP POP JUMP JUMPDEST PUSH0 DUP3 DUP3 MSTORE PUSH1 0x20 DUP3 ADD SWAP1 POP SWAP3 SWAP2 POP POP JUMP JUMPDEST PUSH0 PUSH2 0x2D49 DUP3 PUSH2 0x2B27 JUMP JUMPDEST PUSH2 0x2D53 DUP2 DUP6 PUSH2 0x2D2F JUMP JUMPDEST SWAP4 POP PUSH2 0x2D63 DUP2 DUP6 PUSH1 0x20 DUP7 ADD PUSH2 0x2B41 JUMP JUMPDEST PUSH2 0x2D6C DUP2 PUSH2 0x2B4F JUMP JUMPDEST DUP5 ADD SWAP2 POP POP SWAP3 SWAP2 POP POP JUMP JUMPDEST PUSH2 0x2D80 DUP2 PUSH2 0x2BB7 JUMP JUMPDEST DUP3 MSTORE POP POP JUMP JUMPDEST PUSH0 PUSH1 0xE0 DUP4 ADD PUSH0 DUP4 ADD MLOAD PUSH2 0x2D9B PUSH0 DUP7 ADD DUP3 PUSH2 0x2D11 JUMP JUMPDEST POP PUSH1 0x20 DUP4 ADD MLOAD PUSH2 0x2DAE PUSH1 0x20 DUP7 ADD DUP3 PUSH2 0x2D20 JUMP JUMPDEST POP PUSH1 0x40 DUP4 ADD MLOAD DUP5 DUP3 SUB PUSH1 0x40 DUP7 ADD MSTORE PUSH2 0x2DC6 DUP3 DUP3 PUSH2 0x2D3F JUMP JUMPDEST SWAP2 POP POP PUSH1 0x60 DUP4 ADD MLOAD DUP5 DUP3 SUB PUSH1 0x60 DUP7 ADD MSTORE PUSH2 0x2DE0 DUP3 DUP3 PUSH2 0x2D3F JUMP JUMPDEST SWAP2 POP POP PUSH1 0x80 DUP4 ADD MLOAD DUP5 DUP3 SUB PUSH1 0x80 DUP7 ADD MSTORE PUSH2 0x2DFA DUP3 DUP3 PUSH2 0x2D3F JUMP JUMPDEST SWAP2 POP POP PUSH1 0xA0 DUP4 ADD MLOAD DUP5 DUP3 SUB PUSH1 0xA0 DUP7 ADD MSTORE PUSH2 0x2E14 DUP3 DUP3 PUSH2 0x2D3F JUMP JUMPDEST SWAP2 POP POP PUSH1 0xC0 DUP4 ADD MLOAD PUSH2 0x2E29 PUSH1 0xC0 DUP7 ADD DUP3 PUSH2 0x2D77 JUMP JUMPDEST POP DUP1 SWAP2 POP POP SWAP3 SWAP2 POP POP JUMP JUMPDEST PUSH0 PUSH2 0x2E3F DUP4 DUP4 PUSH2 0x2D86 JUMP JUMPDEST SWAP1 POP SWAP3 SWAP2 POP POP JUMP JUMPDEST PUSH0 PUSH1 0x20 DUP3 ADD SWAP1 POP SWAP2 SWAP1 POP JUMP JUMPDEST PUSH0 PUSH2 0x2E5D DUP3 PUSH2 0x2CD5 JUMP JUMPDEST PUSH2 0x2E67 DUP2 DUP6 PUSH2 0x2CDF JUMP JUMPDEST SWAP4 POP DUP4 PUSH1 0x20 DUP3 MUL DUP6 ADD PUSH2 0x2E79 DUP6 PUSH2 0x2CEF JUMP JUMPDEST DUP1 PUSH0 JUMPDEST DUP6 DUP2 LT ISZERO PUSH2 0x2EB4 JUMPI DUP5 DUP5 SUB DUP10 MSTORE DUP2 MLOAD PUSH2 0x2E95 DUP6 DUP3 PUSH2 0x2E34 JUMP JUMPDEST SWAP5 POP PUSH2 0x2EA0 DUP4 PUSH2 0x2E47 JUMP JUMPDEST SWAP3 POP PUSH1 0x20 DUP11 ADD SWAP10 POP POP PUSH1 0x1 DUP2 ADD SWAP1 POP PUSH2 0x2E7C JUMP JUMPDEST POP DUP3 SWAP8 POP DUP8 SWAP6 POP POP POP POP POP POP SWAP3 SWAP2 POP POP JUMP JUMPDEST PUSH0 PUSH1 0x20 DUP3 ADD SWAP1 POP DUP2 DUP2 SUB PUSH0 DUP4 ADD MSTORE PUSH2 0x2EDE DUP2 DUP5 PUSH2 0x2E53 JUMP JUMPDEST SWAP1 POP SWAP3 SWAP2 POP POP JUMP JUMPDEST PUSH2 0x2EEF DUP2 PUSH2 0x2CFE JUMP JUMPDEST DUP2 EQ PUSH2 0x2EF9 JUMPI PUSH0 DUP1 REVERT JUMPDEST POP JUMP JUMPDEST PUSH0 DUP2 CALLDATALOAD SWAP1 POP PUSH2 0x2F0A DUP2 PUSH2 0x2EE6 JUMP JUMPDEST SWAP3 SWAP2 POP POP JUMP JUMPDEST PUSH0 PUSH1 0x20 DUP3 DUP5 SUB SLT ISZERO PUSH2 0x2F25 JUMPI PUSH2 0x2F24 PUSH2 0x2A6C JUMP JUMPDEST JUMPDEST PUSH0 PUSH2 0x2F32 DUP5 DUP3 DUP6 ADD PUSH2 0x2EFC JUMP JUMPDEST SWAP2 POP POP SWAP3 SWAP2 POP POP JUMP JUMPDEST PUSH0 DUP1 PUSH0 PUSH1 0x60 DUP5 DUP7 SUB SLT ISZERO PUSH2 0x2F52 JUMPI PUSH2 0x2F51 PUSH2 0x2A6C JUMP JUMPDEST JUMPDEST PUSH0 PUSH2 0x2F5F DUP7 DUP3 DUP8 ADD PUSH2 0x2C83 JUMP JUMPDEST SWAP4 POP POP PUSH1 0x20 PUSH2 0x2F70 DUP7 DUP3 DUP8 ADD PUSH2 0x2C83 JUMP JUMPDEST SWAP3 POP POP PUSH1 0x40 PUSH2 0x2F81 DUP7 DUP3 DUP8 ADD PUSH2 0x2BD6 JUMP JUMPDEST SWAP2 POP POP SWAP3 POP SWAP3 POP SWAP3 JUMP JUMPDEST PUSH0 PUSH1 0x20 DUP3 DUP5 SUB SLT ISZERO PUSH2 0x2FA0 JUMPI PUSH2 0x2F9F PUSH2 0x2A6C JUMP JUMPDEST JUMPDEST PUSH0 PUSH2 0x2FAD DUP5 DUP3 DUP6 ADD PUSH2 0x2C83 JUMP JUMPDEST SWAP2 POP POP SWAP3 SWAP2 POP POP JUMP JUMPDEST PUSH2 0x2FBF DUP2 PUSH2 0x2BB7 JUMP JUMPDEST DUP3 MSTORE POP POP JUMP JUMPDEST PUSH0 PUSH1 0x20 DUP3 ADD SWAP1 POP PUSH2 0x2FD8 PUSH0 DUP4 ADD DUP5 PUSH2 0x2FB6 JUMP JUMPDEST SWAP3 SWAP2 POP POP JUMP JUMPDEST PUSH0 DUP1 REVERT JUMPDEST PUSH0 DUP1 REVERT JUMPDEST PUSH32 0x4E487B7100000000000000000000000000000000000000000000000000000000 PUSH0 MSTORE PUSH1 0x41 PUSH1 0x4 MSTORE PUSH1 0x24 PUSH0 REVERT JUMPDEST PUSH2 0x301C DUP3 PUSH2 0x2B4F JUMP JUMPDEST DUP2 ADD DUP2 DUP2 LT PUSH8 0xFFFFFFFFFFFFFFFF DUP3 GT OR ISZERO PUSH2 0x303B JUMPI PUSH2 0x303A PUSH2 0x2FE6 JUMP JUMPDEST JUMPDEST DUP1 PUSH1 0x40 MSTORE POP POP POP JUMP JUMPDEST PUSH0 PUSH2 0x304D PUSH2 0x2A63 JUMP JUMPDEST SWAP1 POP PUSH2 0x3059 DUP3 DUP3 PUSH2 0x3013 JUMP JUMPDEST SWAP2 SWAP1 POP JUMP JUMPDEST PUSH0 PUSH8 0xFFFFFFFFFFFFFFFF DUP3 GT ISZERO PUSH2 0x3078 JUMPI PUSH2 0x3077 PUSH2 0x2FE6 JUMP JUMPDEST JUMPDEST PUSH2 0x3081 DUP3 PUSH2 0x2B4F JUMP JUMPDEST SWAP1 POP PUSH1 0x20 DUP2 ADD SWAP1 POP SWAP2 SWAP1 POP JUMP JUMPDEST DUP3 DUP2 DUP4 CALLDATACOPY PUSH0 DUP4 DUP4 ADD MSTORE POP POP POP JUMP JUMPDEST PUSH0 PUSH2 0x30AE PUSH2 0x30A9 DUP5 PUSH2 0x305E JUMP JUMPDEST PUSH2 0x3044 JUMP JUMPDEST SWAP1 POP DUP3 DUP2 MSTORE PUSH1 0x20 DUP2 ADD DUP5 DUP5 DUP5 ADD GT ISZERO PUSH2 0x30CA JUMPI PUSH2 0x30C9 PUSH2 0x2FE2 JUMP JUMPDEST JUMPDEST PUSH2 0x30D5 DUP5 DUP3 DUP6 PUSH2 0x308E JUMP JUMPDEST POP SWAP4 SWAP3 POP POP POP JUMP JUMPDEST PUSH0 DUP3 PUSH1 0x1F DUP4 ADD SLT PUSH2 0x30F1 JUMPI PUSH2 0x30F0 PUSH2 0x2FDE JUMP JUMPDEST JUMPDEST DUP2 CALLDATALOAD PUSH2 0x3101 DUP5 DUP3 PUSH1 0x20 DUP7 ADD PUSH2 0x309C JUMP JUMPDEST SWAP2 POP POP SWAP3 SWAP2 POP POP JUMP JUMPDEST PUSH0 DUP1 PUSH0 DUP1 PUSH0 DUP1 PUSH1 0xC0 DUP8 DUP10 SUB SLT ISZERO PUSH2 0x3124 JUMPI PUSH2 0x3123 PUSH2 0x2A6C JUMP JUMPDEST JUMPDEST PUSH0 PUSH2 0x3131 DUP10 DUP3 DUP11 ADD PUSH2 0x2C83 JUMP JUMPDEST SWAP7 POP POP PUSH1 0x20 DUP8 ADD CALLDATALOAD PUSH8 0xFFFFFFFFFFFFFFFF DUP2 GT ISZERO PUSH2 0x3152 JUMPI PUSH2 0x3151 PUSH2 0x2A70 JUMP JUMPDEST JUMPDEST PUSH2 0x315E DUP10 DUP3 DUP11 ADD PUSH2 0x30DD JUMP JUMPDEST SWAP6 POP POP PUSH1 0x40 DUP8 ADD CALLDATALOAD PUSH8 0xFFFFFFFFFFFFFFFF DUP2 GT ISZERO PUSH2 0x317F JUMPI PUSH2 0x317E PUSH2 0x2A70 JUMP JUMPDEST JUMPDEST PUSH2 0x318B DUP10 DUP3 DUP11 ADD PUSH2 0x30DD JUMP JUMPDEST SWAP5 POP POP PUSH1 0x60 DUP8 ADD CALLDATALOAD PUSH8 0xFFFFFFFFFFFFFFFF DUP2 GT ISZERO PUSH2 0x31AC JUMPI PUSH2 0x31AB PUSH2 0x2A70 JUMP JUMPDEST JUMPDEST PUSH2 0x31B8 DUP10 DUP3 DUP11 ADD PUSH2 0x30DD JUMP JUMPDEST SWAP4 POP POP PUSH1 0x80 DUP8 ADD CALLDATALOAD PUSH8 0xFFFFFFFFFFFFFFFF DUP2 GT ISZERO PUSH2 0x31D9 JUMPI PUSH2 0x31D8 PUSH2 0x2A70 JUMP JUMPDEST JUMPDEST PUSH2 0x31E5 DUP10 DUP3 DUP11 ADD PUSH2 0x30DD JUMP JUMPDEST SWAP3 POP POP PUSH1 0xA0 DUP8 ADD CALLDATALOAD PUSH8 0xFFFFFFFFFFFFFFFF DUP2 GT ISZERO PUSH2 0x3206 JUMPI PUSH2 0x3205 PUSH2 0x2A70 JUMP JUMPDEST JUMPDEST PUSH2 0x3212 DUP10 DUP3 DUP11 ADD PUSH2 0x30DD JUMP JUMPDEST SWAP2 POP POP SWAP3 SWAP6 POP SWAP3 SWAP6 POP SWAP3 SWAP6 JUMP JUMPDEST PUSH2 0x3228 DUP2 PUSH2 0x2AF4 JUMP JUMPDEST DUP2 EQ PUSH2 0x3232 JUMPI PUSH0 DUP1 REVERT JUMPDEST POP JUMP JUMPDEST PUSH0 DUP2 CALLDATALOAD SWAP1 POP PUSH2 0x3243 DUP2 PUSH2 0x321F JUMP JUMPDEST SWAP3 SWAP2 POP POP JUMP JUMPDEST PUSH0 DUP1 PUSH1 0x40 DUP4 DUP6 SUB SLT ISZERO PUSH2 0x325F JUMPI PUSH2 0x325E PUSH2 0x2A6C JUMP JUMPDEST JUMPDEST PUSH0 PUSH2 0x326C DUP6 DUP3 DUP7 ADD PUSH2 0x2C83 JUMP JUMPDEST SWAP3 POP POP PUSH1 0x20 PUSH2 0x327D DUP6 DUP3 DUP7 ADD PUSH2 0x3235 JUMP JUMPDEST SWAP2 POP POP SWAP3 POP SWAP3 SWAP1 POP JUMP JUMPDEST PUSH0 PUSH8 0xFFFFFFFFFFFFFFFF DUP3 GT ISZERO PUSH2 0x32A1 JUMPI PUSH2 0x32A0 PUSH2 0x2FE6 JUMP JUMPDEST JUMPDEST PUSH2 0x32AA DUP3 PUSH2 0x2B4F JUMP JUMPDEST SWAP1 POP PUSH1 0x20 DUP2 ADD SWAP1 POP SWAP2 SWAP1 POP JUMP JUMPDEST PUSH0 PUSH2 0x32C9 PUSH2 0x32C4 DUP5 PUSH2 0x3287 JUMP JUMPDEST PUSH2 0x3044 JUMP JUMPDEST SWAP1 POP DUP3 DUP2 MSTORE PUSH1 0x20 DUP2 ADD DUP5 DUP5 DUP5 ADD GT ISZERO PUSH2 0x32E5 JUMPI PUSH2 0x32E4 PUSH2 0x2FE2 JUMP JUMPDEST JUMPDEST PUSH2 0x32F0 DUP5 DUP3 DUP6 PUSH2 0x308E JUMP JUMPDEST POP SWAP4 SWAP3 POP POP POP JUMP JUMPDEST PUSH0 DUP3 PUSH1 0x1F DUP4 ADD SLT PUSH2 0x330C JUMPI PUSH2 0x330B PUSH2 0x2FDE JUMP JUMPDEST JUMPDEST DUP2 CALLDATALOAD PUSH2 0x331C DUP5 DUP3 PUSH1 0x20 DUP7 ADD PUSH2 0x32B7 JUMP JUMPDEST SWAP2 POP POP SWAP3 SWAP2 POP POP JUMP JUMPDEST PUSH0 DUP1 PUSH0 DUP1 PUSH1 0x80 DUP6 DUP8 SUB SLT ISZERO PUSH2 0x333D JUMPI PUSH2 0x333C PUSH2 0x2A6C JUMP JUMPDEST JUMPDEST PUSH0 PUSH2 0x334A DUP8 DUP3 DUP9 ADD PUSH2 0x2C83 JUMP JUMPDEST SWAP5 POP POP PUSH1 0x20 PUSH2 0x335B DUP8 DUP3 DUP9 ADD PUSH2 0x2C83 JUMP JUMPDEST SWAP4 POP POP PUSH1 0x40 PUSH2 0x336C DUP8 DUP3 DUP9 ADD PUSH2 0x2BD6 JUMP JUMPDEST SWAP3 POP POP PUSH1 0x60 DUP6 ADD CALLDATALOAD PUSH8 0xFFFFFFFFFFFFFFFF DUP2 GT ISZERO PUSH2 0x338D JUMPI PUSH2 0x338C PUSH2 0x2A70 JUMP JUMPDEST JUMPDEST PUSH2 0x3399 DUP8 DUP3 DUP9 ADD PUSH2 0x32F8 JUMP JUMPDEST SWAP2 POP POP SWAP3 SWAP6 SWAP2 SWAP5 POP SWAP3 POP JUMP JUMPDEST PUSH0 DUP1 PUSH1 0x40 DUP4 DUP6 SUB SLT ISZERO PUSH2 0x33BB JUMPI PUSH2 0x33BA PUSH2 0x2A6C JUMP JUMPDEST JUMPDEST PUSH0 PUSH2 0x33C8 DUP6 DUP3 DUP7 ADD PUSH2 0x2C83 JUMP JUMPDEST SWAP3 POP POP PUSH1 0x20 PUSH2 0x33D9 DUP6 DUP3 DUP7 ADD PUSH2 0x2C83 JUMP JUMPDEST SWAP2 POP POP SWAP3 POP SWAP3 SWAP1 POP JUMP JUMPDEST PUSH0 PUSH1 0xE0 DUP4 ADD PUSH0 DUP4 ADD MLOAD PUSH2 0x33F8 PUSH0 DUP7 ADD DUP3 PUSH2 0x2D11 JUMP JUMPDEST POP PUSH1 0x20 DUP4 ADD MLOAD PUSH2 0x340B PUSH1 0x20 DUP7 ADD DUP3 PUSH2 0x2D20 JUMP JUMPDEST POP PUSH1 0x40 DUP4 ADD MLOAD DUP5 DUP3 SUB PUSH1 0x40 DUP7 ADD MSTORE PUSH2 0x3423 DUP3 DUP3 PUSH2 0x2D3F JUMP JUMPDEST SWAP2 POP POP PUSH1 0x60 DUP4 ADD MLOAD DUP5 DUP3 SUB PUSH1 0x60 DUP7 ADD MSTORE PUSH2 0x343D DUP3 DUP3 PUSH2 0x2D3F JUMP JUMPDEST SWAP2 POP POP PUSH1 0x80 DUP4 ADD MLOAD DUP5 DUP3 SUB PUSH1 0x80 DUP7 ADD MSTORE PUSH2 0x3457 DUP3 DUP3 PUSH2 0x2D3F JUMP JUMPDEST SWAP2 POP POP PUSH1 0xA0 DUP4 ADD MLOAD DUP5 DUP3 SUB PUSH1 0xA0 DUP7 ADD MSTORE PUSH2 0x3471 DUP3 DUP3 PUSH2 0x2D3F JUMP JUMPDEST SWAP2 POP POP PUSH1 0xC0 DUP4 ADD MLOAD PUSH2 0x3486 PUSH1 0xC0 DUP7 ADD DUP3 PUSH2 0x2D77 JUMP JUMPDEST POP DUP1 SWAP2 POP POP SWAP3 SWAP2 POP POP JUMP JUMPDEST PUSH0 PUSH1 0x20 DUP3 ADD SWAP1 POP DUP2 DUP2 SUB PUSH0 DUP4 ADD MSTORE PUSH2 0x34A9 DUP2 DUP5 PUSH2 0x33E3 JUMP JUMPDEST SWAP1 POP SWAP3 SWAP2 POP POP JUMP JUMPDEST PUSH32 0x4E487B7100000000000000000000000000000000000000000000000000000000 PUSH0 MSTORE PUSH1 0x22 PUSH1 0x4 MSTORE PUSH1 0x24 PUSH0 REVERT JUMPDEST PUSH0 PUSH1 0x2 DUP3 DIV SWAP1 POP PUSH1 0x1 DUP3 AND DUP1 PUSH2 0x34F5 JUMPI PUSH1 0x7F DUP3 AND SWAP2 POP JUMPDEST PUSH1 0x20 DUP3 LT DUP2 SUB PUSH2 0x3508 JUMPI PUSH2 0x3507 PUSH2 0x34B1 JUMP JUMPDEST JUMPDEST POP SWAP2 SWAP1 POP JUMP JUMPDEST PUSH32 0x4552433732313A20617070726F76616C20746F2063757272656E74206F776E65 PUSH0 DUP3 ADD MSTORE PUSH32 0x7200000000000000000000000000000000000000000000000000000000000000 PUSH1 0x20 DUP3 ADD MSTORE POP JUMP JUMPDEST PUSH0 PUSH2 0x3568 PUSH1 0x21 DUP4 PUSH2 0x2B31 JUMP JUMPDEST SWAP2 POP PUSH2 0x3573 DUP3 PUSH2 0x350E JUMP JUMPDEST PUSH1 0x40 DUP3 ADD SWAP1 POP SWAP2 SWAP1 POP JUMP JUMPDEST PUSH0 PUSH1 0x20 DUP3 ADD SWAP1 POP DUP2 DUP2 SUB PUSH0 DUP4 ADD MSTORE PUSH2 0x3595 DUP2 PUSH2 0x355C JUMP JUMPDEST SWAP1 POP SWAP2 SWAP1 POP JUMP JUMPDEST PUSH32 0x4552433732313A20617070726F76652063616C6C6572206973206E6F7420746F PUSH0 DUP3 ADD MSTORE PUSH32 0x6B656E206F776E6572206E6F7220617070726F76656420666F7220616C6C0000 PUSH1 0x20 DUP3 ADD MSTORE POP JUMP JUMPDEST PUSH0 PUSH2 0x35F6 PUSH1 0x3E DUP4 PUSH2 0x2B31 JUMP JUMPDEST SWAP2 POP PUSH2 0x3601 DUP3 PUSH2 0x359C JUMP JUMPDEST PUSH1 0x40 DUP3 ADD SWAP1 POP SWAP2 SWAP1 POP JUMP JUMPDEST PUSH0 PUSH1 0x20 DUP3 ADD SWAP1 POP DUP2 DUP2 SUB PUSH0 DUP4 ADD MSTORE PUSH2 0x3623 DUP2 PUSH2 0x35EA JUMP JUMPDEST SWAP1 POP SWAP2 SWAP1 POP JUMP JUMPDEST PUSH32 0x546F6B656E20646F6573206E6F74206578697374000000000000000000000000 PUSH0 DUP3 ADD MSTORE POP JUMP JUMPDEST PUSH0 PUSH2 0x365E PUSH1 0x14 DUP4 PUSH2 0x2B31 JUMP JUMPDEST SWAP2 POP PUSH2 0x3669 DUP3 PUSH2 0x362A JUMP JUMPDEST PUSH1 0x20 DUP3 ADD SWAP1 POP SWAP2 SWAP1 POP JUMP JUMPDEST PUSH0 PUSH1 0x20 DUP3 ADD SWAP1 POP DUP2 DUP2 SUB PUSH0 DUP4 ADD MSTORE PUSH2 0x368B DUP2 PUSH2 0x3652 JUMP JUMPDEST SWAP1 POP SWAP2 SWAP1 POP JUMP JUMPDEST PUSH32 0x436572746966696361746520616C7265616479207265766F6B65640000000000 PUSH0 DUP3 ADD MSTORE POP JUMP JUMPDEST PUSH0 PUSH2 0x36C6 PUSH1 0x1B DUP4 PUSH2 0x2B31 JUMP JUMPDEST SWAP2 POP PUSH2 0x36D1 DUP3 PUSH2 0x3692 JUMP JUMPDEST PUSH1 0x20 DUP3 ADD SWAP1 POP SWAP2 SWAP1 POP JUMP JUMPDEST PUSH0 PUSH1 0x20 DUP3 ADD SWAP1 POP DUP2 DUP2 SUB PUSH0 DUP4 ADD MSTORE PUSH2 0x36F3 DUP2 PUSH2 0x36BA JUMP JUMPDEST SWAP1 POP SWAP2 SWAP1 POP JUMP JUMPDEST PUSH32 0x4E487B7100000000000000000000000000000000000000000000000000000000 PUSH0 MSTORE PUSH1 0x32 PUSH1 0x4 MSTORE PUSH1 0x24 PUSH0 REVERT JUMPDEST PUSH32 0x4E487B7100000000000000000000000000000000000000000000000000000000 PUSH0 MSTORE PUSH1 0x11 PUSH1 0x4 MSTORE PUSH1 0x24 PUSH0 REVERT JUMPDEST PUSH0 PUSH2 0x375E DUP3 PUSH2 0x2BB7 JUMP JUMPDEST SWAP2 POP PUSH2 0x3769 DUP4 PUSH2 0x2BB7 JUMP JUMPDEST SWAP3 POP DUP3 DUP3 SUB SWAP1 POP DUP2 DUP2 GT ISZERO PUSH2 0x3781 JUMPI PUSH2 0x3780 PUSH2 0x3727 JUMP JUMPDEST JUMPDEST SWAP3 SWAP2 POP POP JUMP JUMPDEST PUSH0 DUP2 SLOAD SWAP1 POP PUSH2 0x3795 DUP2 PUSH2 0x34DE JUMP JUMPDEST SWAP1 POP SWAP2 SWAP1 POP JUMP JUMPDEST PUSH0 DUP2 SWAP1 POP DUP2 PUSH0 MSTORE PUSH1 0x20 PUSH0 KECCAK256 SWAP1 POP SWAP2 SWAP1 POP JUMP JUMPDEST PUSH0 PUSH1 0x20 PUSH1 0x1F DUP4 ADD DIV SWAP1 POP SWAP2 SWAP1 POP JUMP JUMPDEST PUSH0 DUP3 DUP3 SHL SWAP1 POP SWAP3 SWAP2 POP POP JUMP JUMPDEST PUSH0 PUSH1 0x8 DUP4 MUL PUSH2 0x37F8 PUSH32 0xFFFFFFFFFFFFFFFFFFFFFFFFFFFFFFFFFFFFFFFFFFFFFFFFFFFFFFFFFFFFFFFF DUP3 PUSH2 0x37BD JUMP JUMPDEST PUSH2 0x3802 DUP7 DUP4 PUSH2 0x37BD JUMP JUMPDEST SWAP6 POP DUP1 NOT DUP5 AND SWAP4 POP DUP1 DUP7 AND DUP5 OR SWAP3 POP POP POP SWAP4 SWAP3 POP POP POP JUMP JUMPDEST PUSH0 DUP2 SWAP1 POP SWAP2 SWAP1 POP JUMP JUMPDEST PUSH0 PUSH2 0x383D PUSH2 0x3838 PUSH2 0x3833 DUP5 PUSH2 0x2BB7 JUMP JUMPDEST PUSH2 0x381A JUMP JUMPDEST PUSH2 0x2BB7 JUMP JUMPDEST SWAP1 POP SWAP2 SWAP1 POP JUMP JUMPDEST PUSH0 DUP2 SWAP1 POP SWAP2 SWAP1 POP JUMP JUMPDEST PUSH2 0x3856 DUP4 PUSH2 0x3823 JUMP JUMPDEST PUSH2 0x386A PUSH2 0x3862 DUP3 PUSH2 0x3844 JUMP JUMPDEST DUP5 DUP5 SLOAD PUSH2 0x37C9 JUMP JUMPDEST DUP3 SSTORE POP POP POP POP JUMP JUMPDEST PUSH0 SWAP1 JUMP JUMPDEST PUSH2 0x387E PUSH2 0x3872 JUMP JUMPDEST PUSH2 0x3889 DUP2 DUP5 DUP5 PUSH2 0x384D JUMP JUMPDEST POP POP POP JUMP JUMPDEST JUMPDEST DUP2 DUP2 LT ISZERO PUSH2 0x38AC JUMPI PUSH2 0x38A1 PUSH0 DUP3 PUSH2 0x3876 JUMP JUMPDEST PUSH1 0x1 DUP2 ADD SWAP1 POP PUSH2 0x388F JUMP JUMPDEST POP POP JUMP JUMPDEST PUSH1 0x1F DUP3 GT ISZERO PUSH2 0x38F1 JUMPI PUSH2 0x38C2 DUP2 PUSH2 0x379C JUMP JUMPDEST PUSH2 0x38CB DUP5 PUSH2 0x37AE JUMP JUMPDEST DUP2 ADD PUSH1 0x20 DUP6 LT ISZERO PUSH2 0x38DA JUMPI DUP2 SWAP1 POP JUMPDEST PUSH2 0x38EE PUSH2 0x38E6 DUP6 PUSH2 0x37AE JUMP JUMPDEST DUP4 ADD DUP3 PUSH2 0x388E JUMP JUMPDEST POP POP JUMPDEST POP POP POP JUMP JUMPDEST PUSH0 DUP3 DUP3 SHR SWAP1 POP SWAP3 SWAP2 POP POP JUMP JUMPDEST PUSH0 PUSH2 0x3911 PUSH0 NOT DUP5 PUSH1 0x8 MUL PUSH2 0x38F6 JUMP JUMPDEST NOT DUP1 DUP4 AND SWAP2 POP POP SWAP3 SWAP2 POP POP JUMP JUMPDEST PUSH0 PUSH2 0x3929 DUP4 DUP4 PUSH2 0x3902 JUMP JUMPDEST SWAP2 POP DUP3 PUSH1 0x2 MUL DUP3 OR SWAP1 POP SWAP3 SWAP2 POP POP JUMP JUMPDEST DUP2 DUP2 SUB PUSH2 0x3947 JUMPI POP POP PUSH2 0x3A1C JUMP JUMPDEST PUSH2 0x3950 DUP3 PUSH2 0x3787 JUMP JUMPDEST PUSH8 0xFFFFFFFFFFFFFFFF DUP2 GT ISZERO PUSH2 0x3969 JUMPI PUSH2 0x3968 PUSH2 0x2FE6 JUMP JUMPDEST JUMPDEST PUSH2 0x3973 DUP3 SLOAD PUSH2 0x34DE JUMP JUMPDEST PUSH2 0x397E DUP3 DUP3 DUP6 PUSH2 0x38B0 JUMP JUMPDEST PUSH0 PUSH1 0x1F DUP4 GT PUSH1 0x1 DUP2 EQ PUSH2 0x39AB JUMPI PUSH0 DUP5 ISZERO PUSH2 0x3999 JUMPI DUP3 DUP8 ADD SLOAD SWAP1 POP JUMPDEST PUSH2 0x39A3 DUP6 DUP3 PUSH2 0x391E JUMP JUMPDEST DUP7 SSTORE POP PUSH2 0x3A15 JUMP JUMPDEST PUSH1 0x1F NOT DUP5 AND PUSH2 0x39B9 DUP8 PUSH2 0x379C JUMP JUMPDEST SWAP7 POP PUSH2 0x39C4 DUP7 PUSH2 0x379C JUMP JUMPDEST PUSH0 JUMPDEST DUP3 DUP2 LT ISZERO PUSH2 0x39EB JUMPI DUP5 DUP10 ADD SLOAD DUP3 SSTORE PUSH1 0x1 DUP3 ADD SWAP2 POP PUSH1 0x1 DUP6 ADD SWAP5 POP PUSH1 0x20 DUP2 ADD SWAP1 POP PUSH2 0x39C6 JUMP JUMPDEST DUP7 DUP4 LT ISZERO PUSH2 0x3A08 JUMPI DUP5 DUP10 ADD SLOAD PUSH2 0x3A04 PUSH1 0x1F DUP10 AND DUP3 PUSH2 0x3902 JUMP JUMPDEST DUP4 SSTORE POP JUMPDEST PUSH1 0x1 PUSH1 0x2 DUP9 MUL ADD DUP9 SSTORE POP POP POP JUMPDEST POP POP POP POP POP POP JUMPDEST JUMP JUMPDEST PUSH32 0x4E487B7100000000000000000000000000000000000000000000000000000000 PUSH0 MSTORE PUSH1 0x31 PUSH1 0x4 MSTORE PUSH1 0x24 PUSH0 REVERT JUMPDEST PUSH32 0x4552433732313A2063616C6C6572206973206E6F7420746F6B656E206F776E65 PUSH0 DUP3 ADD MSTORE PUSH32 0x72206E6F7220617070726F766564000000000000000000000000000000000000 PUSH1 0x20 DUP3 ADD MSTORE POP JUMP JUMPDEST PUSH0 PUSH2 0x3AA5 PUSH1 0x2E DUP4 PUSH2 0x2B31 JUMP JUMPDEST SWAP2 POP PUSH2 0x3AB0 DUP3 PUSH2 0x3A4B JUMP JUMPDEST PUSH1 0x40 DUP3 ADD SWAP1 POP SWAP2 SWAP1 POP JUMP JUMPDEST PUSH0 PUSH1 0x20 DUP3 ADD SWAP1 POP DUP2 DUP2 SUB PUSH0 DUP4 ADD MSTORE PUSH2 0x3AD2 DUP2 PUSH2 0x3A99 JUMP JUMPDEST SWAP1 POP SWAP2 SWAP1 POP JUMP JUMPDEST PUSH32 0x4552433732313A20696E76616C696420746F6B656E2049440000000000000000 PUSH0 DUP3 ADD MSTORE POP JUMP JUMPDEST PUSH0 PUSH2 0x3B0D PUSH1 0x18 DUP4 PUSH2 0x2B31 JUMP JUMPDEST SWAP2 POP PUSH2 0x3B18 DUP3 PUSH2 0x3AD9 JUMP JUMPDEST PUSH1 0x20 DUP3 ADD SWAP1 POP SWAP2 SWAP1 POP JUMP JUMPDEST PUSH0 PUSH1 0x20 DUP3 ADD SWAP1 POP DUP2 DUP2 SUB PUSH0 DUP4 ADD MSTORE PUSH2 0x3B3A DUP2 PUSH2 0x3B01 JUMP JUMPDEST SWAP1 POP SWAP2 SWAP1 POP JUMP JUMPDEST PUSH32 0x4552433732313A2061646472657373207A65726F206973206E6F742061207661 PUSH0 DUP3 ADD MSTORE PUSH32 0x6C6964206F776E65720000000000000000000000000000000000000000000000 PUSH1 0x20 DUP3 ADD MSTORE POP JUMP JUMPDEST PUSH0 PUSH2 0x3B9B PUSH1 0x29 DUP4 PUSH2 0x2B31 JUMP JUMPDEST SWAP2 POP PUSH2 0x3BA6 DUP3 PUSH2 0x3B41 JUMP JUMPDEST PUSH1 0x40 DUP3 ADD SWAP1 POP SWAP2 SWAP1 POP JUMP JUMPDEST PUSH0 PUSH1 0x20 DUP3 ADD SWAP1 POP DUP2 DUP2 SUB PUSH0 DUP4 ADD MSTORE PUSH2 0x3BC8 DUP2 PUSH2 0x3B8F JUMP JUMPDEST SWAP1 POP SWAP2 SWAP1 POP JUMP JUMPDEST PUSH2 0x3BD8 DUP3 PUSH2 0x2B27 JUMP JUMPDEST PUSH8 0xFFFFFFFFFFFFFFFF DUP2 GT ISZERO PUSH2 0x3BF1 JUMPI PUSH2 0x3BF0 PUSH2 0x2FE6 JUMP JUMPDEST JUMPDEST PUSH2 0x3BFB DUP3 SLOAD PUSH2 0x34DE JUMP JUMPDEST PUSH2 0x3C06 DUP3 DUP3 DUP6 PUSH2 0x38B0 JUMP JUMPDEST PUSH0 PUSH1 0x20 SWAP1 POP PUSH1 0x1F DUP4 GT PUSH1 0x1 DUP2 EQ PUSH2 0x3C37 JUMPI PUSH0 DUP5 ISZERO PUSH2 0x3C25 JUMPI DUP3 DUP8 ADD MLOAD SWAP1 POP JUMPDEST PUSH2 0x3C2F DUP6 DUP3 PUSH2 0x391E JUMP JUMPDEST DUP7 SSTORE POP PUSH2 0x3C96 JUMP JUMPDEST PUSH1 0x1F NOT DUP5 AND PUSH2 0x3C45 DUP7 PUSH2 0x379C JUMP JUMPDEST PUSH0 JUMPDEST DUP3 DUP2 LT ISZERO PUSH2 0x3C6C JUMPI DUP5 DUP10 ADD MLOAD DUP3 SSTORE PUSH1 0x1 DUP3 ADD SWAP2 POP PUSH1 0x20 DUP6 ADD SWAP5 POP PUSH1 0x20 DUP2 ADD SWAP1 POP PUSH2 0x3C47 JUMP JUMPDEST DUP7 DUP4 LT ISZERO PUSH2 0x3C89 JUMPI DUP5 DUP10 ADD MLOAD PUSH2 0x3C85 PUSH1 0x1F DUP10 AND DUP3 PUSH2 0x3902 JUMP JUMPDEST DUP4 SSTORE POP JUMPDEST PUSH1 0x1 PUSH1 0x2 DUP9 MUL ADD DUP9 SSTORE POP POP POP JUMPDEST POP POP POP POP POP POP JUMP JUMPDEST PUSH32 0x4F776E61626C653A206E6577206F776E657220697320746865207A65726F2061 PUSH0 DUP3 ADD MSTORE PUSH32 0x6464726573730000000000000000000000000000000000000000000000000000 PUSH1 0x20 DUP3 ADD MSTORE POP JUMP JUMPDEST PUSH0 PUSH2 0x3CF8 PUSH1 0x26 DUP4 PUSH2 0x2B31 JUMP JUMPDEST SWAP2 POP PUSH2 0x3D03 DUP3 PUSH2 0x3C9E JUMP JUMPDEST PUSH1 0x40 DUP3 ADD SWAP1 POP SWAP2 SWAP1 POP JUMP JUMPDEST PUSH0 PUSH1 0x20 DUP3 ADD SWAP1 POP DUP2 DUP2 SUB PUSH0 DUP4 ADD MSTORE PUSH2 0x3D25 DUP2 PUSH2 0x3CEC JUMP JUMPDEST SWAP1 POP SWAP2 SWAP1 POP JUMP JUMPDEST PUSH32 0x4365727469666963617465206E6F7420666F756E6420666F7220746865207072 PUSH0 DUP3 ADD MSTORE PUSH32 0x6F766964656420746F6B656E4964000000000000000000000000000000000000 PUSH1 0x20 DUP3 ADD MSTORE POP JUMP JUMPDEST PUSH0 PUSH2 0x3D86 PUSH1 0x2E DUP4 PUSH2 0x2B31 JUMP JUMPDEST SWAP2 POP PUSH2 0x3D91 DUP3 PUSH2 0x3D2C JUMP JUMPDEST PUSH1 0x40 DUP3 ADD SWAP1 POP SWAP2 SWAP1 POP JUMP JUMPDEST PUSH0 PUSH1 0x20 DUP3 ADD SWAP1 POP DUP2 DUP2 SUB PUSH0 DUP4 ADD MSTORE PUSH2 0x3DB3 DUP2 PUSH2 0x3D7A JUMP JUMPDEST SWAP1 POP SWAP2 SWAP1 POP JUMP JUMPDEST PUSH32 0x4F776E61626C653A2063616C6C6572206973206E6F7420746865206F776E6572 PUSH0 DUP3 ADD MSTORE POP JUMP JUMPDEST PUSH0 PUSH2 0x3DEE PUSH1 0x20 DUP4 PUSH2 0x2B31 JUMP JUMPDEST SWAP2 POP PUSH2 0x3DF9 DUP3 PUSH2 0x3DBA JUMP JUMPDEST PUSH1 0x20 DUP3 ADD SWAP1 POP SWAP2 SWAP1 POP JUMP JUMPDEST PUSH0 PUSH1 0x20 DUP3 ADD SWAP1 POP DUP2 DUP2 SUB PUSH0 DUP4 ADD MSTORE PUSH2 0x3E1B DUP2 PUSH2 0x3DE2 JUMP JUMPDEST SWAP1 POP SWAP2 SWAP1 POP JUMP JUMPDEST PUSH32 0x4552433732313A207472616E736665722066726F6D20696E636F727265637420 PUSH0 DUP3 ADD MSTORE PUSH32 0x6F776E6572000000000000000000000000000000000000000000000000000000 PUSH1 0x20 DUP3 ADD MSTORE POP JUMP JUMPDEST PUSH0 PUSH2 0x3E7C PUSH1 0x25 DUP4 PUSH2 0x2B31 JUMP JUMPDEST SWAP2 POP PUSH2 0x3E87 DUP3 PUSH2 0x3E22 JUMP JUMPDEST PUSH1 0x40 DUP3 ADD SWAP1 POP SWAP2 SWAP1 POP JUMP JUMPDEST PUSH0 PUSH1 0x20 DUP3 ADD SWAP1 POP DUP2 DUP2 SUB PUSH0 DUP4 ADD MSTORE PUSH2 0x3EA9 DUP2 PUSH2 0x3E70 JUMP JUMPDEST SWAP1 POP SWAP2 SWAP1 POP JUMP JUMPDEST PUSH32 0x4552433732313A207472616E7366657220746F20746865207A65726F20616464 PUSH0 DUP3 ADD MSTORE PUSH32 0x7265737300000000000000000000000000000000000000000000000000000000 PUSH1 0x20 DUP3 ADD MSTORE POP JUMP JUMPDEST PUSH0 PUSH2 0x3F0A PUSH1 0x24 DUP4 PUSH2 0x2B31 JUMP JUMPDEST SWAP2 POP PUSH2 0x3F15 DUP3 PUSH2 0x3EB0 JUMP JUMPDEST PUSH1 0x40 DUP3 ADD SWAP1 POP SWAP2 SWAP1 POP JUMP JUMPDEST PUSH0 PUSH1 0x20 DUP3 ADD SWAP1 POP DUP2 DUP2 SUB PUSH0 DUP4 ADD MSTORE PUSH2 0x3F37 DUP2 PUSH2 0x3EFE JUMP JUMPDEST SWAP1 POP SWAP2 SWAP1 POP JUMP JUMPDEST PUSH0 PUSH2 0x3F48 DUP3 PUSH2 0x2BB7 JUMP JUMPDEST SWAP2 POP PUSH2 0x3F53 DUP4 PUSH2 0x2BB7 JUMP JUMPDEST SWAP3 POP DUP3 DUP3 ADD SWAP1 POP DUP1 DUP3 GT ISZERO PUSH2 0x3F6B JUMPI PUSH2 0x3F6A PUSH2 0x3727 JUMP JUMPDEST JUMPDEST SWAP3 SWAP2 POP POP JUMP JUMPDEST PUSH0 DUP2 SWAP1 POP SWAP2 SWAP1 POP JUMP JUMPDEST PUSH2 0x3F8B PUSH2 0x3F86 DUP3 PUSH2 0x2BB7 JUMP JUMPDEST PUSH2 0x3F71 JUMP JUMPDEST DUP3 MSTORE POP POP JUMP JUMPDEST PUSH0 PUSH2 0x3F9C DUP3 DUP7 PUSH2 0x3F7A JUMP JUMPDEST PUSH1 0x20 DUP3 ADD SWAP2 POP PUSH2 0x3FAC DUP3 DUP6 PUSH2 0x3F7A JUMP JUMPDEST PUSH1 0x20 DUP3 ADD SWAP2 POP PUSH2 0x3FBC DUP3 DUP5 PUSH2 0x3F7A JUMP JUMPDEST PUSH1 0x20 DUP3 ADD SWAP2 POP DUP2 SWAP1 POP SWAP5 SWAP4 POP POP POP POP JUMP JUMPDEST PUSH32 0x4E487B7100000000000000000000000000000000000000000000000000000000 PUSH0 MSTORE PUSH1 0x12 PUSH1 0x4 MSTORE PUSH1 0x24 PUSH0 REVERT JUMPDEST PUSH0 PUSH2 0x4004 DUP3 PUSH2 0x2BB7 JUMP JUMPDEST SWAP2 POP PUSH2 0x400F DUP4 PUSH2 0x2BB7 JUMP JUMPDEST SWAP3 POP DUP3 PUSH2 0x401F JUMPI PUSH2 0x401E PUSH2 0x3FCD JUMP JUMPDEST JUMPDEST DUP3 DUP3 MOD SWAP1 POP SWAP3 SWAP2 POP POP JUMP JUMPDEST PUSH32 0x45524337323155524953746F726167653A2055524920736574206F66206E6F6E PUSH0 DUP3 ADD MSTORE PUSH32 0x6578697374656E7420746F6B656E000000000000000000000000000000000000 PUSH1 0x20 DUP3 ADD MSTORE POP JUMP JUMPDEST PUSH0 PUSH2 0x4084 PUSH1 0x2E DUP4 PUSH2 0x2B31 JUMP JUMPDEST SWAP2 POP PUSH2 0x408F DUP3 PUSH2 0x402A JUMP JUMPDEST PUSH1 0x40 DUP3 ADD SWAP1 POP SWAP2 SWAP1 POP JUMP JUMPDEST PUSH0 PUSH1 0x20 DUP3 ADD SWAP1 POP DUP2 DUP2 SUB PUSH0 DUP4 ADD MSTORE PUSH2 0x40B1 DUP2 PUSH2 0x4078 JUMP JUMPDEST SWAP1 POP SWAP2 SWAP1 POP JUMP JUMPDEST PUSH32 0x4552433732313A20617070726F766520746F2063616C6C657200000000000000 PUSH0 DUP3 ADD MSTORE POP JUMP JUMPDEST PUSH0 PUSH2 0x40EC PUSH1 0x19 DUP4 PUSH2 0x2B31 JUMP JUMPDEST SWAP2 POP PUSH2 0x40F7 DUP3 PUSH2 0x40B8 JUMP JUMPDEST PUSH1 0x20 DUP3 ADD SWAP1 POP SWAP2 SWAP1 POP JUMP JUMPDEST PUSH0 PUSH1 0x20 DUP3 ADD SWAP1 POP DUP2 DUP2 SUB PUSH0 DUP4 ADD MSTORE PUSH2 0x4119 DUP2 PUSH2 0x40E0 JUMP JUMPDEST SWAP1 POP SWAP2 SWAP1 POP JUMP JUMPDEST PUSH32 0x4552433732313A207472616E7366657220746F206E6F6E204552433732315265 PUSH0 DUP3 ADD MSTORE PUSH32 0x63656976657220696D706C656D656E7465720000000000000000000000000000 PUSH1 0x20 DUP3 ADD MSTORE POP JUMP JUMPDEST PUSH0 PUSH2 0x417A PUSH1 0x32 DUP4 PUSH2 0x2B31 JUMP JUMPDEST SWAP2 POP PUSH2 0x4185 DUP3 PUSH2 0x4120 JUMP JUMPDEST PUSH1 0x40 DUP3 ADD SWAP1 POP SWAP2 SWAP1 POP JUMP JUMPDEST PUSH0 PUSH1 0x20 DUP3 ADD SWAP1 POP DUP2 DUP2 SUB PUSH0 DUP4 ADD MSTORE PUSH2 0x41A7 DUP2 PUSH2 0x416E JUMP JUMPDEST SWAP1 POP SWAP2 SWAP1 POP JUMP JUMPDEST PUSH0 DUP2 SWAP1 POP SWAP3 SWAP2 POP POP JUMP JUMPDEST PUSH0 PUSH2 0x41C2 DUP3 PUSH2 0x2B27 JUMP JUMPDEST PUSH2 0x41CC DUP2 DUP6 PUSH2 0x41AE JUMP JUMPDEST SWAP4 POP PUSH2 0x41DC DUP2 DUP6 PUSH1 0x20 DUP7 ADD PUSH2 0x2B41 JUMP JUMPDEST DUP1 DUP5 ADD SWAP2 POP POP SWAP3 SWAP2 POP POP JUMP JUMPDEST PUSH0 PUSH2 0x41F3 DUP3 DUP6 PUSH2 0x41B8 JUMP JUMPDEST SWAP2 POP PUSH2 0x41FF DUP3 DUP5 PUSH2 0x41B8 JUMP JUMPDEST SWAP2 POP DUP2 SWAP1 POP SWAP4 SWAP3 POP POP POP JUMP JUMPDEST PUSH32 0x536F756C626F756E6420746F6B656E2063616E6E6F74206265207472616E7366 PUSH0 DUP3 ADD MSTORE PUSH32 0x6572726564000000000000000000000000000000000000000000000000000000 PUSH1 0x20 DUP3 ADD MSTORE POP JUMP JUMPDEST PUSH0 PUSH2 0x4265 PUSH1 0x25 DUP4 PUSH2 0x2B31 JUMP JUMPDEST SWAP2 POP PUSH2 0x4270 DUP3 PUSH2 0x420B JUMP JUMPDEST PUSH1 0x40 DUP3 ADD SWAP1 POP SWAP2 SWAP1 POP JUMP JUMPDEST PUSH0 PUSH1 0x20 DUP3 ADD SWAP1 POP DUP2 DUP2 SUB PUSH0 DUP4 ADD MSTORE PUSH2 0x4292 DUP2 PUSH2 0x4259 JUMP JUMPDEST SWAP1 POP SWAP2 SWAP1 POP JUMP JUMPDEST PUSH0 DUP2 MLOAD SWAP1 POP SWAP2 SWAP1 POP JUMP JUMPDEST PUSH0 DUP3 DUP3 MSTORE PUSH1 0x20 DUP3 ADD SWAP1 POP SWAP3 SWAP2 POP POP JUMP JUMPDEST PUSH0 PUSH2 0x42BD DUP3 PUSH2 0x4299 JUMP JUMPDEST PUSH2 0x42C7 DUP2 DUP6 PUSH2 0x42A3 JUMP JUMPDEST SWAP4 POP PUSH2 0x42D7 DUP2 DUP6 PUSH1 0x20 DUP7 ADD PUSH2 0x2B41 JUMP JUMPDEST PUSH2 0x42E0 DUP2 PUSH2 0x2B4F JUMP JUMPDEST DUP5 ADD SWAP2 POP POP SWAP3 SWAP2 POP POP JUMP JUMPDEST PUSH0 PUSH1 0x80 DUP3 ADD SWAP1 POP PUSH2 0x42FE PUSH0 DUP4 ADD DUP8 PUSH2 0x2C45 JUMP JUMPDEST PUSH2 0x430B PUSH1 0x20 DUP4 ADD DUP7 PUSH2 0x2C45 JUMP JUMPDEST PUSH2 0x4318 PUSH1 0x40 DUP4 ADD DUP6 PUSH2 0x2FB6 JUMP JUMPDEST DUP2 DUP2 SUB PUSH1 0x60 DUP4 ADD MSTORE PUSH2 0x432A DUP2 DUP5 PUSH2 0x42B3 JUMP JUMPDEST SWAP1 POP SWAP6 SWAP5 POP POP POP POP POP JUMP JUMPDEST PUSH0 DUP2 MLOAD SWAP1 POP PUSH2 0x4343 DUP2 PUSH2 0x2A9F JUMP JUMPDEST SWAP3 SWAP2 POP POP JUMP JUMPDEST PUSH0 PUSH1 0x20 DUP3 DUP5 SUB SLT ISZERO PUSH2 0x435E JUMPI PUSH2 0x435D PUSH2 0x2A6C JUMP JUMPDEST JUMPDEST PUSH0 PUSH2 0x436B DUP5 DUP3 DUP6 ADD PUSH2 0x4335 JUMP JUMPDEST SWAP2 POP POP SWAP3 SWAP2 POP POP JUMP JUMPDEST PUSH32 0x4552433732313A206D696E7420746F20746865207A65726F2061646472657373 PUSH0 DUP3 ADD MSTORE POP JUMP JUMPDEST PUSH0 PUSH2 0x43A8 PUSH1 0x20 DUP4 PUSH2 0x2B31 JUMP JUMPDEST SWAP2 POP PUSH2 0x43B3 DUP3 PUSH2 0x4374 JUMP JUMPDEST PUSH1 0x20 DUP3 ADD SWAP1 POP SWAP2 SWAP1 POP JUMP JUMPDEST PUSH0 PUSH1 0x20 DUP3 ADD SWAP1 POP DUP2 DUP2 SUB PUSH0 DUP4 ADD MSTORE PUSH2 0x43D5 DUP2 PUSH2 0x439C JUMP JUMPDEST SWAP1 POP SWAP2 SWAP1 POP JUMP JUMPDEST PUSH32 0x4552433732313A20746F6B656E20616C7265616479206D696E74656400000000 PUSH0 DUP3 ADD MSTORE POP JUMP JUMPDEST PUSH0 PUSH2 0x4410 PUSH1 0x1C DUP4 PUSH2 0x2B31 JUMP JUMPDEST SWAP2 POP PUSH2 0x441B DUP3 PUSH2 0x43DC JUMP JUMPDEST PUSH1 0x20 DUP3 ADD SWAP1 POP SWAP2 SWAP1 POP JUMP JUMPDEST PUSH0 PUSH1 0x20 DUP3 ADD SWAP1 POP DUP2 DUP2 SUB PUSH0 DUP4 ADD MSTORE PUSH2 0x443D DUP2 PUSH2 0x4404 JUMP JUMPDEST SWAP1 POP SWAP2 SWAP1 POP JUMP JUMPDEST PUSH0 PUSH2 0x444E DUP3 PUSH2 0x2BB7 JUMP JUMPDEST SWAP2 POP PUSH32 0xFFFFFFFFFFFFFFFFFFFFFFFFFFFFFFFFFFFFFFFFFFFFFFFFFFFFFFFFFFFFFFFF DUP3 SUB PUSH2 0x4480 JUMPI PUSH2 0x447F PUSH2 0x3727 JUMP JUMPDEST JUMPDEST PUSH1 0x1 DUP3 ADD SWAP1 POP SWAP2 SWAP1 POP JUMP JUMPDEST PUSH0 PUSH2 0x4495 DUP3 PUSH2 0x2BB7 JUMP JUMPDEST SWAP2 POP PUSH2 0x44A0 DUP4 PUSH2 0x2BB7 JUMP JUMPDEST SWAP3 POP DUP3 PUSH2 0x44B0 JUMPI PUSH2 0x44AF PUSH2 0x3FCD JUMP JUMPDEST JUMPDEST DUP3 DUP3 DIV SWAP1 POP SWAP3 SWAP2 POP POP JUMP INVALID SLOAD PUSH9 0x697320636572746966 PUSH10 0x63617465206861732062 PUSH6 0x656E20726576 PUSH16 0x6B6564A26469706673582212201B3BDE 0xC9 MSTORE JUMP SDIV 0xA5 0x26 SWAP5 0xDB 0xD1 PUSH10 0xA137889F56917B80526B SWAP14 0xB9 0xB4 EXTCODESIZE EXP PUSH11 0x71134764736F6C63430008 BYTE STOP CALLER "
		},
		"gasEstimates": {
			"creation": {
				"codeDepositCost": "3536400",
				"executionCost": "infinite",
				"totalCost": "infinite"
			},
			"external": {
				"approve(address,uint256)": "infinite",
				"balanceOf(address)": "2975",
				"getAllCertificates()": "infinite",
				"getApproved(uint256)": "5240",
				"getCertificate(uint64)": "infinite",
				"isApprovedForAll(address,address)": "infinite",
				"isRevoked(uint64)": "2851",
				"mintCertificate(address,string,string,string,string,string)": "infinite",
				"name()": "infinite",
				"owner()": "2582",
				"ownerOf(uint256)": "3030",
				"renounceOwnership()": "30523",
				"revokeCertificate(uint64)": "infinite",
				"safeTransferFrom(address,address,uint256)": "infinite",
				"safeTransferFrom(address,address,uint256,bytes)": "infinite",
				"setApprovalForAll(address,bool)": "infinite",
				"supportsInterface(bytes4)": "787",
				"symbol()": "infinite",
				"tokenURI(uint256)": "infinite",
				"totalReviews()": "2491",
				"transferFrom(address,address,uint256)": "infinite",
				"transferOwnership(address)": "30841"
			},
			"internal": {
				"_beforeTokenTransfer(address,address,uint256)": "infinite",
				"_burn(uint256)": "infinite",
				"generateRandomId()": "infinite"
			}
		},
		"methodIdentifiers": {
			"approve(address,uint256)": "095ea7b3",
			"balanceOf(address)": "70a08231",
			"getAllCertificates()": "13fcfe80",
			"getApproved(uint256)": "081812fc",
			"getCertificate(uint64)": "f6ae476b",
			"isApprovedForAll(address,address)": "e985e9c5",
			"isRevoked(uint64)": "874ce680",
			"mintCertificate(address,string,string,string,string,string)": "8d13d72d",
			"name()": "06fdde03",
			"owner()": "8da5cb5b",
			"ownerOf(uint256)": "6352211e",
			"renounceOwnership()": "715018a6",
			"revokeCertificate(uint64)": "21c61a00",
			"safeTransferFrom(address,address,uint256)": "42842e0e",
			"safeTransferFrom(address,address,uint256,bytes)": "b88d4fde",
			"setApprovalForAll(address,bool)": "a22cb465",
			"supportsInterface(bytes4)": "01ffc9a7",
			"symbol()": "95d89b41",
			"tokenURI(uint256)": "c87b56dd",
			"totalReviews()": "e2367890",
			"transferFrom(address,address,uint256)": "23b872dd",
			"transferOwnership(address)": "f2fde38b"
		}
	},
	"abi": [
		{
			"inputs": [],
			"stateMutability": "nonpayable",
			"type": "constructor"
		},
		{
			"anonymous": false,
			"inputs": [
				{
					"indexed": true,
					"internalType": "address",
					"name": "owner",
					"type": "address"
				},
				{
					"indexed": true,
					"internalType": "address",
					"name": "approved",
					"type": "address"
				},
				{
					"indexed": true,
					"internalType": "uint256",
					"name": "tokenId",
					"type": "uint256"
				}
			],
			"name": "Approval",
			"type": "event"
		},
		{
			"anonymous": false,
			"inputs": [
				{
					"indexed": true,
					"internalType": "address",
					"name": "owner",
					"type": "address"
				},
				{
					"indexed": true,
					"internalType": "address",
					"name": "operator",
					"type": "address"
				},
				{
					"indexed": false,
					"internalType": "bool",
					"name": "approved",
					"type": "bool"
				}
			],
			"name": "ApprovalForAll",
			"type": "event"
		},
		{
			"anonymous": false,
			"inputs": [
				{
					"indexed": true,
					"internalType": "address",
					"name": "previousOwner",
					"type": "address"
				},
				{
					"indexed": true,
					"internalType": "address",
					"name": "newOwner",
					"type": "address"
				}
			],
			"name": "OwnershipTransferred",
			"type": "event"
		},
		{
			"anonymous": false,
			"inputs": [
				{
					"indexed": true,
					"internalType": "address",
					"name": "from",
					"type": "address"
				},
				{
					"indexed": true,
					"internalType": "address",
					"name": "to",
					"type": "address"
				},
				{
					"indexed": true,
					"internalType": "uint256",
					"name": "tokenId",
					"type": "uint256"
				}
			],
			"name": "Transfer",
			"type": "event"
		},
		{
			"inputs": [
				{
					"internalType": "address",
					"name": "to",
					"type": "address"
				},
				{
					"internalType": "uint256",
					"name": "tokenId",
					"type": "uint256"
				}
			],
			"name": "approve",
			"outputs": [],
			"stateMutability": "nonpayable",
			"type": "function"
		},
		{
			"inputs": [
				{
					"internalType": "address",
					"name": "owner",
					"type": "address"
				}
			],
			"name": "balanceOf",
			"outputs": [
				{
					"internalType": "uint256",
					"name": "",
					"type": "uint256"
				}
			],
			"stateMutability": "view",
			"type": "function"
		},
		{
			"inputs": [],
			"name": "getAllCertificates",
			"outputs": [
				{
					"components": [
						{
							"internalType": "uint64",
							"name": "tokenId",
							"type": "uint64"
						},
						{
							"internalType": "address",
							"name": "owner",
							"type": "address"
						},
						{
							"internalType": "string",
							"name": "ownerName",
							"type": "string"
						},
						{
							"internalType": "string",
							"name": "title",
							"type": "string"
						},
						{
							"internalType": "string",
							"name": "ipfsHash",
							"type": "string"
						},
						{
							"internalType": "string",
							"name": "blogName",
							"type": "string"
						},
						{
							"internalType": "uint256",
							"name": "timestamp",
							"type": "uint256"
						}
					],
					"internalType": "struct BlogReview.NFTData[]",
					"name": "",
					"type": "tuple[]"
				}
			],
			"stateMutability": "view",
			"type": "function"
		},
		{
			"inputs": [
				{
					"internalType": "uint256",
					"name": "tokenId",
					"type": "uint256"
				}
			],
			"name": "getApproved",
			"outputs": [
				{
					"internalType": "address",
					"name": "",
					"type": "address"
				}
			],
			"stateMutability": "view",
			"type": "function"
		},
		{
			"inputs": [
				{
					"internalType": "uint64",
					"name": "tokenId",
					"type": "uint64"
				}
			],
			"name": "getCertificate",
			"outputs": [
				{
					"components": [
						{
							"internalType": "uint64",
							"name": "tokenId",
							"type": "uint64"
						},
						{
							"internalType": "address",
							"name": "owner",
							"type": "address"
						},
						{
							"internalType": "string",
							"name": "ownerName",
							"type": "string"
						},
						{
							"internalType": "string",
							"name": "title",
							"type": "string"
						},
						{
							"internalType": "string",
							"name": "ipfsHash",
							"type": "string"
						},
						{
							"internalType": "string",
							"name": "blogName",
							"type": "string"
						},
						{
							"internalType": "uint256",
							"name": "timestamp",
							"type": "uint256"
						}
					],
					"internalType": "struct BlogReview.NFTData",
					"name": "",
					"type": "tuple"
				}
			],
			"stateMutability": "view",
			"type": "function"
		},
		{
			"inputs": [
				{
					"internalType": "address",
					"name": "owner",
					"type": "address"
				},
				{
					"internalType": "address",
					"name": "operator",
					"type": "address"
				}
			],
			"name": "isApprovedForAll",
			"outputs": [
				{
					"internalType": "bool",
					"name": "",
					"type": "bool"
				}
			],
			"stateMutability": "view",
			"type": "function"
		},
		{
			"inputs": [
				{
					"internalType": "uint64",
					"name": "tokenId",
					"type": "uint64"
				}
			],
			"name": "isRevoked",
			"outputs": [
				{
					"internalType": "bool",
					"name": "",
					"type": "bool"
				}
			],
			"stateMutability": "view",
			"type": "function"
		},
		{
			"inputs": [
				{
					"internalType": "address",
					"name": "owner",
					"type": "address"
				},
				{
					"internalType": "string",
					"name": "ownerName",
					"type": "string"
				},
				{
					"internalType": "string",
					"name": "title",
					"type": "string"
				},
				{
					"internalType": "string",
					"name": "ipfsHash",
					"type": "string"
				},
				{
					"internalType": "string",
					"name": "ipfstokenURI",
					"type": "string"
				},
				{
					"internalType": "string",
					"name": "blogName",
					"type": "string"
				}
			],
			"name": "mintCertificate",
			"outputs": [
				{
					"internalType": "uint256",
					"name": "",
					"type": "uint256"
				}
			],
			"stateMutability": "nonpayable",
			"type": "function"
		},
		{
			"inputs": [],
			"name": "name",
			"outputs": [
				{
					"internalType": "string",
					"name": "",
					"type": "string"
				}
			],
			"stateMutability": "view",
			"type": "function"
		},
		{
			"inputs": [],
			"name": "owner",
			"outputs": [
				{
					"internalType": "address",
					"name": "",
					"type": "address"
				}
			],
			"stateMutability": "view",
			"type": "function"
		},
		{
			"inputs": [
				{
					"internalType": "uint256",
					"name": "tokenId",
					"type": "uint256"
				}
			],
			"name": "ownerOf",
			"outputs": [
				{
					"internalType": "address",
					"name": "",
					"type": "address"
				}
			],
			"stateMutability": "view",
			"type": "function"
		},
		{
			"inputs": [],
			"name": "renounceOwnership",
			"outputs": [],
			"stateMutability": "nonpayable",
			"type": "function"
		},
		{
			"inputs": [
				{
					"internalType": "uint64",
					"name": "tokenId",
					"type": "uint64"
				}
			],
			"name": "revokeCertificate",
			"outputs": [],
			"stateMutability": "nonpayable",
			"type": "function"
		},
		{
			"inputs": [
				{
					"internalType": "address",
					"name": "from",
					"type": "address"
				},
				{
					"internalType": "address",
					"name": "to",
					"type": "address"
				},
				{
					"internalType": "uint256",
					"name": "tokenId",
					"type": "uint256"
				}
			],
			"name": "safeTransferFrom",
			"outputs": [],
			"stateMutability": "nonpayable",
			"type": "function"
		},
		{
			"inputs": [
				{
					"internalType": "address",
					"name": "from",
					"type": "address"
				},
				{
					"internalType": "address",
					"name": "to",
					"type": "address"
				},
				{
					"internalType": "uint256",
					"name": "tokenId",
					"type": "uint256"
				},
				{
					"internalType": "bytes",
					"name": "data",
					"type": "bytes"
				}
			],
			"name": "safeTransferFrom",
			"outputs": [],
			"stateMutability": "nonpayable",
			"type": "function"
		},
		{
			"inputs": [
				{
					"internalType": "address",
					"name": "operator",
					"type": "address"
				},
				{
					"internalType": "bool",
					"name": "approved",
					"type": "bool"
				}
			],
			"name": "setApprovalForAll",
			"outputs": [],
			"stateMutability": "nonpayable",
			"type": "function"
		},
		{
			"inputs": [
				{
					"internalType": "bytes4",
					"name": "interfaceId",
					"type": "bytes4"
				}
			],
			"name": "supportsInterface",
			"outputs": [
				{
					"internalType": "bool",
					"name": "",
					"type": "bool"
				}
			],
			"stateMutability": "view",
			"type": "function"
		},
		{
			"inputs": [],
			"name": "symbol",
			"outputs": [
				{
					"internalType": "string",
					"name": "",
					"type": "string"
				}
			],
			"stateMutability": "view",
			"type": "function"
		},
		{
			"inputs": [
				{
					"internalType": "uint256",
					"name": "tokenId",
					"type": "uint256"
				}
			],
			"name": "tokenURI",
			"outputs": [
				{
					"internalType": "string",
					"name": "",
					"type": "string"
				}
			],
			"stateMutability": "view",
			"type": "function"
		},
		{
			"inputs": [],
			"name": "totalReviews",
			"outputs": [
				{
					"internalType": "uint256",
					"name": "",
					"type": "uint256"
				}
			],
			"stateMutability": "view",
			"type": "function"
		},
		{
			"inputs": [
				{
					"internalType": "address",
					"name": "from",
					"type": "address"
				},
				{
					"internalType": "address",
					"name": "to",
					"type": "address"
				},
				{
					"internalType": "uint256",
					"name": "tokenId",
					"type": "uint256"
				}
			],
			"name": "transferFrom",
			"outputs": [],
			"stateMutability": "nonpayable",
			"type": "function"
		},
		{
			"inputs": [
				{
					"internalType": "address",
					"name": "newOwner",
					"type": "address"
				}
			],
			"name": "transferOwnership",
			"outputs": [],
			"stateMutability": "nonpayable",
			"type": "function"
		}
	]
}